:020000040800F2
:100000009091012069020008F317000813120008FC
:10001000F117000855060008D91900080000000073
:10002000000000000000000000000000211900088E
:100030005706000800000000F51700082319000803
:10004000830200088302000883020008830200087C
:10005000830200088302000883020008830200086C
:10006000830200088302000883020008830200085C
:10007000830200088302000883020008830200084C
:10008000830200088302000883020008830200083C
:10009000830200088302000883020008830200082C
:1000A000830200088302000883020008830200081C
:1000B000830200088302000883020008830200080C
:1000C00083020008830200088302000883020008FC
:1000D00083020008830200088302000883020008EC
:1000E00083020008830200088302000883020008DC
:1000F00083020008830200088302000883020008CC
:1001000083020008830200088302000883020008BB
:1001100083020008830200088302000883020008AB
:10012000830200088302000883020008830200089B
:10013000830200088302000883020008830200088B
:10014000830200088302000883020008830200087B
:10015000830200088302000883020008830200086B
:10016000830200088302000883020008830200085B
:1001700083020008830200088302000800000000D8
:10018000830200088302000800F002F800F05CF827
:100190000AA090E8000C82448344AAF10107DA45E2
:1001A00001D100F051F8AFF2090EBAE80F0013F0D8
:1001B000010F18BFFB1A43F00103184758840200CF
:1001C000888402000A444FF0000C10F8013B13F041
:1001D000070408BF10F8014B1D1108BF10F8015BA0
:1001E000641E05D010F8016B641E01F8016BF9D193
:1001F00013F0080F1EBF10F8014BAD1C0C1B09D1EA
:100200006D1E58BF01F801CBFAD505E014F8016B5B
:1002100001F8016B6D1EF9D59142D6D370470000ED
:100220000023002400250026103A28BF78C1FBD8FF
:10023000520728BF30C148BF0B6070471FB523F07D
:10024000C9FE1FBD10B510BD00F0D1F91146FFF772
:10025000F5FF1FF0E7FC00F0EFF903B4FFF7F2FF42
:1002600003BC00F0BDF90000094880470948004779
:10027000FEE7FEE7FEE7FEE7FEE7FEE7FEE7FEE756
:10028000FEE7FEE704480549054A064B70470000B3
:10029000C91900088901000800C0012090910120BF
:1002A00000F001209011012053EA020C00F0698057
:1002B0002DE9F04B4FF00006002B1FBFB3FA83F57A
:1002C00003FA05F424FA05F65E4012BF1643B2FAAB
:1002D00082F502FA05F4C5F120051EBF22FA05FCDD
:1002E00044EA0C04203556EA044C4FEA144418BF83
:1002F000641C4FF000084FF00009904271EB030CB2
:1003000039D3002919BFB1FA81F701FA07F6B0FA1B
:1003100080F700FA07F6C7F120071EBF20FA07FC96
:1003200046EA0C062037B6FBF4FCA7EB0507103FA6
:1003300007F01F0BCBF120060CFA0BFB2CFA06F68C
:1003400044BFB3460026202FA4BF5E464FF0000BEB
:100350005BEA060C08BF4FF0010B19EB0B09ABFB76
:10036000027C48EB0608C01B06FB02CC0BFB03CC4F
:1003700071EB0C01C1E70B46024641464846BDE819
:10038000F08B13B54FF000004FF00001AFF3008089
:10039000BDE81C40704740EA0103024630B59B07A8
:1003A00010D14FF0013400E008C208C91D1B9D4365
:1003B00015EAC41FF8D013F0FF0102F8011B0DD09D
:1003C0001B0AF8E711F8013B002B02F8013B05D0AE
:1003D00011F8013B002B02F8013BF3D130BD10B501
:1003E000431C02E010F8011B71B18107FAD14FF0F4
:1003F000013202C88C1A8C4314EAC211F9D0C01A17
:100400000A0603D0C01E10BDC01A10BD0A0401D0D8
:10041000801E10BD0902FCD0401E10BD032A40F210
:10042000308010F0030C00F0158011F8013BBCF196
:10043000020F624498BF11F801CB00F8013B38BFAE
:1004400011F8013BA2F1040298BF00F801CB38BFBC
:1004500000F8013B11F0030300F02580083AC0F0DA
:10046000088051F8043B083A51F804CBA0E8081082
:10047000F5E7121D5CBF51F8043B40F8043BAFF3B5
:100480000080D20724BF11F8013B11F801CB48BF0F
:1004900011F8012B24BF00F8013B00F801CB48BF45
:1004A00000F8012B704710B5203AC0F00B80B1E87E
:1004B0001850203AA0E81850B1E81850A0E8185099
:1004C000BFF4F5AF5FEA027C24BFB1E81850A0E8A2
:1004D000185044BF18C918C0BDE810405FEA827CBC
:1004E00024BF51F8043B40F8043B08BF7047D207D3
:1004F00028BF31F8023B48BF11F8012B28BF20F874
:10050000023B48BF00F8012B70474FF0000200B5D6
:10051000134694469646203922BFA0E80C50A0E826
:100520000C50B1F12001BFF4F7AF090728BFA0E8D4
:100530000C5048BF0CC05DF804EB890028BF40F8A0
:10054000042B08BF704748BF20F8022B11F0804FE2
:1005500018BF00F8012B70474FF0013C50F8042BF6
:1005600051F8043B9A4221D1A2EB0C03934313EAC6
:10057000CC1317D150F8042B51F8043B9A4215D1F3
:10058000A2EB0C03934313EACC130BD150F8042BCA
:1005900051F8043B9A4209D1A2EB0C03934313EAAE
:1005A000CC13DBD04FF00000704700BFD01A01BA67
:1005B000B1FA81F101F0180122FA01F0CB40C1F14A
:1005C0002001DBB2C0B2C01A2CFA01F3D11A914358
:1005D00011EAC311E6D170477047704770470000B9
:1005E00001491820ABBEFEE72600020070477546A1
:1005F00000F02CF8AE4605006946534620F007008F
:10060000854618B020B5FFF73DFEBDE820404FF00D
:1006100000064FF000074FF000084FF0000B21F0EC
:100620000701AC46ACE8C009ACE8C009ACE8C009B9
:10063000ACE8C0098D46704710B50446AFF30080A2
:100640002046BDE81040FFF708BE00000048704794
:100650002C110120FEE7704772B6FEE72DE9F0414C
:10066000044600F020F82070C0B1032000F038F8F4
:100670000746042000F034F80646052000F030F864
:100680000546062000F02CF807F00F0146EA01218C
:10069000618005F00F0140EA012001E00020608048
:1006A000A080BDE8F081022000F01AB810B50B4C14
:1006B00000222021204600F03CF9322000F02AF8E8
:1006C00001222021204600F034F9322000F022F8E7
:1006D000BDE81040A32000F003B800000004024071
:1006E00010B5044600F04AFE702000F021FE2046BE
:1006F00000F01EFE00F042FE712000F019FE00F036
:10070000ABFD0446012000F0F7FD00F059FE204645
:1007100010BD000070B5044600F010F90546601CDD
:1007200002D004480078044400F008F9401BA042BD
:10073000FAD370BD000000202DE9F84FDFF8BCA10E
:100740000022012503264FF00F090AF1040BAAF13C
:10075000040E00BF0B6805FA02F42340A34270D1D7
:100760000F7907F00307012F01D0022F16D18768F8
:100770004FEA420806FA08FC27EA0C07D1F80CC039
:100780000CFA08FC4CEA070CC0F808C04768A743FD
:100790000C79C4F3001494403C4344600C79E44366
:1007A000A4070AD0C4684FEA420C06FA0CF7BC430F
:1007B0008F6807FA0CF72743C7600C7904F003042D
:1007C000022C12D1D40800EB840CDCF8204057072F
:1007D000FF0E09FA07F824EA0804D1F8108008FA95
:1007E00007F848EA0408CCF8208004684FEA420C75
:1007F00006FA0CF7BC430F7907F0030707FA0CF76A
:10080000274307604C6814F4403F70D03C4C276885
:1008100047F480472760246822F0030704F48044EB
:100820000094384C07EB040CDCF8084897074FEAB3
:10083000177809FA08F7BC43334FB84202D10027B2
:1008400024E054E0314FB84201D101271EE0304F7F
:10085000B84201D1022719E02E4FB84201D1032737
:1008600014E02D4FB84201D104270FE02B4FB842BE
:1008700001D105270AE02A4FB84201D1062705E039
:10088000284FB84201D1072700E0082707FA08F7E8
:100890002743CCF80878DAF800405746D1F804C06E
:1008A0009C435FEACC2C00D51C433C60DBF8004045
:1008B0005F46D1F804C09C435FEA8C2C00D51C43F2
:1008C0003C60DEF800407746D1F804C09C435FEA04
:1008D0008C3C00D51C433C60084F083F3C68D1F875
:1008E00004C09C435FEACC3C00D51C433C60521CD6
:1008F000102AFFF42FAFBDE8F88F0000083C01403C
:100900004438024000300140000002400004024030
:1009100000080240000C0240001002400014024097
:1009200000180240001C02400069084000D001206D
:1009300070470AB1816170470904FBE7014880688C
:1009400070470000000000200248816802781144CE
:1009500081607047000000200B4810B5016841F429
:1009600000710160016841F480610160016841F437
:1009700080710160032000F061F80F2000F006F89C
:1009800000F024F8002010BD003C024070B50D4D71
:1009900004464FF47A712878B1FBF0F00A490968EF
:1009A000B1FBF0F000F021FC48B9102C07D2002276
:1009B0002146501E00F022F800206C6070BD01201E
:1009C00070BD0000000000200C0000200A4808B59F
:1009D000016841F480410160006800F480400090AB
:1009E0000548001F016841F080510160006800F077
:1009F0008050009008BD000044380240F0B40E4B17
:100A00001B680C46C3F30223C3F10705042D00D96C
:100A10000425191D072901D2002300E0DB1E012651
:100A200006FA05F1491E214099409E40761E164067
:100A30003143F0BC00F0D1BF0CED00E0064900F0FE
:100A4000070208684FF6FF03184040EA0220034AF5
:100A500010430860704700000CED00E00000FA054C
:100A60002DE9F0470E46050065D0DFF81481D8F86F
:100A70000000F7B200F00700B04207D288F800701B
:100A8000D8F8000000F00700B04254D128683D4C6F
:100A9000810712D5400703D5206840F4E05020605C
:100AA0002878000703D5206840F460402060206863
:100AB000A96820F0F000084320602878C0072DD0F6
:100AC000304968680839012812D0022813D0032859
:100AD00011D00968890700292DDA216821F0030166
:100AE00001432160FFF72AFF814641F2883A0EE078
:100AF00009688903EFE709688901ECE7FFF71EFF42
:100B0000A0EB0901514502D90320BDE8F087206818
:100B1000696800F00C00B0EB810FEFD1D8F800103D
:100B2000404601F00701B14207D90770006800F0A4
:100B30000700B04201D00120E7E72878400705D53B
:100B40002068E96820F4E050084320602878000716
:100B500006D52068296920F4604040EAC100206081
:100B600000F018F82168084AC1F30311515CC8402D
:100B70000649086006480068FFF708FF0020C4E740
:100B8000003C024008380240DE3F02080C00002012
:100B900004000020154810B5006810F00C0214483D
:100BA00013D04110042A0FD0082A0ED10F4C241F55
:100BB0002268236802F03F025B0207D52068C0F379
:100BC0008810A0FB010106E0084610BD2168C1F3B2
:100BD0008811A1FB00010023FFF766FB2168C1F328
:100BE0000141491C4900B0FBF1F010BD083802403A
:100BF0000024F4002DE9F84F04006ED02078DFF8CF
:100C00004C93C007A9F104054AD009F1040001681A
:100C1000C1F38101012908D00068C0F381000228D6
:100C20000AD1D9F80000400206D52868800337D5DC
:100C300060680028E1D033E06068B0F5803F10D0F4
:100C4000B0F5A02F286810D020F4803028602868E4
:100C500020F4802028606068A8B1FFF76FFE064688
:100C60000DE0286840F48030F4E740F480202860EC
:100C7000F7E700BFFFF762FE801B642873D828687F
:100C80008003F7D50CE0FFF759FE064605E000BFEC
:100C9000FFF754FE801B6428F0D828688003F7D43F
:100CA0002078DFF8AC8280074FF0000A3ED5A748D5
:100CB000001D016811F00C0F08D00068C0F381001E
:100CC00002280BD1D9F80000400207D42868800719
:100CD00016D5E068012800D112E033E1E068B8B130
:100CE0000120C8F80000FFF729FE064605E000BF16
:100CF000FFF724FE801B0228C0D828688007F7D59C
:100D00002868216920F0F80040EAC10028600DE061
:100D1000C8F800A0FFF712FE064604E0FFF70EFE3B
:100D2000801B02281FD828688007F7D42078000786
:100D300022D5864F87486169703771B10121016002
:100D4000FFF7FCFD064604E0FFF7F8FD801B0228D4
:100D500009D838688007F7D50EE0C0F800A0FFF783
:100D6000EDFD064605E082E0FFF7E8FD801B022866
:100D70007DD838688007F7D42078400768D5DFF839
:100D8000CCB100270BF13C0BDBF80000C0000BD40A
:100D9000DBF8001041F08051CBF80010DBF80000C8
:100DA000012700F0805000906B4E3068C00510D4D1
:100DB000306840F480703060FFF7C0FD009005E0BF
:100DC000FFF7BCFD0099401A022850D83068C005D2
:100DD000F6D55E4EA0686C3601280FD00528306825
:100DE00010D020F001003060306820F00400306046
:100DF000A068B8B1FFF7A2FD00900FE0306840F0A6
:100E00000100F4E740F004003060F7E7FFF796FDDB
:100E10000099411A41F28830814266D830688007D3
:100E2000F4D50EE0FFF78AFD009007E0FFF786FD9E
:100E30000099411A41F28830814256D830688007C3
:100E4000F4D42FB1DBF8001021F08051CBF8001062
:100E5000A069C8B33D49091D0968C1F38101022990
:100E60004AD00228504607D0C8F8600000E03CE0B5
:100E7000FFF764FD04463BE04746C8F86000FFF713
:100E80005DFD064605E000BFFFF758FD801B022808
:100E90002BD828688001F7D4D4E907010843A16A58
:100EA0002E4A490802EB0141626A41EA8211084375
:100EB00094F82C1040EA0161C9F80010012038664E
:100EC000FFF73CFD044606E03EE000BFFFF736FDBD
:100ED000001B022809D828688001F7D534E000BF3C
:100EE000FFF72CFD001B022802D90320BDE8F88F74
:100EF00028688001F4D427E00128F7D0D9F8000051
:100F0000E26900F4800191421CD1226A00F03F01A5
:100F1000914217D147F6C071626A0140B1EB821F5E
:100F200010D1A26A4FF0FF3300F4403103EB5202BC
:100F3000B1EB024F06D194F82C1000F07060B0EBCA
:100F4000016F01D00120D1E70020CFE70438024033
:100F500000004742800E4742007000400000FFFF43
:100F600070B5040009D0606A002540B12561656153
:100F7000A56294F8510040B10CE0012070BD60689A
:100F8000B0F5827FF4D0E561F2E784F85050204656
:100F900000F044F8022084F851002068016821F034
:100FA00040010160A088218900F4827001F40441AD
:100FB0000843A18901F400610843217C01F002018A
:100FC0000843217D01F001010843218B01F40071E8
:100FD0000843217F01F03801084394F8201001F004
:100FE00080010843218D01F4005108432168086005
:100FF000A069042101EA104094F8241001F01001C6
:101000000843216848602068C16921F40061C1611A
:101010006565012084F85100002070BD10B586B0D0
:10102000044614216846FFF770FA13492068884285
:1010300020D112480021026842F480520260006808
:1010400000F4805005900D481438026842F0010207
:101050000260006800F001000590E020009002208E
:10106000CDE901010320039005200490694604485E
:10107000FFF762FB06B010BD00300140443802406B
:10108000000002402DE9F84F984616468A4604466D
:10109000FFF754FC814694F8510001281ED1BAF1A3
:1010A000000F73D0002E71D094F85000012815D095
:1010B000012784F85070032084F8510000256565ED
:1010C000C4F830A0A686E686A563A587E587656493
:1010D0002564A068B0F5004F03D00CE00220BDE805
:1010E000F88F2068016821F04001016020680168E4
:1010F00041F48041016020680168490603D4016819
:1011000041F040010160E068B0F5006F606803D015
:1011100048B3012E27D047E008B1012E1FD1206B24
:1011200021680088C86006E020688168890709D5C1
:10113000216B0988C160206B801C2063E08E401EFB
:10114000E0860CE0FFF7FAFBA0EB0901414503D371
:10115000B8F1FF3F03D035E0B8F1000F32D0E08E98
:101160000028E1D123E0206B21680078087306E0B5
:101170002068816889070AD5216B09780173206B83
:10118000401C2063E08E401EE0860DE02BE0FFF760
:10119000D5FBA0EB0901414503D3B8F1FF3F03D0D4
:1011A00010E0B8F1000F0DD0E08E0028E0D14A46E3
:1011B0004146204600F020FB08B120206065A06871
:1011C00030B109E084F8517084F85050032086E76C
:1011D0002068C1688068009084F8517004F8505FFE
:1011E00060680028F3D0012079E710B5401EB0F107
:1011F000807F01D3012010BD4FF0E02460610F21FA
:10120000601700F0EAFB0020A061072020610020A9
:1012100010BDFEE70020401CC0B20A28FBD3704777
:1012200070B500F03FF80B4D012240212846FFF732
:1012300080FBFFF7EFFF80212846FFF775FB044690
:10124000002240212846FFF774FBFFF7E3FF20460A
:1012500070BD0000000402402DE9F041002500F0BF
:1012600021F80F4E00246806070E01224021304667
:10127000FFF75FFBFFF7CEFF80213046FFF754FBFF
:1012800040EA0705002240213046FFF752FBFFF7F6
:10129000C1FF641CE4B2082CE5D32846BDE8F08108
:1012A0000004024000B585B014216846FFF72DF90F
:1012B00080200090002001900120029069460248A1
:1012C000FFF73AFA05B000BD0004024000B585B052
:1012D00014216846FFF719F9802000900120019041
:1012E00002900320039069460248FFF725FA05B0F3
:1012F00000BD00000004024010B50446FFF7E6FF01
:1013000022460A4C80212046FFF713FB0122402190
:101310002046FFF70EFBFFF77DFF0022402120460D
:10132000FFF707FBBDE81040FFF774BF0004024061
:1013300070B50546FFF7CAFF0F4E0024EA09802169
:101340003046FFF7F6FA6806050E012240213046C6
:10135000FFF7EFFAFFF75EFF002240213046FFF76C
:10136000E8FAFFF757FF641CE4B2082CE6D3BDE8A7
:101370007040FFF755BF00000004024010B5FFF7B2
:10138000A5FF0E4C012280212046FFF7D2FA012250
:1013900040212046FFF7CDFAFFF73CFF00228021D5
:1013A0002046FFF7C6FAFFF735FF0022402120460E
:1013B000FFF7BFFABDE81040FFF72CBF0004024062
:1013C00010B5FFF783FF0B4C002280212046FFF76A
:1013D000B0FA012240212046FFF7ABFAFFF71AFFCF
:1013E000012280212046FFF7A4FABDE81040FFF754
:1013F00011BF0000000402407FB500F021F9714DDB
:101400004FF48054002221462846FFF792FA052027
:10141000FFF780F9012221462846FFF78AFA0120CA
:1014200000F04AF94FF47A70FFF774F9CB2000F01E
:1014300043F965A1D1E90001CDE900010521684624
:1014400000F04EF9CF2000F037F961A003210068C9
:101450000090684600F044F9E82000F02DF95DA006
:10146000032100680090684600F03AF9EA2000F095
:1014700023F9002402216846009400F031F9ED20A0
:1014800000F01AF954A0042100680090684600F0AA
:1014900027F9F72000F010F950A001210068009012
:1014A000684600F01DF9C02000F006F94CA00121AB
:1014B00000680090684600F013F9C12000F0FCF8C5
:1014C00048A0012100680090684600F009F9C52095
:1014D00000F0F2F844A0022100680090684600F095
:1014E000FFF8C72000F0E8F840A001210068009054
:1014F000684600F0F5F8362000F0DEF83CA0012147
:1015000000680090684600F0EBF83A2000F0D4F84C
:1015100038A0012100680090684600F0E1F8B12091
:1015200000F0CAF834A0022100680090684600F07C
:10153000D7F8B62000F0C0F830A003210068009072
:10154000684600F0CDF8F22000F0B6F801216846B8
:10155000009400F0C5F8262000F0AEF828A0012184
:1015600000680090684600F0BBF8E02000F0A4F8A6
:1015700024A00FC88DE80F000F21684600F0B0F8D6
:10158000E12000F099F823A10FC98DE80F000F2189
:10159000684600F0A5F8112000F08EF87820FFF7DB
:1015A000B9F8292000F088F8362000F085F810A05E
:1015B000012100680090684600F092F8BDE87F4085
:1015C00000F072B800040240392C00340200000020
:1015D00000C1300085007800640312812000000003
:1015E00023000000100000003E28000086000000DC
:1015F000400000005500000000180000088227008D
:10160000010000000F312B0C0E084EF137071003BC
:101610000E090000000E1403110731C148080F0C19
:1016200031360F0010B5044600F00AF80CB1212045
:1016300000E0202000F040F8BDE8104000F034B891
:1016400000224FF400410148FFF773B90004024043
:10165000F8B507461C4615460E462A2000F02CF821
:10166000380A8DF800008DF80170280A8DF8020004
:101670008DF803500421684600F032F82B2000F06A
:101680001BF8300A8DF800008DF80160200A8DF8F3
:1016900002008DF803400421684600F021F8BDE8FF
:1016A000F8402C2000F008B80122D1030148FFF7D0
:1016B00040B900000004024001B500224FF480410F
:1016C0000548FFF736F94FF0FF330122694603481A
:1016D000FFF7D8FC08BD000000040240040200200F
:1016E0002DE9F0410C460646012291030C48FFF714
:1016F00020F94FF400474FF0FF380DE0BC4201D90C
:10170000384600E0204685B243462A463146054821
:10171000FFF7B8FC2E44641B002CEFD1BDE8F0812C
:10172000000402400402002070B586B0142168460F
:10173000FEF7EBFE1A480025016841F080010160C8
:10174000016801F080010591016841F0010101602B
:10175000016801F001010591016841F00201016099
:101760000068104E00F002004DF2E00405900122E6
:1017700021463046FFF7DDF8009401240320CDE92F
:101780000240694601943046FEF7D6FF1020CDE9AD
:101790000005694602943046FEF7CEFF06B070BDE4
:1017A0003038024000040240104810B50E49016074
:1017B0004FF482714160002102228160C0E903126E
:1017C00001224261520282612822C0E9072141625E
:1017D00081620A21C162FFF7C3FB002803D0BDE884
:1017E0001040FEF739BF10BD003001400402002058
:1017F000FEE7FEE770470000F8B515460E460B46BB
:10180000009204460122022100F02CF8A0B91348EE
:1018100013490068B0FBF1F04FF47A71484300902F
:101820006068B0F5827F0DD13346002280212046CA
:10183000009500F017F870B1606D40F02000606511
:101840000320F8BD009830B1401E009020688068E9
:10185000C0430006F6D50020F8BD00000C000020B3
:1018600000366E012DE9F8431E469146884604462F
:10187000089DFFF763F8401B351AFFF75FF807462E
:1018800026480068C0F3CB3068430AE0701C09D0DA
:10189000FFF754F8C01BA8420FD275B10098B8B337
:1018A000401E00902068816838EA010033D0002192
:1018B0004945EBD10020BDE8F8832068416821F05C
:1018C000E00141606068B0F5827F0BD1A068B0F59F
:1018D000004F02D0B0F5806F04D12068016821F07C
:1018E00040010160A06AB0F5005F09D1206801687D
:1018F00021F4005101602068016841F40051016049
:10190000012084F85100002084F850000320D2E721
:10191000FFE70025C6E70121CAE700000C00002010
:10192000704710B5FFF710F8BDE8104001201DF01A
:1019300063BC000030B593B030216846FEF7E5FD8A
:1019400014210CA8FEF7E1FD1D480025016841F0B7
:1019500080510160006800F08050119019480168C2
:1019600041F4804101600068022400F4804011903D
:1019700001200090000401908001CDE9064008AAF2
:101980000420A82182E813000B906846FFF732F983
:1019900008B172B6FEE70CA90F2081E831004FF4C0
:1019A000A0500F904FF48050109005210CA8FFF725
:1019B00057F8002801D072B6FEE713B030BD000022
:1019C00040380240007000400248016841F4700154
:1019D0000160704788ED00E0FEE70907090E002866
:1019E00004DB00F1E02080F80014704700F00F00E5
:1019F00000F1E02080F8141D704770B50446002502
:101A00006FF02F0608E02068411C2160007805EB8C
:101A1000850106EB410145182068007800F004F8C4
:101A20000028F0D1284670BD3038092801D801209F
:101A3000704700207047000010B54021074801F0B2
:101A40007DF800221E2106481DF030FC054CA060E8
:101A500002F0C2F80020207010BD0000604F00208E
:101A6000813C00088801002070B5B1F90030B2F95E
:101A70000040A34200DC23460380B1F90250B2F9D2
:101A80000240A54200DD2C464480B1F90460B2F961
:101A90000450AE4200DA35468580B1F90610B2F93D
:101AA0000620914200DB1146C1800120AB4201DCDF
:101AB0008C4200DD002070BDF8B50D460446B0F93B
:101AC0000000B1F900101646884247DBB4F9021055
:101AD000B5F90220914241DBB4F90410B5F90420B4
:101AE00091423BDCB4F90610B5F90620914235DC91
:101AF00096B3ADF800006088ADF802003246694642
:101B0000284600F099F8002827D0A088ADF80000FA
:101B10006088ADF8020032466946284600F08CF82D
:101B200000281AD02088ADF80000E088ADF8020047
:101B300032466946284600F07FF800280DD0A0887C
:101B4000ADF80000E088ADF802003246694628464C
:101B500000F072F8002800D00120F8BD0020F8BD88
:101B6000B0F90020B1F904309A4213DCB0F9042036
:101B7000B1F900309A420DDBB0F90220B1F906301C
:101B80009A4207DCB0F90600B1F90210884201DB85
:101B90000120704700207047F8B50D460446B0F9A3
:101BA0000400B1F900101646884243DBB4F9060080
:101BB000B5F9021088423DDBB4F90000B5F9041014
:101BC000884237DCB4F90210B5F90620914231DCC5
:101BD00076B3ADF800006088ADF802003246694681
:101BE000284600F029F818BBA088ADF800006088EE
:101BF000ADF8020032466946284600F01DF8B8B933
:101C00002088ADF80000E088ADF802003246694651
:101C1000284600F011F858B9A088ADF80000E08817
:101C2000ADF8020032466946284600F005F808B1D2
:101C30000020F8BD0120F8BD2DE9FC4114460E46F8
:101C4000B1F90020B0F9001005468A423ADBB5F937
:101C50000400824236DCB6F90270B5F902209742E0
:101C600030DBB5F906309F422CDC002C75DD401AC4
:101C70009A1A401C521C00B212B200EBD07002EB58
:101C8000D27240105210904200DB1046844200DDB8
:101C90000446ADF80010288800222044ADF8040066
:101CA0006888ADF80200688831462044ADF8060027
:101CB0006846FFF7C1FF40B1BDF804002044ADF80D
:101CC00004003FE00020BDE8FC81E8880022001B02
:101CD000ADF80200E888ADF8060031466846FFF727
:101CE000ABFF28B1BDF804002044ADF8040011E0BA
:101CF000A8880022001BADF80000A888ADF80400F9
:101D000031466846FFF798FF50B1BDF80000001B50
:101D1000ADF80000BDF80200001BADF8020016E0AF
:101D20006888ADF80200688800222044ADF80600FB
:101D300031466846FFF780FF70B1BDF80000001B18
:101D4000ADF80000BDF806002044ADF806003146AD
:101D500068461AF0F3FDB6E7FFE70120B3E710B5D8
:101D6000B1F90040B2F900309C4200DA234603800A
:101D7000B1F90240B2F902309C4200DA23464380B6
:101D8000B1F90440B2F904309C4200DD234683805F
:101D9000B1F90610B2F90620914200DC1146C1806B
:101DA00010BD0000FEB507461DF01CFA0025354C9D
:101DB0000646009537B1F868606038461DF044FB70
:101DC000606802E010F066FB606000691AF052FD86
:101DD0006068406908B11AF04DFD6068C0691AF08A
:101DE00049FD6068006A1AF045FD60680169E1B369
:101DF0001AF0E8FF1AF064FF6068B0F8501199B368
:101E00000168097C890715D510F0A2FB401E07B2B6
:101E1000606810F057FB401E03B20022114601A873
:101E200000970EF00CFA606801A90268926B51608D
:101E300004F0C2F960684FF48071303016F03CFB5A
:101E40006068202100F5987016F036FB6068A0F8F5
:101E5000505130461DF0C0F9009060680068436A38
:101E600013B122680099984700E007E016F066F980
:101E700000F036F8BDE8FE4000F006B8A0F850517A
:101E8000FEBD00004400002070B50A4D002400BFD4
:101E9000C4EBC40655F8260008B116F0C3F905EBEB
:101EA00086001C2116F008FB641CE4B2042CEFD35E
:101EB00070BD00003C500020084949680AE04A68AB
:101EC000824202D00A68824203D10A7E42F00102B5
:101ED0000A7649690029F2D17047000018000020F5
:101EE000704700000421014800F028BE544F002034
:101EF0001C21014800F022BE6C4F00202DE9FF5F3D
:101F00000446DDE90E0613B9B0F5807F7ED0B6F940
:101F100000504FF0FF376D42454307EB25252DB2AA
:101F20002580B6F902C0CCF1000C0CFB00FC07EBDD
:101F30002C273FB26780B6F900C0A1EB0C014143EA
:101F40004FF0020C0CEB212109B2A180B6F90280FE
:101F5000A2EB080242430CEB222000B2E080002BEF
:101F60007ED04FF00A0A93FBFAF5684200EB80003E
:101F700003EB400705F1010928B21DF0A5FB009015
:101F80000FFA89F01DF0A0FB83465A3528B21DF0E8
:101F90009BFB804609F15A0000B21DF095FB0146FB
:101FA000009AC7F10A0000FB02F300FB08F00BFBEC
:101FB000073301FB070193FBFAF291FBFAF04FEABA
:101FC000601AB4F90010B4F902000AFB01FCCDF864
:101FD0000CC05511378805FB10C207EBA2220FFA7F
:101FE00082F905FB01F2BB46029277880AFB0021C9
:101FF00007EBA1210BB2B4F90410BE460AFB01FCA9
:1020000005FB10C20BEBA22216B200E02FE005FB8D
:1020100001F7CDE9007CB4F90680DDF80CC00AFBBD
:10202000007005FB18C1DDF804C0009F05FB18C552
:10203000029A0AFB087C0AFB08220BEBA1210EEB9B
:10204000AC270EEBA02009B20EEBA2220BEBA525CC
:102050000FFA87FC00B212B22DB24F46494500E09C
:102060000EE000DA0F46B54216DAA84615E0002069
:102070002080491E6080A180521EE280BDE8FF9F43
:1020800032882A44228072883A446280328811441D
:10209000A180718808444FE0B046474504DA4F46B6
:1020A000494506DA0F4604E0B54201DA2F4600E062
:1020B000374627804F46494500DD0F46B54201DDD2
:1020C000A84600E0B046474503DD4D46494505DCDE
:1020D00001E0B54201DD294600E03146A1809A4287
:1020E00001DA154600E01D46844501DA614600E04C
:1020F00001468D4205DA9A4201DA114606E0194698
:1021000004E0844501DA614600E0014661809A42BC
:1021100001DD114600E01946844501DD654600E019
:102120000546A94205DD9A4201DD104604E0184645
:1021300002E0844500DD6046E0809FE72DE9FE4F28
:102140000446D0F800B0B0F90800E589091AB4F9DE
:102150000A00101AD4E90932B5F5807F37D0A58975
:10216000002DA56B05FB01F13FD045434E116911D0
:10217000206BE56A00FB06F705FB1177754300FB52
:10218000015003EBA72902EBA020B4F904104FEA99
:10219000292706128046B94248DD002F46DBB4F9F4
:1021A0000600B04242DD002E40DB94F834004207C6
:1021B0003FD5820704F114001DD401FB06710222F1
:1021C0004D0092460BEB050116F02CF923E0266B2F
:1021D000E56A06FB01F705FB10774D4306FB00504F
:1021E00003EBA70902EBA000CFE7454303EB61191E
:1021F00002EB6510C9E701FB067101EB41054FF0E9
:10220000030A0BEB0501022216F00CF9E81C5844F6
:1022100010F8010CA07594F83400C0071FD04FF6D9
:10222000FF70ADF80000A18A814218D10020BDE8FE
:10223000FE8F32B204F118002369CDE901020025B6
:1022400039B2AA468B4613F05DFC0090BDF8000041
:10225000A082DDE90102594613F0ECFBDAE7E07CED
:1022600078B1A4F83C90A4F83E80A4F84070A4F89B
:102270004260656484F848A02046BDE8FE4F00F047
:1022800002B80120D3E72DE9F04F044690F83C1046
:10229000D0F8009090F83E0087B04FF0FF367029DC
:1022A00007DAB4F940203546012A00D500258031EF
:1022B0000DE0902916DDB4F94020B4F90430012571
:1022C000521C9A4200DB0025A1F27F114942C9B29B
:1022D0008846702809DAB4F94210012900D5002691
:1022E000803010E00025FF21F2E790280DDDB4F9E1
:1022F0004210B4F906200126491C914200DB002659
:10230000A0F27F104042C7B201E00026FF276069BB
:102310000090A07D0590002083468246049094F8AA
:102320003400400744D594F84810606C11FB050157
:102330004944022201A816F075F8A08894F84810C4
:1023400010FB01F0616C022206FB0011494403A856
:1023500016F068F8A18894F8480011FB00F1626C4F
:1023600006FB012210FB05901118022202A816F0AC
:1023700059F894F83400800761D594F84800626CED
:1023800010FB052300EB09010B4413F8013C0493F7
:10239000A38813FB00F306FB0322114411F801BCD0
:1023A00010FB0500111801EB090010F8010C45E0C5
:1023B000B4F84000B4F94220284401B204F11800F6
:1023C0008146236913F09EFB0190B4F84200B4F9F2
:1023D0004010304402B254F8103F484613F092FBCC
:1023E0000390608E2368304402B2208E284401B2EC
:1023F000484613F087FB029094F82400103C8007B5
:102400001DD5B4F9422034F8400F284401B24846A3
:1024100013F010FB04906088B4F90010304402B24D
:10242000484613F007FB83466088304402B234F814
:102430004009284401B2484613F0FCFA824694F859
:10244000340042464546800735D5059810FB08F311
:102450000499C8F1FF0011FB0031C1F307211BFBF8
:1024600008F61AFB0060C0F3072011FB07F3C7F161
:10247000FF0610FB06331B0AA375022907D80228A2
:1024800003D8002007B0BDE8F08F002702E0022843
:1024900000D8FF270598022800D8002204980228B7
:1024A00000D8FF22BBF1020F00D80025BAF1020FBD
:1024B00003D8FF2501E0FF20A075EAB1FF2A04D070
:1024C000DDE900010FF0DEFB0090BDB1FF2D17D05C
:1024D000DDE902102A460FF0D5FB049097B1FF2FDB
:1024E00005D001463A4600980FF0CCFB0090BDF8AD
:1024F0000000A0820120C5E70198E5E70298ECE71B
:102500000398EAE7BDF81000F3E700002DE9F04773
:102510000446B0F908000A2700026062B4F90A0014
:102520000002A062B4F90C1091FBF7F5684200EBD1
:10253000800001EB4006684205F1010800B21DF081
:10254000C3F88246E84300B21DF0BEF88146C5F1EB
:102550005A0000B21DF0B8F80546C8F15A0000B2A2
:102560001DF0B2F8C6F10A0101FB0AF3024609FBAD
:102570000630694390FBF7F002FB061191FBF7F17F
:102580004011E06248112063A07C13F068FB94F8CE
:10259000341060F3000184F83410A07C13F04FFB7A
:1025A00094F8341060F3410184F83410A07C0428BE
:1025B00024D0052822D0062820D021F0040100BF15
:1025C00084F8341021682162A16921F0E00160F3F0
:1025D0000401A08860F39421E08860F35F51A16159
:1025E000E0894FF4001101EB5001B1FBF0F0A06362
:1025F000FF20A075208AA082BDE8F08741F0040189
:10260000DEE700002DE9F04115460E460746114C65
:102610001CF0E8FD80462B4632463946204613F032
:102620009FFE20B10020A062E06950B110E02C2193
:10263000204615F041FF4FF00040A0620020BDE8A9
:10264000F08140461CF0C8FDE06108B90120E0615E
:102650002046F4E7904F002010B51421074800F001
:102660006DFA13F043FE40B1054901600549416030
:10267000054981600549C16010BDFEE7784F002023
:10268000195D0108956001080D620108E55C01080B
:1026900070B50D4604461021284615F00DFF206840
:1026A0000078012804D0022807D0042807D008E0C9
:1026B000208A2880608A688003E0E06800E00A20C1
:1026C000686020684268002A03D02946BDE870404F
:1026D000104770BDFEB5866A0446BEB9A08A218A3D
:1026E0000844A082E08A618A0844E082204609F01A
:1026F00036FF060079D020460CF088F90022092127
:10270000304612F0D9FC607880076ED4208A10B968
:10271000608A002869D00025ADF80450ADF8085053
:1027200094F83C0000F00F000328304616D017F054
:102730004BFC0746304617F001FB03460C20009087
:10274000B4F912103A46304609F0C0FAADF8080064
:10275000304617F045FBC10712D017E017F0C8FB51
:102760000746304617F064FB024603200090B4F998
:1027700010103B46304609F0A9FAADF80400E7E72F
:10278000BDF90410002901DDADF80450810705D41E
:10279000BDF90410002901DAADF80450410705D451
:1027A000BDF90810002901DDADF80850000705D477
:1027B000BDF90800002801DAADF8085002AA01A905
:1027C00020461EF07EFC0023BDF90820BDF9041050
:1027D000304619F0FFFBA08ABDF804100844A0821F
:1027E000E08ABDF808100844E082FEBD2DE9FC5FD8
:1027F0000446806A5FEA000B71D094F83C00000741
:102800006DD014F067F8019000684021457E58466D
:1028100018F084FB4FF0000818B9A4F81A80A4F847
:102820001880584617F0C2FB8246584617F0C5FB81
:10283000064694F83C004FF0640900F00F000C28A5
:1028400002D003284CD09AE0A4F8188056B1B4F90D
:102850001A50002714F03EF800684946407EC0F147
:10286000640022E0608BC5F1640110FB01F191FB73
:10287000F9F06083584617F061FA0546584617F09C
:10288000A3FB02460C200090B4F91A102B465846C0
:1028900009F01CFA6083024600231EE07A1917B281
:1028A00010FB05F292FBF1F215B2002DF6D1ADF856
:1028B0000070A4F81A806A46002120461EF001FC30
:1028C00041F6FF72BDF900305142584609F0ACFFA5
:1028D000BDF800100123084402B200214CE09AE048
:1028E000A4F81A80BAF1000F0AD0B4F918500027E2
:1028F00013F0F0FF00684946407EC0F1640022E01A
:10290000208BC5F1640110FB01F191FBF9F02083EC
:10291000584617F08DFA0546584617F0E9FA03466F
:1029200003200090B4F918102A46584609F0CEF951
:102930002083014600231EE07A1917B210FB05F22E
:1029400092FBF1F215B2002DF6D1ADF80070A4F8AB
:1029500018800022694620461EF0B3FB41F6FF7244
:10296000BDF900305142584609F0D6FEBDF80010BE
:102970000123084401B20022584619F02BFB208B9A
:10298000002848D1608B002845D1C6B9584617F0B9
:102990001BFB0546584617F0D1F9002D06DC002830
:1029A0000DDD002D02DA01232A4604E0002806DAB4
:1029B0000123404202B20021584619F00BFBBAF144
:1029C000000F19D1584617F033FA0546584617F04C
:1029D0008FFA002D07DC00280EDD002D03DA01231D
:1029E0000022294605E0002806DA012300224042A1
:1029F00001B2584619F0EEFA0A215846019A12F02F
:102A00005BFB6078800706D414F83C0F20F00F00C1
:102A1000207044F8148CBDE8FC9F00007FB50E4682
:102A2000040003D10FF036FD040023D00025FEB1D1
:102A3000ADF80050ADF802500FF044FD401EADF867
:102A4000040020460FF084FD401EADF806006A46E3
:102A5000314602A8FFF708F800280BD02068017C57
:102A6000890708D5DDE90001C4E90C0101202AE04D
:102A7000A0F850517FBD82690AB102A99047002693
:102A80000BE000BF04EBC601002202A83031FFF7C3
:102A900013F80028EED1761CB6B2B4F85001B0425B
:102AA000F0D880B2202804D204EBC00002A9303054
:102AB00004E0A4F8505104F1300069460DF016FB13
:102AC000B4F85001401CA4F8500160680028D1D02F
:102AD0001CF0C6FC7FBD70B5054600F012F8044638
:102AE0000CE02146284600F01EF8064621462846FE
:102AF00000F071F8204615F095FB3446002CF0D11B
:102B000070BD002800D04068704700B50346002221
:102B1000FFF7F7FF03E01846521C00F004F801002D
:102B2000F9D1104600BD0068091D40587047006883
:102B300040587047002800D08068704700224260EB
:102B4000C91C21F0030182600160704770B5044622
:102B50000068083015F0DCFA050013D001460022A9
:102B600020461DF063FC2946204662681DF058FC93
:102B7000616819B12A4620461DF058FC6560A068BE
:102B800000B9A560284670BD70B5044600680830DD
:102B900015F0BEFA050013D00146002220461DF0B4
:102BA0003FFC29462046A2681DF040FCA16819B1EF
:102BB0002A4620461DF034FCA560606800B96560B7
:102BC000284670BD28B1416809B9806808B1002065
:102BD00070470120704770B504000DD0FFF791FFDA
:102BE00000228842204608D1FFF79DFF6060011E49
:102BF00001D000221EE0A26070BDFFF79BFF88425B
:102C0000206808440AD10168A16029B12046BDE8C6
:102C1000704000221DF004BC626070BD0568204653
:102C2000FFF781FF06460246294620461DF0F8FBC5
:102C30002A4631462046BDE870401DF0F7BB10B56E
:102C40000446006882680AB12146904720680068FF
:102C5000002801D02060F5E710BD8068002801D071
:102C6000B0F91600704700002DE9F047074690B014
:102C7000408C189E40F00400788490463A8499462F
:102C80008A463289384617F0B5FF0546A7F82090E6
:102C900032895146384617F0ADFF0446788CA5427C
:102CA00020F00400788403D12904B1EB044F68D0EC
:102CB000A7F8208032895146384617F09BFF054619
:102CC0008046A7F82090514638460AF07BFF3189AC
:102CD00000682A461BF0F0F93089602823D147F6B6
:102CE000FF794D4501D04C451DD1384618F0CDF83F
:102CF00000EBD0704510384618F0C7F800EBD070E4
:102D00004010C84506D1691C431C994200DA00E016
:102D1000194688464C4506D1691C421C914201DA8D
:102D20006C1C00E014461948FFF710FF05002BD07B
:102D30002F60C5E903843089A8806846C5F808A0DB
:102D40000CF0ECFC1248FF21CDE900501148029034
:102D50001148039000200790CDE9080130880A90BF
:102D600070889DF83E1040420B90F068069000205D
:102D700060F300018DF83E103069059068460CF054
:102D800041FD10B0BDE8F087FEE70000844F002051
:102D9000E5390208D93B0208353B020814210148F5
:102DA000FFF7CCBE844F00202DE9FC5F0025924642
:102DB0008B4606462C46042743F60F0843F60E09B9
:102DC00000E100BFF16807EBC400085882017DD420
:102DD00080B230EA0B0212D05FF0000230EA0A0043
:102DE0000FD00020824271D051F8340001AA41F680
:102DF000100100901AF046FF002868D103E001227C
:102E0000ECE70120EEE701AA41F6110100981AF063
:102E100039FF002873D101AA41F6120100981AF077
:102E200031FF00286BD101AA41F6130100981AF076
:102E300029FF002863D101AA41F6150100981AF074
:102E400021FF00285BD101AA41F6140100981AF075
:102E500019FFE0BB01AA41F2690100981AF012FFC4
:102E6000A8BB01AA43F20C0100981AF00BFF70BB3B
:102E700001AA43F20D0100981AF004FF38BB01AA21
:102E800041F2010100981AF0FDFE00BB01AA41F2D7
:102E9000040100981AF0F6FEC8B901AA41F2020135
:102EA00000981AF0EFFE90B901AA41F203010098D0
:102EB0001AF0E8FE58B901AA41F2050100981AF08B
:102EC000E1FE20B901AA41F2060101E079E016E035
:102ED00000981AF0D7FE90B901AA41F23201009889
:102EE0001AF0D0FE58B901AA414600981AF0CAFE5D
:102EF00028B901AA494600981AF0C4FE10B103206F
:102F0000BDE8FC9F01AA40F60A0100981AF0BAFE3B
:102F1000F0BB01AA40F60B0100981AF0B3FEB8BB53
:102F200001AA414600981AF0ADFE88BB01AA4946A5
:102F300000981AF0A7FE58BB01AA40F63C01009881
:102F40001AF0A0FE20BB01AA40F63D0100981AF03D
:102F500099FEE8B901AA40F63A0100981AF092FEEB
:102F6000B0B901AA4FF4046100981AF08BFE78B949
:102F700001AA40F6450100981AF084FE40B901AA62
:102F800040F6410100981AF07DFE08B901AA00E060
:102F900013E040F6420100981AF074FE68B901AAE5
:102FA00040F6430100981AF06DFE30B901AA40F6D0
:102FB000490100981AF066FE08B1022501E005B942
:102FC0000125641C708CC0F3C500A0423FF6FAAE28
:102FD000284695E7014840687047000044000020FB
:102FE0007047C0F30410072800D90720704700007D
:102FF00010B518210348FFF7A1FD0349012008700F
:1030000010BD0000304F0020B40100202DE9F04138
:1030100090460C46050015D0FDF7E1F90A4F06462B
:103020002146BA68284690470446BA68281941469E
:1030300090470146701A03E06218AA5C2A55641C86
:10304000A042F9D2BDE8F081C80100202DE9F0418D
:10305000094D90460E466A681C4607461946904739
:10306000306020B120686A68384400219047C8F871
:103070000000BDE8F0810000C80100202DE9F04FFC
:1030800087B08A46DDE910581F4693460446002162
:1030900005B129805CB12078002809D0BAF1000F71
:1030A00005D0002618F0060F15D0002004E00020FF
:1030B00007B0BDE8F08F401C215C0A2904D00D291F
:1030C00002D00029F7D100E0401C002DF0D04FF0D5
:1030D000FF312980ECE75FEA887001D541F6FF7780
:1030E000894608468DF81410049127E00498CDF81D
:1030F000189068B34FF0000C05AA06ABCDF80CC0D1
:10310000CDF80080CDE9013220443B465A46514675
:103110001CF004FB06997A1A314417B20EB288B13A
:1031200004990144049120780A280BD00D2809D075
:10313000605C0A280FD00D280DD00846205C08B12D
:10314000002FD3DC049848B105B12E800498AFE776
:103150004FF0010CD0E7481C0490F3E7064A04A99D
:10316000204652689047002DF0D00146002250467C
:1031700012F07DF806B2E8E7C80100202DE9F04121
:103180001746884606001ED0002F1CD0FDF727F9F1
:1031900004463846FDF723F9050014D00B4A2C44A9
:1031A0004146926830469047411903E0621BB25C89
:1031B0003255641EA142F9D930442A463946BDE849
:1031C000F04115F03BB9BDE8F0810000C8010020D6
:1031D00000230278232902D0012A0DD00FE02AB162
:1031E0000021012A04D0022A04D008E0012101E0D4
:1031F000017004E0017001E0202902D0012318468B
:1032000070470221F6E72DE9F0410E46804602465E
:103210000021334608461CF0BDFC04460027401C34
:1032200014F076FF050008D02F5533464246611C46
:103230001CF0B0FC2846BDE8F081FEE72DE9F04720
:103240001E4614460D468246DDF8209015E000BF6C
:103250004FEA540808FB0657394650464A469047FD
:10326000002808DD44F30000C0EB540407EB06051A
:10327000A4F1010401E005DA4446002CE8D120461F
:10328000BDE8F0873846FBE72DE9FC5F9B460CABB9
:103290008A468146DDE9116093E81210DDE90F5797
:1032A0005FEA80784FF030031AD45EB15FEAC078ED
:1032B00008D000F00C0858EA0C0803D0761E01E094
:1032C0000B55641CBC4204D2202CF9D301E00B55F1
:1032D000641C5FEAC07803D0B44201D2202CF6D33C
:1032E0005FEAC06825D55FEA40580AD44CB1BC42B9
:1032F00001D0B44205D1641E03D0102D03D1641E49
:1033000004E0102D02D0022D0AD00EE0850603D471
:10331000202C1ED2782506E0202C1AD2582502E057
:10332000202C16D262250D55641C202C11D20B5571
:10333000641C202C0DD2BCF1000F01D02D2306E01F
:10334000430701D52B2302E0030702D520230B55A9
:10335000641CCDE900BAC846154681468B46AA468C
:10336000800714D1274607E02A46DDE900316D1CAD
:103370002020C446E0477F1CB742F5D307E02A4629
:103380006D1C641EDDE900311BF80400C047002CF1
:10339000F5D15FEA897006D409E02A46DDE90031FB
:1033A0006D1C2020C047A5EB0A00B042F5D328468B
:1033B000BDE8FC9F2DE9F04F8FB099468B46DDE9C3
:1033C0001818DDE91C63DDE91A479246864600229B
:1033D00009B923F01003580507AD00D5C9B1B1FBF9
:1033E000F4F004FB1010C0B20A2801D2303009E01A
:1033F0005FEA836C02D54FF0410C01E04FF0610CA5
:1034000060440A38B1FBF4F1A854521C09B1202AD7
:10341000E5D3CDF80880CDE90563CDE90052CDE9CB
:1034200003474B46524659467046FFF72DFF0FB0F3
:10343000BDE8F08F2DE9FF4F8FB01CACDDE923957F
:1034400094E8030820AC94E8C004002450EA010288
:1034500001D125F010056A050DF11C0802D550EACE
:10346000010217D032463B46FCF71EFFD2B20A2AB1
:1034700001D2303206E0AB0601D5412300E06123E2
:103480001A440A3A08F80420641C50EA010201D0E8
:10349000202CE7D3CDE90084CDF808B0CDE905951F
:1034A000CDE9036A0FAF97E80F00FFF7EDFE13B009
:1034B000BDE8F08F9A4200D28854704770470000F0
:1034C0002DE9FF4F89B005460A980024924600284E
:1034D00000D1FE4D8FE1252804D02246641C5346BE
:1034E0000A990BE2491C4FF0000808460C9101783C
:1034F0002B2919D004DC202919D0232904D119E063
:103500002D290ED0302909D00026C8B2FEF78CFA3A
:10351000B0B10CA8FEF771FA06461FE048F00101B1
:103520000AE048F0020107E048F0040104E048F036
:10353000080101E048F01001401C88460C90D6E7D5
:103540000C9908782A2809D1169840C81690002EA0
:1035500002DA48F002087642491C0C910C984FF0B0
:10356000000B01782E2919D1401C0C9048F480687A
:103570000078FEF759FA20B10CA8FEF73EFA834610
:103580000CE00C9A10782A2808D1169802C81690D8
:10359000002900DC0021521C8B460C920C9801780B
:1035A0006C290AD004DC68290FD06A2919D128E0D7
:1035B000742929D07A2914D126E0401C0C90017876
:1035C00048F480786C291CD00BE0401C0C900178EA
:1035D00048F08008682904D148F04001401C884622
:1035E0000C9002460078692822D015DC62281FD092
:1035F0000DDC252871D050281AD058287FF46DAFE3
:1036000016E048F40071E9E748F48071E6E76328C2
:1036100078D06428F2D10BE0732874D004DC6F28D2
:1036200006D07028EAD103E0752801D07828E5D1CA
:1036300078280DD058280BD070280BD0502809D0EE
:103640006F2816D0622816D00A2128F0100016E044
:10365000102107E05078102148F48878562804D1CA
:10366000521C0C921078582807D01078502804D09B
:1036700006E0082109E0022107E048F0200080462A
:103680001078692803D0642801D028F00C085FEA7C
:10369000485001D528F00108107869281ED0642808
:1036A0001CD0562864D05FEA885072D5169804ABB7
:1036B000C01D002283E806080292CDE9076820F0C9
:1036C00007005346F0E80212CDE900121690224698
:1036D00028460A99FFF7AEFE89E00AE15FEA8850C2
:1036E00024D5169804AFC01D20F00703F3E80202AA
:1036F0001693002387E80A08CDE90768002A03DA51
:10370000012102E080E0A6E0002100230291194699
:103710001B1A914101DA114603E00021404261EB9E
:10372000020153462246CDE90001D1E75FEAC850C5
:1037300004D5169804C80FE0524215E05FEA4860CD
:1037400003D5169810F8042B06E05FEA0860F0D560
:10375000169830F8042B12B21690CDE9021BCDE971
:103760000468D00F002AE7DDCDE9002053461EE0B3
:103770001698AAEB040202C81690486800680090E8
:103780000A980B6801192846FFF79AFE04442FE0B7
:10379000FFE75FEAC8500CD5CDE9021BCDE904680C
:1037A00016980021534604C8CDE900211690224600
:1037B00019E05FEA486003D5169810F8042B08E07A
:1037C0005FEA0860169803D530F8042B92B200E047
:1037D00004C816900020CDE90020CDE9021BCDE9F8
:1037E00004685346224628460A99FFF7E3FD04463B
:1037F0000C98401C0C900C99087800287FF46BAE54
:1038000054457DD222467DE001275FEA887006D5C7
:1038100009E02246641C534620200A99A8473846EE
:103820007F1CB042F5D316992246641C11F8040B94
:10383000169153460A99A8475FEA887006D4D7E7DD
:103840002246641C534620200A99A84738467F1C0C
:10385000B042F5D3CCE7169850F8049B16904B462F
:10386000BBF1000001D0014601E04FF0FF314846B6
:1038700000E0401C02780AB1491EFAD2C71A5FEA7A
:10388000485003D558465F4500D307465FEA887025
:1038900006D512E02246641C534620200A99A84708
:1038A00038467F1CB042F5D307E000BF224609F13D
:1038B0000109641C53460A99A84799F8000040B1D1
:1038C0005FEA4851F2D5BBF1010B01E0BD340008BD
:1038D000ECD25FEA887006D48AE72246641C53461D
:1038E00020200A99A84738467F1CB042F5D37FE7CD
:1038F00006E02246641C534625200A99A84777E72C
:10390000AAF10102534600200A99A8470DB02046AB
:10391000BDE8F08F10B502004FF000000CD04B1E38
:10392000194200D0FEE70A44521E9A43B2F5803F86
:1039300002D20C2A01D9104610BD0C2010BD08443B
:103940004A1E401E9043114200D0FEE7704700001F
:103950002DE9F0410F4601210025044641862E46FF
:103960000BE01B49FCF7F8FD10B16D1CADB202E095
:10397000608E401C6086761CB6B257F8260010B1E7
:1039800001780029EDD1208EA8421ED0A06A002621
:1039900010B114F047FCA662E06A10B114F042FCCA
:1039A000E662E80014F0B4FBA06238B1680014F0DD
:1039B000AFFBE06218B1A16A11B102E0FEE7FEE7D9
:1039C0000025690014F078FD2586BDE8F08100002F
:1039D000C80A01082DE9F84F8146407A0F4600F0E9
:1039E0000700022819D010468046974200DD3A466B
:1039F000164603202A4C2B4A00EB460020F0030514
:103A0000A06811681035411A636805EB010C9C45EC
:103A100005D2416821F0004124E00846E4E79D42D8
:103A200019D892464FF0FF3B48196168884210D977
:103A3000002269461C48CDF800B00BF09FFB002225
:103A400069461A480BF09AFBA168DAF80000091AD7
:103A5000EAE7A068DDE7284614F05AFBC0B14168E8
:103A600041F0004188EA6702416089EA0201016091
:103A7000416801F04041491C31F08041416086813C
:103A8000A0F80E8005D500F110018160BDE8F88F27
:103A9000FEE7A16801F1100229448260A160F5E708
:103AA0004C000020A40100204DC50008DDF10008F5
:103AB00070B586B000228DF808208DF80C208DF8A6
:103AC0001020444C90F83C20142302F00302A57807
:103AD0004FF4B476012A23D0022A5FD0AA4211D033
:103AE00010F8265F05EB051505EB4505B5FBF3F56D
:103AF0002570407800EB001000EB4000B0FBF3F0C5
:103B00006070A27004AA03A8CDE9000201EB410095
:103B10004FF6FF7101EA400002AB627821781AE0AB
:103B2000AA4210D0858C05EB45056D02B5FBF6F574
:103B3000A58090F8270000EB001000EB4000B0FBE0
:103B4000F3F06070A27004AA03A8CDE90002C9B224
:103B500002AB62783CE008F00BFA9DF810209DF86B
:103B60000C10D308BDF800209DF8080063F3040290
:103B7000ADF800208A08BDF8001062F34A11ADF8D4
:103B80000010C108BDF8000061F3CF20ADF80000BF
:103B900080B20090BDF8000006B070BDAA4210D0FF
:103BA000858C05EB45056D02B5FBF6F5A58090F813
:103BB000260000EB001000EB4000B0FBF3F020709B
:103BC000A27004AA03A8CDE90002CAB2217802AB10
:103BD000A088C0E7FC00002010B5084C0120207030
:103BE0000748FEF78EFF0028A06803D0BDE810400C
:103BF0001BF036BCBDE810401BF026BC880100203D
:103C0000604F002010B5044690F83E00626B8107BB
:103C100007D4A18F39B1A1F57F43FF3B15D0491ED1
:103C2000A187A18F89B90AB181070ED52146134812
:103C3000FEF7D1FFFFF7D0FFE16809B120468847C2
:103C40002046BDE8104014F0EDBAA16B4942E16294
:103C5000002A11D0810702D4216B4942E162411050
:103C6000491C61F3410084F83E00616AE069E1614A
:103C70006062A06AA262606310BD0000604F002015
:103C800070B5304D68681BF0A7FA0646687880F07A
:103C90000100687047E00020287094F83E006978C1
:103CA000C0F380028A4242D061F3820084F83E0071
:103CB000E16A8A19030719D4002917DC002A15DBE9
:103CC000C00709D1216939B120468847E16901441B
:103CD000E161616A08446062A16809B120468847D1
:103CE00094F83E0040F0080084F83E00E06A801935
:103CF000E06216D4A16A884200DDE162A169204633
:103D000088470146206A884204D0216262680AB16D
:103D100020689047D4E90A01814202DB2046FFF780
:103D200071FF287818B10848FEF7EBFE03E0214642
:103D30000548FEF7F8FE0400ADD11BF053FA6860A9
:103D400070BD000088010020604F002070B504465F
:103D500040680D4608B1FFF7F9FF2268002A04D039
:103D600029462046BDE87040104770BD89B20CF06E
:103D700022B989B20CF05BB910B5044640688208DC
:103D80000AD0496821F00301091D084460602046FB
:103D900000F042F8204610BDFEE74068103120F0E8
:103DA0000300884201D301207047002070472DE9AD
:103DB000FC47054648680C4620F0030001AA694606
:103DC0001CF0D6F9DDE9007005EBC71101EB8009A5
:103DD0008046D9F83C0060B164B1C4E9020504F141
:103DE0000806C46030460421FFF7A9FD864202D0D0
:103DF000FEE7FEE7FEE7C9F83C400120296900FA2A
:103E000007F21143296105EB870100FA08F04A69BE
:103E100002434A61BDE8FC8710B5044600F087F80C
:103E2000046010BD2DE9FC4706464FF000000D0070
:103E300000900746019042D00C46E9460DF1040877
:103E4000802907D308461FF0AAFD411F01208840A2
:103E5000401E04444246494620461CF089F9009C15
:103E60000A2C2CDA06EB8400019A40694FF0FF31EE
:103E700001FA02F210400CD1641C3069A1400840E4
:103E80001DD01FF084FD0446009006EB80004069C1
:103E900078B11FF07CFD034606EBC411019001EBE5
:103EA0008000C76B5FB1786820F00300A84201D2A0
:103EB000FEE7FEE739463046009A1CF03DFF3846E3
:103EC000BDE8FC8710B50446FFF7A6FF416841F046
:103ED00002014160606840F00100606010BD10B5F3
:103EE000044600F024F8416821F002014160606856
:103EF00020F00100606010BD70B506460D46084612
:103F000000F015F8040010D02079C0070BD06868C5
:103F100080080BD02146304600F03CF82146284668
:103F2000FFF72AFF0546284670BDFEE7FEE7426818
:103F300000F1080122F00300001F0844910800D19D
:103F4000FEE7704770B506460C004FF000001ED02B
:103F5000F2B120791546C0071BD011462046FFF765
:103F60001CFF78B12946204600F025F8054620467A
:103F7000FFF752FF6868294640F00200686030464B
:103F8000FFF715FF2046FFF7AAFF04F1080070BDF8
:103F9000FEE7FEE77CB5054648680C4620F00300C6
:103FA00001AA69461CF0E4F8DDE900232146284611
:103FB0001CF0C2FE7CBD2DE9F0410D46044600F127
:103FC0000801281F0E18606806F1080720F003009A
:103FD000401BA0F1040838460421FFF7B0FC8742DB
:103FE00000D0FEE7606820F0030108EB0500001D2B
:103FF000814200D0FEE7307900F0030040EA08007B
:10400000706020F003000C2800D2FEE7207900F059
:104010000300284360603046FFF754FF3046BDE898
:10402000F08138B5044612F055FC054612F087FCC5
:104030000028204605D0218FE18617F03DFA0120A7
:1040400038BD10F0FFFD002820461ED010F0CFFC38
:10405000218FE08E81420CD02087E08E00906A464E
:104060001C21204611F028F80128E9D1204617F03C
:1040700023FA284612F06FFC0428E0D1204615F000
:104080000BFE002111F0B5FCD9E710F037FED6E7A2
:1040900070B511F00CF8054615F044FE04462846AC
:1040A0000CF0BCFD01462046BDE8704001221AF02C
:1040B000BFBB00002DE9F04F0D4687B0044600213C
:1040C00015F01FFD60B32946204600F061FA29462D
:1040D000204600F06FF80021204616F049FC0590BC
:1040E0000021204616F016FD04900021204616F00F
:1040F0000BFB012800D0002080460021204616F04E
:10410000A1FE07460021204616F07CFB42F2D17941
:1041100006464F450BD1608C400508D4012707E0C7
:1041200007B02846BDE8F04F1C2114F0C5B90027A0
:10413000204615F064FDDFF878A083462046002174
:10414000BAF8022016F056FDD5F810C0AB68296801
:10415000CDF800C0CDF80C80CDE90131C2B23946AE
:104160005846059B09F0A0FD28834E4504D1608C7C
:10417000800501D4012600E00026204615F025FD2B
:10418000074620460021BAF8062016F033FDC2B2D9
:10419000686900246B68E9688DE81B003146384681
:1041A000049B09F081FD688307B0BDE8F08F000033
:1041B000700000202DE9F34F81B00C46019808F003
:1041C000E1FF0646019815F01AFD8246304600F0E0
:1041D0000BFF2061400013F0C7FF20602069400002
:1041E00013F0C2FF002541F69A79A0603AE036F953
:1041F0001510DFF82081494533D10027DFF818B1C9
:104200001FE03946019815F07CFC5946009016F0E5
:104210008CFEA8B9009808F0C7FF012810D10098BB
:1042200008F0B8FFA8420BD1009816F02EFE4146C8
:10423000404501DA084602E0009816F026FE804666
:104240007F1C019815F06FFCB842DAD8B8F1000F66
:1042500003DBA16821F8158003E0A168002021F8A4
:1042600015006D1C2069A842C1D800252F4628469C
:1042700041F69B784B4615E036F91010414504DBBA
:104280000D44A5F5F8559B3D0BE0994204D1A1687A
:1042900031F81010394403E0A26822F810103944B4
:1042A0000FB2401C21698142E6D80021019816F026
:1042B0005FFB2169C1F1010200FB02A0C01B00B23B
:1042C000002800DA002000224FF0FF331146C446D8
:1042D00011E000BF36F9117067450BDBA7F5F85701
:1042E0009B3F3AB210FB02F3B3FBF5F3A76827F844
:1042F00011300B46491C27698F42EBD8002B07DB96
:10430000A91A4143B1FBF5F1401AA16821F8130045
:10431000BDE8FE8F01E0FFFF010006002DE9F14F2F
:1043200000221146009817F093FF0021009816F024
:104330001FFA04460021009816F001FC20440FFAF1
:1043400080F90021009816F0BFFA20440FFA80F897
:10435000009816F07FF900EB090101EB0800DFF887
:1043600098A006B25446009815F0DDFB07460025DC
:104370002AE0009821498068006850F825008346AB
:1043800016F0D3FDF8B9584617F0F8F840BB0021F5
:10439000584616F084F918B3012821D002281FD0FE
:1043A00003281DD00021584616F068FD58B9BBF807
:1043B0001A10BBF81600081A401C00B24844A0426C
:1043C00000DB044624B26D1CBD42D2D3544504D058
:1043D00004EB080000B2B04200DC3046BDE8F88FC4
:1043E0000098BBF91A10B0F91600081A411CA14236
:1043F000E8DB0C46E6E7000001E0FFFF01000400F7
:104400002DE9F84F00228046114617F00BFF0021DE
:10441000404616F0ADF904460021404616F026FB52
:1044200020440FFA80FA0021404616F0C4FA2044D6
:104430000FFA80F9404616F01BF900EB090101EB79
:104440000A00DFF844B105B25C46404615F06BFB4C
:1044500007460021404616F042F901284FF00006B9
:1044600044D078E0D8F808004849006850F82600A1
:10447000009016F05AFDC0BB009817F07FF850B1BD
:104480000098B8F91810B0F91400091A481CA04295
:104490002ADB4C1C28E00021009816F000F958B1E6
:1044A000032809D0062807D0082805D00021009845
:1044B00016F0DDFC58B118E00098B8F91810B0F902
:1044C0001400081A411CA1420EDB0C460CE00098B7
:1044D000143000900BF07BFE5044A04204DB0098A7
:1044E0000BF075FE00EB0A0424B2761CBE42B9D371
:1044F0005C453BD004EB090033E000BFD8F808006E
:104500002249006850F82600009016F00EFD08BB06
:10451000009817F033F860BB0021009816F0BFF840
:1045200038B3012825D0042823D0072821D0002122
:10453000009816F0A3FC68B90098143000900BF0B6
:1045400046FE4844A04204DB00980BF040FE00EB1E
:10455000090424B2761CBE42D0D35C4506D004EBDD
:104560000A0000B2584501D0A84200DC2846BDE848
:10457000F88F0098B0F91810B8F91400091A481CFF
:10458000A042E6DB4C1CE4E701E0FFFF0100040071
:104590002DE9F84F0C46834609F012FA064600F062
:1045A00023FD6061400013F0DFFD60606069400042
:1045B00013F0DAFD002541F69A79E0603AE036F929
:1045C0001500DFF80C81484533D10027DFF804A13E
:1045D0001FE03946584615F094FA5146009016F0FF
:1045E000A4FCA8B9009809F071FA012810D100982C
:1045F00009F062FAA8420BD1009815F052FB41462F
:10460000404501DA084602E0009815F04AFB804672
:104610007F1C584615F087FAB842DAD8B8F1000F77
:1046200003DBE16821F8158003E0E168002021F850
:1046300015006D1C6069A842C1D800273D46384668
:1046400041F69B784A4615E036F91010414504DBE7
:104650000F44A7F5F8579B3F0BE0914204D1E16866
:1046600031F81010294403E0E36823F810102944BE
:104670000DB2401C61698142E6D80021584616F00F
:1046800049FA8146584615F0A0FA01466069C0F122
:10469000010209FB0210401B02B2002A00DA0022CC
:1046A000002043460FE000BF36F91010994209DBA5
:1046B000A1F5F8519B3912FB01F1B1FBF7F1E56867
:1046C00025F81010401C61698142EDD8BDE8F88FD3
:1046D00001E0FFFF010006001CB50B88048923449C
:1046E000ADF800304B8844892344ADF802308B8804
:1046F00004892344ADF80430C98843891944ADF8CE
:1047000006104369694698471CBD0000F8B50D4680
:10471000D0E90C2104468AB112787AB141B100BFC8
:104720001AF087FB0D4909688847616B884211D2EE
:10473000206B88B100200A4E009006E061B1EFE7DF
:10474000326869469047A84206D0206B0099415CC8
:104750000029F5D10020F8BD0120F8BDE0010020BE
:10476000CC0100202DE9FF4F87B0C878189CC00706
:104770000D46002801D0F14800E0F148069001D034
:10478000F04800E0F048049001D1EE4800E0EE4827
:104790004FF0100A4FF00C0ECDF814006088A1887D
:1047A0004FF0000BA0EB010001B25A4658462769B2
:1047B00012E000BF00EB8006E3680AEB860C13F8FA
:1047C0000CC05FEACC7C0BD04FF0080C0CEB8606DB
:1047D0009B5BC91A09B2401C8742EBD8002347E013
:1047E0000EEB86069B5B1A4412B2F4E703EB8306DA
:1047F000E7680AEB86000190385CC00737D191FB6F
:10480000F2F00EEB860CCDF800C037F80CC00CFBB4
:1048100000FC0FFA8CF94FF0060C04200CEB860C10
:1048200000EB860037F90C80385ECC46C84500DCCA
:10483000C446604504DC4046CC46C84500DD6046C1
:10484000484506D0DDF804804FF0010CE34647F8F8
:1048500008C0D4F80CC0082707EB86062CF8060021
:10486000E768009EBE5B921B081A12B201B25B1C85
:1048700020699842BAD8BBF1000F8FD10021079868
:1048800015F03BFF012826D000270020ADF80800D6
:10489000ADF80C0003A902A8CDE900012089B4F904
:1048A000022003B2287816991BF052FEE8783842AD
:1048B00007D0079815F0A3F9BDF808100844ADF823
:1048C00008000999079815F01CF906464FF4FA6894
:1048D0004FF0640B27E10127D7E79C49304616F0DB
:1048E00024FB00287DD10021304615F073FFE8B38A
:1048F0004FF000094846216911E000BFE26800EB73
:10490000800352F82320B24208D100EB8002E16814
:10491000082000EB820031F9009002E0401C814247
:10492000ECD8E878C007708C02D040F4806001E0D9
:1049300040F40070708406F11400049982468847A0
:10494000484528D0304616F0B7FDB08AADF80000D3
:10495000F08AADF80200308BADF80400708BADF832
:104960000600069A49465046904700E00FE06A4626
:104970002921304610F0A0FB304615F0D3F932461D
:10498000222110F099FB304616F096FD03E0708C62
:1049900020F4C0607084002000906878012810D056
:1049A000022816D1059906F114008847B4F90010C1
:1049B000491C21F00101081A00EBD07040F34F00B0
:1049C00006E0059906F1140088472188081A00B20C
:1049D0000090E87838420AD0049906F1140088471C
:1049E00000E098E0BDF80810081AADF8080030465D
:1049F000002143F20C0216F0FDF80FFA80F9304660
:104A0000002143F20D0216F0F5F80FFA80FA304655
:104A100016F03BFA0190304615F043F90146C9F310
:104A2000413001280ED129F4C04040450ADCB0F5E0
:104A30007A7F01DDC0F57A70019A504390FBFBF05C
:104A40000FFA80F9CAF3413001280DD12AF4C04091
:104A5000404509DCB0F57A7F01DDC0F57A70484346
:104A600090FBFBF00FFA80FAB18A1498F28A411A8F
:104A700001EB0900159900B28A1A02EB0A01EA78E3
:104A800009B2D207002A02D0BDF9082000E0009A3E
:104A900010440FFA80FA01D0009801E0BDF9080037
:104AA00008440FFA80F95AEA09001BD0304616F084
:104AB00003FDB18A01EB0A00B082318B01EB0A00E1
:104AC0003083F18A01EB0900F082718B01EB090060
:104AD0007083304616F0F0FC01234A4651463046BA
:104AE00016F09AFDE87838420CD1049906F11400CA
:104AF000884717990844BDF80C100844BDF8081001
:104B0000084406E0BDF80C1017980844BDF80810DA
:104B1000081AADF80800E87809AAC0F380010798E0
:104B200008F01AFE0646002E04D0DDE9090188428D
:104B30007FF4D3AE0BB0BDE8F08F00005702010840
:104B40004D020108F30101089B0101080100060064
:104B50002DE9F04F91B00E0005463FD02E83286816
:104B600008B113F05FFB06EB4600062101EB4000A5
:104B700013F0CEFA286040B3022101EB4601014454
:104B8000E960042101EB86010144C5E9010101212D
:104B90000024012E1AD0F000083013F0E5FA814607
:104BA00000EB860000F10408B00000B2A346ADF8A7
:104BB0001000C0F101028010ADF812B00FFA82FAB5
:104BC0005C46CDF828B00690ABE0FEE7B422027058
:104BD000E8680480E8684180A868048011B0BDE8F6
:104BE000F08F0027BDF81220BAF1000F07DC032177
:104BF00001EB42010AEB01000FFA80FA0CE0BDF86C
:104C000010100523521A03EB420202EB0A00491E60
:104C10000FFA80FAADF81010BDF81200401CADF884
:104C2000120004A800F0E9F868B1BDF9100006A967
:104C3000821041F827200AA900F0030041F827005C
:104C40007F1C042FCEDB042F71D10999069888426E
:104C500012D129F8140028F814B0DDE90A01014442
:104C6000DDE90C20104408446968085569680001B2
:104C70000855641C24B252E00799884219D029F8DB
:104C8000140028F814B06A680A9810556A68000180
:104C90001055641C069A20B2521E29F8102028F8DC
:104CA00010B0DDE90B120A440D99091D11446A6820
:104CB0002FE0089929F81400884228F814B0DDE99B
:104CC0000A025946104412D06A6810556A680001F9
:104CD0001055641C069A20B2521E29F8102028F89C
:104CE0001010DDE90C12114408316A6811E00C9AC9
:104CF00010446A6810556A6800011055641C069AD1
:104D000020B2521E29F8102028F810100D996A6858
:104D10000C3111546A6809011154401C04B20BF1A2
:104D2000010B04A800F069F800287FF45AAF40F2A4
:104D3000D32016FB00F109EB4402881232F9022C51
:104D4000824205D108EB440232F9022C82421AD089
:104D5000A1EB8021B1F5007F03DC494341F3CF3162
:104D600006E0C1F58061494341F3CF31C1F10F0144
:104D700029F8140028F814006868015568680901CA
:104D80000155641C24B2A01E0EE000BF38F81020AC
:104D900029F8142039F8102028F8142069680A5CD2
:104DA0000A55641C24B2401E0028EFDAEA6800218C
:104DB000084611801BE0EA6822F81100AB6839F858
:104DC000102023F811200AE0AE6839F9102036F8D7
:104DD0001130934200DA1A4626F81120401C38F9A7
:104DE00010208A4201D1A042EEDB491C09B2A04248
:104DF000E1DB484613F004FAF0E6B0F90210B0F92E
:104E00000000814201DC012070470020704717B587
:104E100081B0022A03D8BDF8080004B010BDBDF867
:104E20000830BDF80400D90A01EBD0211F2900D3B6
:104E30001F2161F3CF20C3F34511C0F34514214472
:104E4000ADF804003F2900D33F2161F34A1003F07D
:104E50001F0100F01F031944ADF804001F2900D3FF
:104E60001F2161F30400ADF80400FF2A07D0DDE93B
:104E700001010CF0EDFE0090BDF80000CDE780B21E
:104E8000CBE717B581B0022A03D8BDF8080004B0FB
:104E900010BDBDF80400BDF80810C30ACC0A13FB0E
:104EA00004F35B0963F3CF2000F01F0301F01F043C
:104EB00013FB04F35B0963F30400C0F34513C1F370
:104EC000451113FB01F1890961F34A10ADF80400A3
:104ED000FF2A07D0DDE901010CF0BAFE0090BDF811
:104EE0000000D4E780B2D2E717B581B0022A03D818
:104EF000BDF8080004B010BDBDF80830BDF80400CE
:104F0000D90AA1EBD021002900DC002161F3CF20D8
:104F1000C3F34511C0F34514091BADF80400002983
:104F200000DC002161F34A1003F01F0100F01F03B1
:104F3000C91AADF80400002900DC002161F3040067
:104F4000ADF80400FF2A07D0DDE901010CF080FE76
:104F50000090BDF80000CDE780B2CBE7F8B504467D
:104F600010F0A5F80646204610F063F805463046D6
:104F700014F0D8FE04462B2D2AD00A2D27D16946DD
:104F8000304614F035FF304614F039FE0546002156
:104F9000204615F0C0FB0128BDF9000005EBD571D6
:104FA0001CD000EB610000BF90FBF5F001B20029BE
:104FB00000DA0021608D4FF001028842204610D0B7
:104FC00019F036FC00221C21204610F075F8F8BDBF
:104FD000618DBDE8F840002219F02ABCC0EB6100E9
:104FE000E2E719F025FCF8BD0146002041F6FF720A
:104FF00000E0401C31F910309342FAD170471CB5E3
:10500000044690F8500000F0010088422DD094F83A
:10501000500011B140F0010001E020F0010084F8DF
:10502000500004F1440168460BF0A8F8606ABDF82E
:105030000010828A1144ADF80010BDF80210C08A39
:105040000844ADF80200606ABDF80410808A084484
:10505000ADF80400606ABDF80610C08A0844ADF8D7
:1050600006006946204616F05BFA1CBD08B50846E6
:1050700011460CF0A8FC0090BDF8000008BD2DE919
:10508000F04F0646C87A89B015460F46022803D865
:10509000012009B0BDE8F08F18463A69B968FDF7FC
:1050A000B1FA041EF5D0207D00F01F0010F0D7FDEE
:1050B00008B1062008E0207D00F01F0010F0BFFDC1
:1050C00008B1052000E00420226A814622B1294669
:1050D00030461CF024FAB7E0A069E8B3294602A8DC
:1050E0000BF016F8388818B97888B0F5807F2AD088
:1050F000A88829886A88401A401C01B2E8883B1DAC
:10510000801A401C02B27888CDE90003B7F900305C
:1051100002A8FCF7F3FEBDF8080029880844ADF8A2
:105120000800BDF80A0069880844ADF80A00BDF817
:105130000C0029880844ADF80C00BDF80E00698801
:105140000844ADF80E0002AA04A8B168FCF78CFC74
:10515000002879D004A800E00DE0D6F80880B060FF
:10516000CDF800902A4639463046A3690DF02EFC52
:10517000C6F8088068E02A4604A8B168FCF774FC09
:10518000002861D0BDF81400BDF81010401A401C72
:105190000FFA80FB0BEB4B0012F0E6FF039004A923
:1051A00001A8D6F808A00AF0B3FF012101A80BF06E
:1051B0004DF8BDF91000B5F90010BDF91280401A84
:1051C0000690B5F90200A8EB000534E001AA5146AB
:1051D00007A8FCF749FC60B30398009006985B466B
:1051E00001B22AB2204611F019F901280CD020464C
:1051F00011F069F8039813F003F8204611F063F8F2
:105200000020C6F808A044E707A8B060CDF80090D9
:1052100001AA39463046039B0DF0D8FBBDF80600C5
:10522000401CADF80600BDF80A00401CADF80A00AD
:105230006D1C08F10108BDF916004045C6DAC6F834
:1052400008A0039812F0DCFF204611F03CF81FE79D
:10525000704700002DE9F84315460C468146FCF7DF
:10526000EFF9E388A28861882088FCF7F1F9012230
:1052700091031448FBF75DFBB4F902704FF0FF385F
:1052800017E000BFB4F900600EE028788DF8000048
:1052900028884346000A8DF80100022269460A4820
:1052A000FBF7F0FEAD1C761CB4F90400B042ECDA5A
:1052B0007F1CB4F90600B842E4DA4846BDE8F8437A
:1052C0000DF0E2B8000402400402002070B505466B
:1052D00011F000FB0646286B19F07EFF3168898BC0
:1052E000884223D295F83C006C6A10F0030105D087
:1052F0006420012906D0022909D106E0002060F3CC
:105300000F0404E060F3174401E060F31F643046CB
:1053100011F02AFC214628460CF094FF30B10022FF
:105320001C2128460FF0C8FE012803D119F05AFFAE
:105330002863012070BD00002DE9F04FA1B00746A1
:1053400014468A4604A80DF029F94FF4A0213846E6
:1053500015F0AFF99DF81D1060F382018DF81D1056
:10536000A1882088091A491C09B201EBD1714E109D
:105370003044ADF87000608800213044ADF8720010
:10538000384615F07EFA8146514608A814F0F8F91F
:1053900004A810904FF4003015902D48099000207B
:1053A0000A9007F130008346FDF7C4FB4AE02079FC
:1053B000032843D1208BADF81000208AADF81200ED
:1053C0006079FD2801D9484602E010FB09F0000A87
:1053D0008DF81C002568B5F92030E88B1844009042
:1053E000D5E90512A06812F081FE8046B5F920309B
:1053F000E88B18440090D5E90512E06812F076FEBB
:105400000546608B08AA3044ADF85C001CA81190DA
:105410001A21199438460FF04FFEA9B21FFA88F0EE
:10542000CDE90001BDF85C301CAA04A950460DF07E
:10543000A5F808AA1B2138460FF03EFE2146584623
:10544000FDF775FB0400B2D121B0BDE8F08F00007C
:10545000F84602082DE9F74FC878A0B00C4602289C
:105460007DD9114601A80AF04AFEB4F920000128AE
:1054700029DD94F82200FD2825D3208818B394F85C
:105480002300BDF804104008C0F380021144ADF8B9
:105490000410BDF80610C0F340000844ADF8060043
:1054A00094F82310BDF808004908C1F3C001401A60
:1054B000ADF8080094F82310BDF80A00C1F34001CC
:1054C000401AADF80A00209801A9826805A8FCF7E7
:1054D000CBFA002843D0E07B10F0070619D0E08813
:1054E000ADF80000BDF800006189884200D10026B7
:1054F00001A80DF061FF07461C210EA8FBF705F877
:10550000A0788DF85100BDF80000ADF840001FB143
:1055100005E060680090E5E7208800B9EEB3E07828
:10552000FD2800D3FF208346BDF80800BDF8041015
:10553000401A401C0FFA80FABDF80A00BDF80610A8
:10554000401A401C01B289465046CA4500DB084655
:10555000B4F90050B5EB600F00DB451000E043E00C
:10556000BDF81810BDF81400081A401C0FFA80F896
:105570004FF0FF301D9000200790002D00DC87B118
:10558000404612F0F1FD079000232A4601A916A813
:105590000EF07EF9002116A800E01CE00DF02CFDB5
:1055A0001D90BDF81400ADF80C00BDF81800ADF862
:1055B00010000798119003A80E901390FF208DF80B
:1055C00050004A465146A01D10F05EF8040018D065
:1055D000022E0CD015E001A80E90E0788DF8500056
:1055E0000EA920980EF010FC23B0BDE8F08FBDF995
:1055F0001410A06800EB4100BDF90410A0EB4100BD
:105600000F90002F7DD0BDF9165027E02FB2ADF8D6
:105610000E70ADF8127042465946079812F01AFF04
:10562000BDF9141043463A4607980DF087FE8DF8F1
:105630004800012802D102208DF84800012E08D12F
:10564000BDF90610A068691A00EB41000088ADF8AA
:1056500040000EA920980EF0D7FB6D1CBDF91A0072
:10566000A842D3DAB7E000BFBDF80600BDF91610B6
:1056700038440FFA80F9BDF80A00C01B0FFA80FA0F
:10568000494503DDBDF91A10514544DB42465946F0
:10569000079812F0DFFEBDF90C1043464A46079802
:1056A0000DF04CFE8DF84800012802D102208DF843
:1056B0004800BDF91610494513DCADF80E90ADF861
:1056C0001290012E09D1BDF90620A168A9EB0200B4
:1056D00001EB40000088ADF840000EA920980EF0C4
:1056E00093FBBDF91A10514515DBADF80EA0ADF8CE
:1056F00012A0012E0BD1BDF90600A268AAEB000092
:1057000000E009E002EB40000088ADF840000EA97F
:1057100020980EF079FB7F1CAF42A5DBBDF804009A
:10572000ADF87800BDF80800ADF87C00BDF80600C3
:105730002844ADF87A00BDF80A00401BADF87E00A1
:105740001EA80DF039FE074630430CD001208DF81D
:105750004800BDF90A008DF850B0A0EB0509BDF96D
:105760000600054435E0BDF806008DF850B0284429
:10577000ADF80E00BDF80A000EA9401BADF81200EE
:105780000020119020980EF03FFB24E06FB14246BC
:105790005946079812F05EFEBDF9141043462AB22E
:1057A00007980DF0CBFD8DF84800ADF80E50ADF820
:1057B0001250012E08D1BDF90600A168281A01EB8C
:1057C00040000088ADF840000EA920980EF01CFBA8
:1057D0006D1C4D45DADD079808B112F011FD1D98DA
:1057E000401C05D01D980EF0FFF816A80DF0C8FD5E
:1057F000002C3FF4F9AE20460FF040FFF4E6F0B580
:10580000074608698FB015460C46002871D0A17E66
:1058100002296ED911F015F8022820D069462069B6
:1058200010F072FD012864D105A80DF0D7F8A0781A
:105830008DF82000208BADF81C00E07E8DF81E0056
:10584000A07E8DF81F00207F4FF0FF36E0B3009957
:105850006888ADF8060006EB51510844A8E0002620
:1058600041F6FF70CDE900600296D4E90412334698
:105870000DA819F0EDFF28460AF0AFFC01462A8872
:10588000BDF9340001EBD17102EB610200EBD07184
:10589000A2EB61010844401EADF81000ADF80C10F9
:1058A00028460AF074FC01466A88BDF9360001EB0F
:1058B000D17102EB610100EBD072A1EB62010844EF
:1058C000ADF80E10401E00E015E0ADF8120005A87E
:1058D0000DF03AFB60690590208BADF82000A07EAA
:1058E0008DF82E00009603AA05A9384623690DF00D
:1058F0008FF80FB0F0BD28460AF06FFC298800EB46
:10590000D07001EB60000099C1F38A21A0EB510037
:10591000ADF8040028460AF03AFC698800EBD07024
:1059200001EB60010098A1EB9051C0F38A22ADF821
:105930000610BDF80430521E1A4406EB5050ADF864
:1059400008200844ADF80A0001AA05A938462369D1
:105950000DF01CF8CDE700992888C1F38A21ADF835
:105960000400491E084410E001AA05A9384623692D
:105970000DF00CF80098BDF80410C0F38A20014423
:10598000ADF80410BDF808100844ADF80800BDF9E2
:105990000400B5F904108842E6DDBDF80610009851
:1059A00001EB5051ADF80610BDF80A1001EB505054
:1059B000ADF80A00BDF90600B5F906108842CADD47
:1059C00097E7F0B5074691F8220087B016460C46D7
:1059D00002286BD9208C002868D094F8230010F09E
:1059E0003E0F63D0C00761D1B08831887288401AF9
:1059F000401C01B2F088B4F90050801A401C00B27B
:105A0000814200DA0846B5EB600F00DD45103146F3
:105A100004A80AF074FB94F82300BDF91020C0F329
:105A200044014807B4F9200001D4284440421044FE
:105A3000ADF810000807BDF91420B4F9200001D416
:105A400028444042101AADF8140094F82300BDF920
:105A5000121040088007B4F9200001D428444042C5
:105A60000844ADF8120094F82300BDF91610400860
:105A7000C007B4F9200001D128444042081AADF80B
:105A80001600208C281A00B2002800DA0020A27824
:105A900094F82210CDE90212E18BADF804100090C9
:105AA0002B4604AA3146384600F002F807B0F0BD94
:105AB0002DE9FF4FA9B01D46DDE93879DDF8D88022
:105AC00016460C46FF2F00D3FF2708460DF074FC46
:105AD0002690284350EA080074D02998214682680D
