:020000040800F2
:10000000289201209D010008C7280008D923000874
:10001000C52800087B030008B33200080000000078
:100020000000000000000000000000002D3000086B
:100030001F06000800000000592C00082F3000089F
:10004000B7010008B7010008B7010008B7010008B0
:10005000B7010008B7010008B7010008B7010008A0
:10006000B7010008B7010008B7010008B701000890
:10007000B7010008B7010008B7010008B701000880
:10008000B7010008B7010008B7010008B701000870
:10009000B7010008B7010008B7010008B701000860
:1000A000B7010008B7010008B7010008B701000850
:1000B000B7010008B7010008B7010008B701000840
:1000C000B7010008B7010008B7010008B701000830
:1000D000B7010008B7010008B7010008B701000820
:1000E000B7010008B7010008B7010008B701000810
:1000F000B7010008B7010008B7010008B701000800
:10010000B7010008B7010008B7010008B7010008EF
:10011000B7010008B7010008B7010008B7010008DF
:10012000B701000851050008B7010008B701000831
:10013000B7010008B7010008B7010008B7010008BF
:10014000B7010008B7010008B7010008B7010008AF
:10015000B7010008B7010008B7010008B70100089F
:10016000B7010008B7010008B7010008B70100088F
:10017000B7010008B70100084505000800000000AD
:10018000B7010008B7010008DFF80CD000F0B8F89C
:1001900000480047C903020828920120064880470A
:1001A00006480047FEE7FEE7FEE7FEE7FEE7FEE75C
:1001B000FEE7FEE7FEE7FEE7D5300008890100080C
:1001C0002DE9F05F0546002092469B46884606468C
:1001D000814640241BE0284641464746224600F01F
:1001E0007FF853465A46C01A914110D3114618461B
:1001F000224600F066F82D1A67EB01084F462246AA
:100200000120002100F05DF817EB00094E41201E8F
:10021000A4F10104DFDC484631462A464346BDE8E6
:10022000F09F10B5431A934209D28318881803E04F
:1002300010F8011D03F8011D521EF9D210BD40EA4D
:1002400001039B0703D009E008C9121F08C0042A54
:10025000FAD203E011F8013B00F8013B521EF9D23B
:1002600010BDD2B201E000F8012B491EFBD270474D
:100270000022F6E710B513460A4604461946FFF772
:10028000F0FF204610BD421C10F8011B0029FBD1D5
:10029000801A704710B5002200E0521C835C8C5C11
:1002A000A34201D1002BF8D1D8B2E1B2401A10BD5F
:1002B000034611F8012B00F8012B002AF9D118464A
:1002C0007047202A04DB203A00FA02F10020704730
:1002D0009140C2F1200320FA03F319439040704784
:1002E000202A04DB203A21FA02F00021704721FA8B
:1002F00002F3D040C2F120029140084319467047F2
:10030000064C074D06E0E06840F0010394E8070062
:1003100098471034AC42F6D3FFF73AFFA88F020893
:10032000D88F020870B58C1810F8015B15F0070320
:1003300001D110F8013B2A1106D110F8012B03E07E
:1003400010F8016B01F8016B5B1EF9D12B0705D486
:100350000023521E0DD401F8013BFAE710F8013BCF
:10036000CB1A921C03E013F8015B01F8015B521EEB
:10037000F9D5A142D8D3002070BDFEE72DE9FF4199
:100380000026BDF8000066F3040080B266F34A1050
:1003900080B266F3CF20ADF8000080B20090BDF8C7
:1003A00000401DF0A1FB002221461CF0A1FD02A887
:1003B00002F096FA9DF808004FF4A077F0B33C469F
:1003C000F0252448016821F0E00164F3942165F3ED
:1003D0005F5121F01F01091D016014FB05F1490067
:1003E000C0E901161DF080FB16F0DCF81A4E002261
:1003F000114670601CF029FCF02C01D8BD4224D9B4
:1004000000EE104A9FED151ADFED151AB8EE400AFE
:10041000C1EE000A00EE105AB8EE401A81EE810AD1
:10042000F4EEC00AF1EE10FA01D2B0EE600ADFED90
:100430000D0A20EE200ABCEEC00A00E007E010EE34
:10044000100A81B2706816F068FEBDE8FF81A02432
:100450007825B6E728020020000000200000704345
:100460000000A0430000804310B50D4C2078002808
:1004700014D002F03FFB002810D002F02BFA38B164
:1004800008498860606816F09DFD60681BF0F4FB09
:1004900002F01AFABDE8104002F0A8BB10BD00003F
:1004A000000000202802002010B5806B816B496D90
:1004B000022902D0012180F8251000F0B3F810BD08
:1004C00010B5846BA26AA06B0168CAB10A68A36AFE
:1004D00002F40022DB0706D12AB1C968E26A01EB07
:1004E000C201002207E00A68120319D40969E26A0E
:1004F00001EBC201012200F062FAA06A401E0EE088
:100500000868000302D5606BC86009E00868000352
:1005100006D4E26A606B00EB82000861206BA06287
:10052000A06A216B88420BD12068C16841F00101AB
:10053000C16020680068800702D5012084F825008A
:1005400010BD0000014800F077B800003402002020
:10055000014800F057BF0000740200200168182312
:10056000CAB2103AB2FBF3F2054B6FF30901032A4A
:100570009B5CC36500D9091D816508467047000072
:100580004448020810B5014600208B698A6A4FF082
:10059000C07453B1B3F5005F15D072B1012A0CD00D
:1005A000022A0AD0032A09D104E01AB1012A06D08E
:1005B000022A03D1C96AC90100D5012010BDC96A48
:1005C000A142FAD010BD002AF7D0012AF2D0022AA7
:1005D000F3D0032AF3D010BD10B5046863608368BC
:1005E000402B036803D099600068C26010BD9A6018
:1005F0000068C16010BD30B50468256825F4802509
:100600002560046863608368402B036803D09960A9
:100610000068C26030BD9A600068C16030BD70473C
:1006200072B6FEE77047000002490120487002F0F0
:1006300003BB00001C0000202DE9F04104460068C7
:100640000569264F69074FF004060FD54661E06B38
:1006500040F00200E06384F82560A06B0765A06BA2
:1006600000F0BDFE10B1A06BFFF71EFFA80711D56B
:10067000216802204861E06B40F00100E06384F8EB
:100680002560A06B0765A06B00F0A9FE10B1A06B00
:10069000FFF70AFFE80605D52168102048612046CB
:1006A00000F05EF8280705D521680820486120463B
:1006B00000F084F9E8070FD020680168890703D5A6
:1006C000C16821F01E01C1602068C16821F00101EC
:1006D000C1602046FFF7A8FFBDE8F081A90400082B
:1006E00070B5040004D094F82500002510B109E08D
:1006F000012070BD84F82450204600F033F82046D5
:1007000000F030F8022084F825002068016840F6E7
:10071000F87291430160616960680843D4E903128B
:1007200011430843A1680843A1690843216A0843AB
:1007300021680A68104308606068102805D1E17FCD
:10074000E06961F31F60216888612068C16841F039
:100750001E01C160E563012084F82500002070BD02
:1007600070470000F0B587B0064614216846FFF7D1
:100770007FFD4049306888427AD13F4800250168B2
:1007800041F00101016000683B4900F00100091FD0
:100790000590086840F010000860086800F010003C
:1007A0000590086840F001000860086800F001004A
:1007B0000590086840F004000860086800F0040034
:1007C0000590086840F0020008600868022400F004
:1007D0000200059070208DE831000D27CDE9035708
:1007E0006946264800F092FF50208DE83100CDE99F
:1007F00003576946224800F089FF4FF470708DE876
:100800003100CDE9035769461E4800F07FFFC02044
:100810008DE83100CDE9035769461B4800F076FFAB
:100820001B4C1A4820604FF00070C4E90105C0134A
:10083000C4E90350800060614000A0614011E061A4
:1008400040022062042060620120C4E90A052046BB
:10085000256300F0A7FE08B1FFF7E2FEB4630022B3
:1008600011464E20A66301F0C1F84E2001F0B0F809
:1008700007B0F0BD000005503438024000100240BF
:1008800000000240000802400004024028640240C8
:1008900074020020F8B5044690F82400012827D0FF
:1008A000012084F82400022584F8255025682E684C
:1008B00046F480462E6025682E6826F002062E60DB
:1008C00025682E680E432E60A56B1D49E963A66B53
:1008D0001C4DF564A66B00253565A56206042563ED
:1008E000B34207D22168A06B283100F0C5FE1FE09B
:1008F0000220F8BDA76B7964A062E362626305E041
:10090000E06A4008E062A06A4000A062E06AB0428B
:10091000F6D2A06A801EA062A06A2063E06A02EBA1
:100920008003E06A00902168A06B283100F04EF847
:1009300021680A6842F001020A6084F82450F8BD78
:10094000C1040008A9040008F8B504461A480E219D
:1009500000250068B0FBF1F0009094F82400012815
:1009600027D0012684F82460022084F8250020681E
:10097000016821F001010160206800994A1E00927F
:1009800005D2E16B41F02001E163032502E001683B
:10099000C907F2D1016821F480410160A06B2434C1
:1009A00000F0D4FCA069A061667000202070284689
:1009B000F8BD0220F8BD0000180000207047006854
:1009C00012B1016100207047C160FBE72DE9F84FCB
:1009D000044600200A9D0090A0684FF4807A802889
:1009E00017D0E06BB8B1606CA8B1E06C98B194F826
:1009F0003400012813D0012084F8340094F83560C5
:100A00000020012E0DD084F8340002200090BDE8B3
:100A1000F88F504600E0402060650120F7E7022093
:100A2000F5E7022684F8356060652068066846F4BC
:100A300080260660206803612B462046FFF7CCFD28
:100A4000DFF800844FF4006B4FF4001EFE48FD4AAF
:100A5000FD4BFC4DFC4EFB4FDFF8ECC3DFF8E4939D
:100A60002168483A603318351836303F0CF1780C5D
:100A700009F13009414534D9814205D0914203D072
:100A8000994201D0A94201D1202125E0B14205D0EF
:100A9000B94203D0614501D0494501D159461BE017
:100AA000DFF8A48308F13008414511D0DFF89483C2
:100AB000A8F1180841450BD0DFF88C8308F19008A5
:100AC000414505D0DFF87C8308F14808414501D154
:100AD000714601E04FF00061DFF86883A8F14C082F
:100AE00039E0DFF8648308F1A808414536D981422E
:100AF00005D0914203D0994201D0A94201D12021D1
:100B000025E0B14205D0B94203D0614501D0494545
:100B100001D159461BE0DFF8308308F13008414528
:100B200011D0DFF82083A8F1180841450BD0DFF879
:100B3000188308F19008414505D0DFF8088308F1D3
:100B40004808414501D1714601E04FF00061DFF8EE
:100B5000F482A8F15008C8F8001072E0DFF8E882CB
:100B600008F14808414536D9814205D0914203D069
:100B7000994201D0A94201D1202125E0B14205D0FE
:100B8000B94203D0614501D0494501D159461BE026
:100B9000DFF8B48208F13008414511D0DFF8A482B3
:100BA000A8F1180841450BD0DFF89C8208F19008A5
:100BB000414505D0DFF88C8208F14808414501D154
:100BC000714601E04FF00061DFF87C82A8F1100867
:100BD000C8F80C1035E0814205D0914203D099420B
:100BE00001D0A94201D1202125E0B14205D0B9426E
:100BF00003D0614501D0494501D159461BE0DFF8DA
:100C0000488208F13008414511D0DFF83882A8F158
:100C1000180841450BD0DFF8308208F190084145B3
:100C200005D0DFF8208208F14808414501D171461E
:100C300001E04FF00061DFF81082A8F11008C8F859
:100C40000810DFF8008221684FF4806B4FF4801E9B
:100C5000414534D9814205D0914203D0994201D017
:100C6000A94201D1102125E0B14205D0B94203D0FB
:100C7000614501D0494501D159461BE0DFF8C881E3
:100C800008F13008414511D0DFF8B881A8F1180803
:100C900041450BD0DFF8B08108F19008414505D0FF
:100CA000DFF8A08108F14808414501D1714601E013
:100CB0004FF08061DFF88C81A8F14C0839E0DFF853
:100CC000888108F1A808414536D9814205D0914272
:100CD00003D0994201D0A94201D1102125E0B142AF
:100CE00005D0B94203D0614501D0494501D15946EB
:100CF0001BE0DFF8548108F13008414511D0DFF8DE
:100D00004481A8F1180841450BD0DFF83C8108F177
:100D10009008414505D0DFF82C8108F1480841458D
:100D200001D1714601E04FF08061DFF81881A8F130
:100D30005008C8F8001072E0DFF80C8108F148088C
:100D4000414536D9814205D0914203D0994201D024
:100D5000A94201D1102125E0B14205D0B94203D00A
:100D6000614501D0494501D159461BE0DFF8D880E3
:100D700008F13008414511D0DFF8C880A8F1180803
:100D800041450BD0DFF8C08008F19008414505D0FF
:100D9000DFF8B08008F14808414501D1714601E013
:100DA0004FF08061DFF8A080A8F11008C8F80C109F
:100DB00035E0814205D0914203D0994201D0A94249
:100DC00001D1102125E0B14205D0B94203D06145DF
:100DD00001D0494501D159461BE0DFF86C8008F18C
:100DE0003008414511D0DFF85C80A8F11808414572
:100DF0000BD0DFF8548008F19008414505D0DFF8AA
:100E0000448008F14808414501D1714601E04FF0A6
:100E10008061DFF83480A8F11008C8F80810DFF806
:100E2000248021684FF4007B4FF4002E414534D9D3
:100E3000814205D0914203D0994201D0A94205D107
:100E4000082125E05864024010600240B14205D0FC
:100E5000B94203D0614501D0494501D1594617E057
:100E6000DFF8E08441450FD0DFF8DC8441450BD04A
:100E7000DFF8D08408F16008414505D0DFF8C88468
:100E800008F16008414501D1714601E04FF0007161
:100E9000DFF8B484A8F1340835E0DFF8A88408F15D
:100EA0007808414532D9814205D0914203D0994218
:100EB00001D0A94201D1082121E0B14205D0B942B7
:100EC00003D0614501D0494501D1594617E0DFF80B
:100ED000748441450FD0DFF8708441450BD0DFF8B2
:100EE000648408F16008414505D0DFF85C8408F1AE
:100EF0006008414501D1714601E04FF00071DFF813
:100F00004884A8F13808C8F800106AE0DFF8348493
:100F100008F11808414532D9814205D0914203D0E9
:100F2000994201D0A94201D1082121E0B14205D066
:100F3000B94203D0614501D0494501D1594617E076
:100F4000DFF8008441450FD0DFF8FC8341450BD02A
:100F5000DFF8F08308F16008414505D0DFF8E88349
:100F600008F16008414501D1714601E04FF0007180
:100F7000DFF8D083A8F14008C8F80C1031E08142B6
:100F800005D0914203D0994201D0A94201D1082154
:100F900021E0B14205D0B94203D0614501D04945B5
:100FA00001D1594617E0DFF89C8341450FD0DFF8A7
:100FB000988341450BD0DFF88C8308F160084145E8
:100FC00005D0DFF8848308F16008414501D17146FE
:100FD00001E04FF00071DFF86C83A8F14008C8F819
:100FE0000810DFF86483216808F118084FF4802B9B
:100FF0004FF0807E41452FD9814205D0914203D0E8
:10100000994201D0A94201D1042120E0B14205D08A
:10101000B94203D0614501D0494501D1514616E09E
:10102000DFF8208341450FD0DFF81C8341450BD00A
:10103000DFF8108308F16008414505D0DFF8088328
:1010400008F16008414501D1594600E07146DFF8DA
:10105000F882A8F1340834E0DFF8E88208F1780873
:10106000414531D9814205D0914203D0994201D006
:10107000A94201D1042120E0B14205D0B94203D0F8
:10108000614501D0494501D1514616E0DFF8B482EF
:1010900041450FD0DFF8B08241450BD0DFF8A48284
:1010A00008F16008414505D0DFF89C8208F160082E
:1010B000414501D1594600E07146DFF88C82A8F124
:1010C0003808C8F8001068E0DFF8788208F11808DE
:1010D000414531D9814205D0914203D0994201D096
:1010E000A94201D1042120E0B14205D0B94203D088
:1010F000614501D0494501D1514616E0DFF84482EF
:1011000041450FD0DFF8408241450BD0DFF83482F3
:1011100008F16008414505D0DFF82C8208F160082D
:10112000414501D1594600E07146DFF81882A8F127
:101130004008C8F80C1030E0814205D0914203D03D
:10114000994201D0A94201D1042120E0B14205D049
:10115000B94203D0614501D0494501D1514616E05D
:10116000DFF8E08141450FD0DFF8DC8141450BD04D
:10117000DFF8D08108F16008414505D0DFF8C8816B
:1011800008F16008414501D1594600E07146DFF899
:10119000B481A8F14008C8F80810DFF8AC812168D4
:1011A00008F118084FF4803A4FF4800B414527D9D5
:1011B000814205D0914203D0994201D0A94201D188
:1011C00001201AE0B14205D0B94203D0614501D0F7
:1011D000494501D1402010E05A4881420AD05A487E
:1011E000814207D057486030814203D05648603072
:1011F000814201D1504600E05846534934392CE031
:10120000DFF8408108F17808414528D9814205D0AE
:10121000914203D0994201D0A94201D101201AE0A4
:10122000B14205D0B94203D0614501D0494501D151
:10123000402010E0434881420AD04348814207D011
:1012400040486030814203D03F486030814201D144
:10125000504600E058463C493839086056E0DFF80F
:10126000E48008F11808414528D9814205D091420F
:1012700003D0994201D0A94201D101201AE0B14224
:1012800005D0B94203D0614501D0494501D1402084
:1012900010E02C4881420AD02B48814207D02948CF
:1012A0006030814203D028486030814201D15046ED
:1012B00000E0584623494039C86027E0814205D004
:1012C000914203D0994201D0A94201D101201AE0F4
:1012D000B14205D0B94203D0614501D0494501D1A1
:1012E000402010E0174881420AD01748814207D0B9
:1012F00014486030814203D013486030814201D1EC
:10130000504600E058460F4940398860206801681F
:1013100041F0160101602068416941F0800141619E
:10132000206C08B9A06C20B12068016841F0080168
:1013300001602068016841F0010101600098BDE88A
:10134000F88F000040600240406402402DE9F04107
:101350000446876D00F0DCFA064694F83500002557
:10136000022806D08020606584F834500120BDE852
:10137000F0812068016821F0160101602068416950
:1013800021F080014161206C08B9A06C20B1206877
:10139000016821F0080101602068016821F0010165
:1013A00001600CE000F0B4FA801B052807D920206A
:1013B0006065032084F8350084F83450D7E720684E
:1013C0000068C007EED194F85C103F208840B860F8
:1013D000012084F8350084F834500020C7E790F8E5
:1013E0003510022903D08021416501207047052175
:1013F00080F835100068016821F0010101600020CB
:10140000704700002DE9F84304464FF00009CDF87D
:10141000009063484FF41651A56D0068B0FBF1F7DA
:101420002E6894F85C10082000FA01F131420FD0C8
:1014300021680A6852070BD50A6822F004020A6084
:1014400094F85C108840A860606D40F00100606511
:1014500094F85C104FF0010808FA01F0304208D00F
:1014600021684969090604D5A860606D40F0020052
:10147000606594F85C1004208840304208D02168F0
:101480000968890704D5A860606D40F004006065B4
:1014900094F85C1010208840304218D02168096808
:1014A000090714D5A86020680168490304D50068BD
:1014B000000308D5A16C07E00168C90503D40168E1
:1014C00021F008010160216C09B12046884794F899
:1014D0005C1020208840304231D021680968C9065C
:1014E0002DD5A86094F8350005282068016806D03D
:1014F000490347D5006800031DD4616C1CE021F04E
:10150000160101602068416921F080014161206C71
:1015100008B9A06C20B12068016821F008010160C1
:1015200094F85C103F208840A86084F8358084F8E7
:101530003490216D1FE0E16B09B120468847606D52
:1015400000282BD0606DC00714D0052084F835002A
:101550002068016821F0010101600098401C0090A2
:10156000B84203D820680068C007F6D184F83580F7
:1015700084F83490E16C002910D001B02046BDE819
:10158000F04308470168C905D5D4016821F010016E
:10159000016084F8358084F83490CCE7BDE8F883A6
:1015A000180000202DE9F041044600F0B1F906468C
:1015B0005CB1022084F83500002584F8345020689E
:1015C000016821F0010101600DE00120BDE8F0811A
:1015D00000F09EF9801B052805D9202060650320B6
:1015E00084F83500F2E720680068C007F0D122686F
:1015F000116820480140D4E901031843D4E90336B7
:101600003343184363691843A3691843E3691843D4
:10161000236A18430843616A042903D1D4E90B13F0
:1016200019430843106020684069666A20F007018A
:1016300030460E43012704280CD1A06A0643E06A15
:1016400040B12046FEF79EFF20B14020606584F83F
:101650003570BAE7206846612046FEF77FFF94F8B0
:101660005C203F2191408160656584F835700020E1
:10167000ACE700003F8010F02DE9F0410446866D94
:1016800090F83400002501280DD0012084F83400A2
:1016900094F835700020012F07D084F8340002251B
:1016A0002846BDE8F0810220FBE7022784F8357068
:1016B00060652046FEF79FFF94F85C103F2088404D
:1016C000B0602068016841F016010160206C20B113
:1016D0002068016841F0080101602068016841F05C
:1016E00001010160DCE7000070B5044600F010F96C
:1016F0000546601C02D004480078044400F008F954
:10170000401BA042FAD370BD0C0000202DE9F84F19
:10171000DFF8BCA10022012503264FF00F090AF1D2
:10172000040BAAF1040E00BF0B6805FA02F4234073
:10173000A34270D10F7907F00307012F01D0022FC8
:1017400016D187684FEA420806FA08FC27EA0C0718
:10175000D1F80CC00CFA08FC4CEA070CC0F808C021
:101760004768A7430C79C4F3001494403C43446099
:101770000C79E443A4070AD0C4684FEA420C06FA85
:101780000CF7BC438F6807FA0CF72743C7600C7946
:1017900004F00304022C12D1D40800EB840CDCF812
:1017A00020405707FF0E09FA07F824EA0804D1F889
:1017B000108008FA07F848EA0408CCF8208004688A
:1017C0004FEA420C06FA0CF7BC430F7907F0030707
:1017D00007FA0CF7274307604C6814F4403F70D0B9
:1017E0003C4C276847F480472760246822F00307B1
:1017F00004F480440094384C07EB040CDCF80848EF
:1018000097074FEA177809FA08F7BC43334FB842F5
:1018100002D1002724E054E0314FB84201D1012722
:101820001EE0304FB84201D1022719E02E4FB842D6
:1018300001D1032714E02D4FB84201D104270FE056
:101840002B4FB84201D105270AE02A4FB84201D1F7
:10185000062705E0284FB84201D1072700E00827F6
:1018600007FA08F72743CCF80878DAF8004057461B
:10187000D1F804C09C435FEACC2C00D51C433C60EB
:10188000DBF800405F46D1F804C09C435FEA8C2C33
:1018900000D51C433C60DEF800407746D1F804C018
:1018A0009C435FEA8C3C00D51C433C60084F083FDA
:1018B0003C68D1F804C09C435FEACC3C00D51C4393
:1018C0003C60521C102AFFF42FAFBDE8F88F0000D7
:1018D000083C014044380240003001400000024012
:1018E0000004024000080240000C024000100240C8
:1018F0000014024000180240001C02400069084029
:1019000000D0012070470AB1816170470904FBE7EC
:1019100001488068704700000C0000200248816880
:1019200002781144816070470C0000200B4810B50C
:10193000016841F400710160016841F48061016057
:10194000016841F480710160032000F06FF80F20FE
:1019500000F006F800F024F8002010BD003C024022
:1019600070B50D4D04464FF47A712878B1FBF0F054
:101970000A490968B1FBF0F000F063FC48B9102C8B
:1019800007D200222146501E00F030F800206C6083
:1019900070BD012070BD00000C0000201800002068
:1019A0000A4808B5016841F480410160006800F40C
:1019B000804000900548001F016841F0805101609F
:1019C000006800F08050009008BD000044380240DC
:1019D000002809DB00F01F0201219140400980002E
:1019E00000F1E020C0F8001170470000F0B40E4B89
:1019F0001B680C46C3F30223C3F10705042D00D96D
:101A00000425191D072901D2002300E0DB1E012651
:101A100006FA05F1491E214099409E40761E164067
:101A20003143F0BC01F06ABC0CED00E0064900F067
:101A3000070208684FF6FF03184040EA0220034AF5
:101A400010430860704700000CED00E00000FA054C
:101A50002DE9F0470E46050065D0DFF81481D8F86F
:101A60000000F7B200F00700B04207D288F800701B
:101A7000D8F8000000F00700B04254D128683D4C6F
:101A8000810712D5400703D5206840F4E05020605C
:101A90002878000703D5206840F460402060206863
:101AA000A96820F0F000084320602878C0072DD0F6
:101AB000304968680839012812D0022813D0032859
:101AC00011D00968890700292DDA216821F0030166
:101AD00001432160FFF71CFF814641F2883A0EE086
:101AE00009688903EFE709688901ECE7FFF710FF50
:101AF000A0EB0901514502D90320BDE8F087206819
:101B0000696800F00C00B0EB810FEFD1D8F800103D
:101B1000404601F00701B14207D90770006800F0A4
:101B20000700B04201D00120E7E72878400705D53B
:101B30002068E96820F4E050084320602878000716
:101B400006D52068296920F4604040EAC100206081
:101B500000F038F82168084AC1F30311515CC8400D
:101B60000649086006480068FFF7FAFE0020C4E74F
:101B7000003C0240083802404C480208180000208F
:101B8000100000200448054900680968044AC1F3B0
:101B90008221515CC840704718000020083802407C
:101BA0005C4802080448054900680968044AC1F312
:101BB0004231515CC840704718000020083802408C
:101BC0005C480208154810B5006810F00C02144873
:101BD00013D04110042A0FD0082A0ED10F4C241F15
:101BE0002268236802F03F025B0207D52068C0F339
:101BF0008810A0FB010106E0084610BD2168C1F372
:101C00008811A1FB00010023FEF7DAFA2168C1F375
:101C10000141491C4900B0FBF1F010BD08380240F9
:101C20000024F4002DE9F84F04006ED02078DFF88E
:101C30004C93C007A9F104054AD009F104000168DA
:101C4000C1F38101012908D00068C0F38100022896
:101C50000AD1D9F80000400206D52868800337D59C
:101C600060680028E1D033E06068B0F5803F10D0B4
:101C7000B0F5A02F286810D020F4803028602868A4
:101C800020F4802028606068A8B1FFF741FE064676
:101C90000DE0286840F48030F4E740F480202860AC
:101CA000F7E700BFFFF734FE801B642873D828686D
:101CB0008003F7D50CE0FFF72BFE064605E000BFDA
:101CC000FFF726FE801B6428F0D828688003F7D42D
:101CD0002078DFF8AC8280074FF0000A3ED5A74895
:101CE000001D016811F00C0F08D00068C0F38100DE
:101CF00002280BD1D9F80000400207D428688007D9
:101D000016D5E068012800D112E033E1E068B8B1EF
:101D10000120C8F80000FFF7FBFD064605E000BF04
:101D2000FFF7F6FD801B0228C0D828688007F7D58A
:101D30002868216920F0F80040EAC10028600DE021
:101D4000C8F800A0FFF7E4FD064604E0FFF7E0FD59
:101D5000801B02281FD828688007F7D42078000746
:101D600022D5864F87486169703771B101210160C2
:101D7000FFF7CEFD064604E0FFF7CAFD801B0228F0
:101D800009D838688007F7D50EE0C0F800A0FFF743
:101D9000BFFD064605E082E0FFF7BAFD801B022882
:101DA0007DD838688007F7D42078400768D5DFF8F9
:101DB000CCB100270BF13C0BDBF80000C0000BD4CA
:101DC000DBF8001041F08051CBF80010DBF8000088
:101DD000012700F0805000906B4E3068C00510D491
:101DE000306840F480703060FFF792FD009005E0AD
:101DF000FFF78EFD0099401A022850D83068C005C0
:101E0000F6D55E4EA0686C3601280FD005283068E4
:101E100010D020F001003060306820F00400306005
:101E2000A068B8B1FFF774FD00900FE0306840F093
:101E30000100F4E740F004003060F7E7FFF768FDC9
:101E40000099411A41F28830814266D83068800793
:101E5000F4D50EE0FFF75CFD009007E0FFF758FDBA
:101E60000099411A41F28830814256D83068800783
:101E7000F4D42FB1DBF8001021F08051CBF8001022
:101E8000A069C8B33D49091D0968C1F38101022950
:101E90004AD00228504607D0C8F8600000E03CE075
:101EA000FFF736FD04463BE04746C8F86000FFF701
:101EB0002FFD064605E000BFFFF72AFD801B022824
:101EC0002BD828688001F7D4D4E907010843A16A18
:101ED0002E4A490802EB0141626A41EA8211084335
:101EE00094F82C1040EA0161C9F80010012038660E
:101EF000FFF70EFD044606E03EE000BFFFF708FDD9
:101F0000001B022809D828688001F7D534E000BFFB
:101F1000FFF7FEFC001B022802D90320BDE8F88F62
:101F200028688001F4D427E00128F7D0D9F8000010
:101F3000E26900F4800191421CD1226A00F03F0165
:101F4000914217D147F6C071626A0140B1EB821F1E
:101F500010D1A26A4FF0FF3300F4403103EB52027C
:101F6000B1EB024F06D194F82C1000F07060B0EB8A
:101F7000016F01D00120D1E70020CFE704380240F3
:101F800000004742800E4742007000400000FFFF03
:101F900070B5040009D0606A002540B12561656113
:101FA000A56294F8510040B10CE0012070BD60685A
:101FB000B0F5827FF4D0E561F2E784F85050204616
:101FC00000F044F8022084F851002068016821F0F4
:101FD00040010160A088218900F4827001F404416D
:101FE0000843A18901F400610843217C01F002014A
:101FF0000843217D01F001010843218B01F40071A8
:102000000843217F01F03801084394F8201001F0C3
:1020100080010843218D01F40051084321680860C4
:10202000A069042101EA104094F8241001F0100185
:102030000843216848602068C16921F40061C161DA
:102040006565012084F85100002070BDF0B587B0AF
:10205000044614216846FEF70BF91C4920688842A3
:1020600032D11B480024016841F4804101600068BE
:1020700000F48040059016481038016841F00401D2
:102080000160016801F004010591016841F002015D
:1020900001600068022500F0020005900C20CDE9E7
:1020A000000502AA0326052782E8D00069460948F0
:1020B000FFF72CFB2803CDE9000502AA694682E858
:1020C000D0000548FFF722FB07B0F0BD0038004004
:1020D0004038024000080240000402402DE9F84F59
:1020E000984616468A460446FFF712FC814694F845
:1020F000510001281ED1BAF1000F73D0002E71D00B
:1021000094F85000012815D0012784F8507003205E
:1021100084F8510000256565C4F830A0A686E686DF
:10212000A563A587E58765642564A068B0F5004FC1
:1021300003D00CE00220BDE8F88F2068016821F090
:10214000400101602068016841F48041016020681D
:102150000168490603D4016841F040010160E0686C
:10216000B0F5006F606803D048B3012E27D047E078
:1021700008B1012E1FD1206B21680088C86006E0DD
:1021800020688168890709D5216B0988C160206BA7
:10219000801C2063E08E401EE0860CE0FFF7B8FB59
:1021A000A0EB0901414503D3B8F1FF3F03D035E06F
:1021B000B8F1000F32D0E08E0028E1D123E0206B8F
:1021C00021680078087306E02068816889070AD5CD
:1021D000216B09780173206B401C2063E08E401E48
:1021E000E0860DE02BE0FFF793FBA0EB09014145F2
:1021F00003D3B8F1FF3F03D010E0B8F1000F0DD0CA
:10220000E08E0028E0D14A464146204600F07AFEA2
:1022100008B120206065A06830B109E084F85170F1
:1022200084F85050032086E72068C16880680090D9
:1022300084F8517004F8505F60680028F3D00120E2
:1022400079E710B5401EB0F1807F01D3012010BDA9
:102250004FF0E02460610F21601701F04FF800207B
:10226000A06107202061002010BD70B5040004D0DB
:1022700094F84100002510B106E0012070BD84F8FB
:102280004050204600F024F8242084F841002068C3
:10229000C16821F40051C160204600F04BFF206866
:1022A000016921F4904101612068416921F02A010E
:1022B00041612068C16841F40051C160656420201B
:1022C00084F8410084F842006563002070BD00007E
:1022D00010B586B0044614216846FDF7C9FF1349BE
:1022E0002068884220D112480021026842F400325E
:1022F0000260006800F4003005900D481038026854
:1023000042F001020260006800F0010005900C201C
:1023100000900220CDE901010320039007200490E2
:1023200069460448FFF7F2F906B010BD00440040CA
:1023300040380240000002402DE9F843044690F87E
:102340004100984616460D46202802D00220BDE8DE
:10235000F88385B17EB100206064212084F84100BB
:10236000FFF7D6FAA6848146E684A0682027B0F558
:10237000805F02D003E00120E9E7206910B12E461A
:1023800000250EE000260CE08021204600F058FFDA
:10239000A8B9C6B116F8010B21684860E08C401E50
:1023A000E084E08C4B464FF00002CDF8008000281E
:1023B000EAD14FF04001204600F042FF40B184F8DE
:1023C00041700320C3E735F8020BC0F30800E3E7D0
:1023D00084F841700020BAE7FEE700007FB500F006
:1023E00021F9714D4FF48054002221462846FFF711
:1023F0008AFA0520FFF778F9012221462846FFF7DF
:1024000082FA012000F04AF94FF47A70FFF76CF974
:10241000CB2000F043F965A1D1E90001CDE900012D
:102420000521684600F04EF9CF2000F037F961A091
:10243000032100680090684600F044F9E82000F0AD
:102440002DF95DA0032100680090684600F03AF97C
:10245000EA2000F023F9002402216846009400F0ED
:1024600031F9ED2000F01AF954A004210068009021
:10247000684600F027F9F72000F010F950A001217C
:1024800000680090684600F01DF9C02000F006F9D1
:102490004CA0012100680090684600F013F9C120AB
:1024A00000F0FCF848A0012100680090684600F0A8
:1024B00009F9C52000F0F2F844A00221006800905C
:1024C000684600F0FFF8C72000F0E8F840A00121BE
:1024D00000680090684600F0F5F8362000F0DEF85D
:1024E0003CA0012100680090684600F0EBF83A201B
:1024F00000F0D4F838A0012100680090684600F090
:10250000E1F8B12000F0CAF834A002210068009080
:10251000684600F0D7F8B62000F0C0F830A00321DC
:1025200000680090684600F0CDF8F22000F0B6F8A0
:1025300001216846009400F0C5F8262000F0AEF8AE
:1025400028A0012100680090684600F0BBF8E02058
:1025500000F0A4F824A00FC88DE80F000F216846F2
:1025600000F0B0F8E12000F099F823A10FC98DE840
:102570000F000F21684600F0A5F8112000F08EF83A
:102580007820FFF7B1F8292000F088F8362000F015
:1025900085F810A0012100680090684600F092F8CC
:1025A000BDE87F4000F072B800040240392C0034CE
:1025B0000200000000C13000850078006403128131
:1025C0002000000023000000100000003E28000052
:1025D00086000000400000005500000000180000C8
:1025E00008822700010000000F312B0C0E084EF16D
:1025F000370710030E090000000E1403110731C144
:1026000048080F0C31360F0010B5044600F00AF8E8
:102610000CB1212000E0202000F040F8BDE810407F
:1026200000F034B800224FF400410148FFF76BB9C5
:1026300000040240F8B507461C4615460E462A20FF
:1026400000F02CF8380A8DF800008DF80170280A87
:102650008DF802008DF803500421684600F032F82E
:102660002B2000F01BF8300A8DF800008DF8016077
:10267000200A8DF802008DF803400421684600F01E
:1026800021F8BDE8F8402C2000F008B80122D10361
:102690000148FFF738B900000004024001B50022EC
:1026A0004FF480410548FFF72EF94FF0FF33012228
:1026B00069460348FFF712FD08BD00000004024010
:1026C000D40200202DE9F0410C4606460122910378
:1026D0000C48FFF718F94FF400474FF0FF380DE0B2
:1026E000BC4201D9384600E0204685B243462A461E
:1026F00031460548FFF7F2FC2E44641B002CEFD155
:10270000BDE8F08100040240D40200200B4810B55F
:102710000949016000212022C0E90112C160016164
:10272000416181610162FDF7DBFF002803D0BDE854
:102730001040FDF775BF10BD0000055034020020A9
:10274000094808B5016841F4800101600068002271
:1027500000F48000009011463920FFF747F9BDE8EA
:1027600008403920FFF734B9303802402DE9F041F4
:1027700086B014216846FDF77BFD2F484FF0000816
:10278000016841F010010160016801F0100105913C
:10279000016841F080010160016801F0800105914C
:1027A000016841F004010160016801F00401059134
:1027B000016841F001010160016801F0010105912A
:1027C000016841F002010160016801F00201059118
:1027D000016841F0080101600068184E00F008002F
:1027E0004DF620440590012221463046FFF78BF834
:1027F000134F0122D8213846FFF785F800940124B1
:102800000325694630460194CDE90245FEF77EFF77
:10281000D820CDE9000469463846CDE90245FEF7E7
:1028200075FF0820CDE90008694602943046FEF79E
:102830006DFF06B0BDE8F081303802400004024070
:10284000000C0240104810B50E4901604FF482712F
:102850004160002102228160C0E90312012242612D
:10286000520282612822C0E90721416281620A2165
:10287000C162FFF78DFB002803D0BDE81040FDF7D3
:10288000CFBE10BD00380040D40200200C4810B567
:102890000A4901604FF4E1314160002181600C225E
:1028A000C160C0E904128161C161FFF7DEFC00284C
:1028B00003D0BDE81040FDF7B3BE10BD004400409A
:1028C0002C030020FEE7FEE7014900204870704716
:1028D0001C00002001484068704700001C000020D8
:1028E000002804D00249CA680260097C017170475F
:1028F0001C0000200C4A10B514784CB1F0224FF4A3
:10290000A073012C01D0022C06D003800A8010BDD8
:10291000A0220280782004E04FF4207202804FF45D
:10292000F070088010BD00002800002070B50C4633
:1029300005000CD0002C0AD0012000F0E1F80A209C
:1029400000F00CF828700B2000F008F8207070BD23
:1029500001480078704700001C00002010B50446B4
:1029600000F070FA602000F019FA204600F016FA24
:1029700000F09CFA00F066FA612000F00FFA00F017
:10298000BDF9044600F092FA204610BD70B50D4620
:10299000044600F057FA602000F000FA204600F0EC
:1029A000FDF9284600F0FAF9BDE8704000F07EBA63
:1029B0002DE9F0413B4E0124347000F04FF93A4DBF
:1029C000012210212846FEF79EFF0A20FEF78CFE0A
:1029D000002210212846FEF796FF0A20FEF784FE0B
:1029E000002208212846FEF78EFF0A20FEF77CFE13
:1029F000012208212846FEF786FF6420FEF774FEB8
:102A0000012000F07DF880211220FFF7BFFF322067
:102A1000FEF76AFE0A20FFF7A1FF07460B20FFF72B
:102A20009DFF05460246394620A000F043FC262FB4
:102A300001D1422D04D025A000F03CFC04202DE063
:102A4000184880210C302A4D047044708170C17088
:102A50000171002409E000BF05EB44014978FFF74C
:102A600095FF0120FEF740FE641C15F814000028B5
:102A7000F2D105EB440149780029EDD1012000F0A5
:102A800083F8012000F060F8802000F03DF88020FD
:102A900000F04AF8802000F099F802203070BDE87C
:102AA000F08100001C000020000C02404F5632361E
:102AB00034302053656E736F722049443A20307869
:102AC00025303258253032580D0A00004F56323624
:102AD000343020496E6974204661696C65643A201F
:102AE000496E76616C69642049440D0A000000005B
:102AF0006448020801484078704700001C0000202C
:102B00000146FF20FFF742BF10B504460548847018
:102B10000020FFF7F5FF2146BDE810409B20FFF79E
:102B200035BF00002800002010B504460548C470D9
:102B30000020FFF7E5FF2146BDE810409C20FFF78D
:102B400025BF00002800002010B5022819D80D4923
:102B5000487060B101280FD0022812D10120FFF780
:102B6000CFFF0821BDE810401220FFF70FBF012062
:102B7000FFF7C6FF0021F5E70120FFF7C1FF0421A1
:102B8000F0E710BD2800002070B5062819D80D49BF
:102B9000087020B10C4C002C13D0002508E00A4C22
:102BA0003E34F8E704EB45014978FFF7EFFE6D1C72
:102BB00014F815000028F5D104EB450149780029E7
:102BC000F0D170BD280000200649020810B5044667
:102BD000054804710020FFF793FF2146BDE810402F
:102BE0009D20FFF7D3BE0000280000207CB5104CCC
:102BF000207802281BD1032020700020607001A9DA
:102C00006846FFF777FEBDF80000BDF804104843A2
:102C10004500606828B928461DF08CFC60600028DB
:102C200005D00246AB0800210248FDF733FE7CBD0B
:102C30001C0000203402002010B5054C2078032829
:102C400004D10448FDF780FE0220207010BD000072
:102C50001C00002034020020704700002DE9F041E4
:102C600086B014216846FDF703FB224C002720683C
:102C700040F0080020602068012500F00800059061
:102C80004020CDE900050226DFF86C80CDE9025630
:102C900069464046FEF73AFD8020CDE90005CDE9C2
:102CA000025669464046FEF731FD206840F00800B4
:102CB00020602068039600F00800059008208DE849
:102CC000A10069464046FEF721FD102003968DE8DD
:102CD000A10069464046FEF719FD01224021404609
:102CE000FEF711FE012280214046FEF70CFE06B0E1
:102CF000BDE8F08130380240000C0240F0B585B0EC
:102D0000002514216846FDF7B3FA802000900020CA
:102D10000127CDE9010702201F4E03906946304686
:102D2000FEF7F4FC00240A2003F0A3FF0122402157
:102D30003046FEF7E8FD0A2003F09BFF8021304675
:102D4000FEF7DCFD40EA4500C5B2002240213046D6
:102D5000FEF7D9FD641CE4B2082CE4D36946304682
:102D60000197FEF7D3FC012280213046FEF7CBFD10
:102D70000A2003F07EFF012240213046FEF7C3FD0A
:102D80000A2003F076FF002240213046FEF7BBFD0B
:102D900005B02846F0BD0000000C024070B586B0BA
:102DA000064614216846FDF763FA80200090012052
:102DB000019002900220224D039069462846FEF7BA
:102DC000A5FC072426FA04F010F0010F01D001221F
:102DD00000E0002280212846FEF795FD0A2003F03E
:102DE00048FF012240212846FEF78DFD0A2003F00E
:102DF00040FF002240212846FEF785FD641E64B294
:102E0000002CDFDA0020019069462846FEF77EFCA0
:102E1000012280212846FEF776FD0A2003F029FFD3
:102E2000012240212846FEF76EFD0A2003F021FF13
:102E3000002240212846FEF766FD06B070BD000066
:102E4000000C024010B586B014216846FDF710FA58
:102E5000802000900120019002900320124C0390EA
:102E600069462046FEF752FC012280212046FEF7EB
:102E70004AFD012240212046FEF745FD052003F0D2
:102E8000F8FE002280212046FEF73DFD052003F0DC
:102E9000F0FE002240212046FEF735FD052003F01C
:102EA000E8FE06B010BD0000000C024010B586B070
:102EB00014216846FDF7DCF9802000900120019084
:102EC000029003200E4C039069462046FEF71EFC3C
:102ED000002280212046FEF716FD012240212046D7
:102EE000FEF711FD052003F0C4FE012280212046DB
:102EF000FEF709FD052003F0BCFE06B010BD000082
:102F0000000C0240F8B515460E460B4600920446EA
:102F10000122022100F02CF8A0B9134813490068DF
:102F2000B0FBF1F04FF47A71484300906068B0F55F
:102F3000827F0DD13346002280212046009500F08B
:102F400017F870B1606D40F0200060650320F8BD97
:102F5000009830B1401E009020688068C043000691
:102F6000F6D50020F8BD00001800002000366E01E4
:102F70002DE9F8431E46914688460446089DFEF713
:102F8000C7FC401B351AFEF7C3FC074626480068FD
:102F9000C0F3CB3068430AE0701C09D0FEF7B8FCE0
:102FA000C01BA8420FD275B10098B8B3401E009064
:102FB0002068816838EA010033D000214945EBD10F
:102FC0000020BDE8F8832068416821F0E0014160FD
:102FD0006068B0F5827F0BD1A068B0F5004F02D0D9
:102FE000B0F5806F04D12068016821F040010160D4
:102FF000A06AB0F5005F09D12068016821F4005192
:1030000001602068016841F400510160012084F8EA
:103010005100002084F850000320D2E7FFE700258C
:10302000C6E70121CAE7000018000020704710B56C
:10303000FEF774FCBDE8104001201CF0AFBC00009E
:1030400030B593B030216846FDF712F914210CA871
:10305000FDF70EF91D480025016841F0805101601F
:10306000006800F0805011901948016841F48041D7
:1030700001600068022400F480401190012000905B
:10308000000401908001CDE9064008AA0420A8218F
:1030900082E813000B906846FEF7C4FD08B172B6D3
:1030A000FEE70CA90F2081E831004FF4A0500F90EB
:1030B0004FF48050109005210CA8FEF7C9FC0028A1
:1030C00001D072B6FEE713B030BD000040380240B8
:1030D000007000400248016841F4700101607047CF
:1030E00088ED00E001680C3151E8002F22F4907265
:1030F00041E80023002BF5D10168143151E8002F7D
:1031000022F0010241E80023002BF5D1016B0129D7
:1031100009D101680C3151E8002F22F0100241E87A
:103120000023002BF5D1202180F8421000210163FB
:103130007047000070B5044600680169E26821F438
:103140004051114301612169A068E2690843616946
:10315000114308432168CA6849F20C639A43024349
:10316000CA6020684169A26921F44071114341613C
:1031700031492068884202D03049884202D1FEF7A6
:1031800011FD01E0FEF7FEFCE26900231921642530
:103190003226B2F5004F626828D0A0FB0101930FE0
:1031A0009200FDF70DF80146B0FBF5F06FF0180244
:1031B000504301EB800006EB0010B0FBF5F000F08F
:1031C000F002B1FBF5F002EB0012B1FBF5F06FF08D
:1031D0001803584301EB800006EB0010B0FBF5F03C
:1031E00000F00F0021681044886070BDA0FB010151
:1031F00092185B41FCF7E4FF0146B0FBF5F00201D9
:10320000B1FBF5F06FF01803584301EB800006EBBB
:10321000C000B0FBF5F000F0F80002EB4002B1FB9B
:10322000F5F0584301EB800006EBC000B0FBF5F071
:1032300000F00700D6E70000001001400014014034
:103240002DE9F843984617460D460446089E24E0AB
:10325000701C22D0FEF75CFBA0EB0800B0421AD82D
:10326000CEB12068C168490717D5802D15D0402DF3
:1032700013D00168C94309070FD4016800254068CD
:1032800000902046FFF72EFF0820606484F840502D
:103290000120BDE8F8830320FBE72068006835EAD9
:1032A000000004D00020B842D2D00020F1E7012075
:1032B000F9E7FEE70FB4054B10B503A9044A0298DD
:1032C00001F0D8FB10BC5DF814FB00001DE4000801
:1032D0001C0200200FB4084B10B504A902AA0398E1
:1032E00001F0C8FB044602A9002001F0F4FD2046CD
:1032F00010BC5DF814FB0000D74E00080907090E4A
:10330000002804DB00F1E02080F80014704700F092
:103310000F0000F1E02080F8141D704702E008C89B
:10332000121F08C1002AFAD170477047002001E03F
:1033300001C1121F002AFBD1704770B50446002559
:103340006FF02F0608E02068411C2160007805EB33
:10335000850106EB410145182068007800F004F86B
:103360000028F0D1284670BD3038092801D8012046
:10337000704700207047000010B54021074800F05A
:10338000B7FE00221E2106481CF062FB054CA0601F
:1033900002F032F90020207010BD000058500020CB
:1033A000A1560008A001002070B5B1F90030B2F9B3
:1033B0000040A34200DC23460380B1F90250B2F979
:1033C0000240A54200DD2C464480B1F90460B2F908
:1033D0000450AE4200DA35468580B1F90610B2F9E4
:1033E0000620914200DB1146C1800120AB4201DC86
:1033F0008C4200DD002070BDF8B50D460446B0F9E2
:103400000000B1F900101646884247DBB4F90210FB
:10341000B5F90220914241DBB4F90410B5F904205A
:1034200091423BDCB4F90610B5F90620914235DC37
:1034300096B3ADF800006088ADF8020032466946E8
:10344000284600F099F8002827D0A088ADF80000A1
:103450006088ADF8020032466946284600F08CF8D4
:1034600000281AD02088ADF80000E088ADF80200EE
:1034700032466946284600F07FF800280DD0A08823
:10348000ADF80000E088ADF80200324669462846F3
:1034900000F072F8002800D00120F8BD0020F8BD2F
:1034A000B0F90020B1F904309A4213DCB0F90420DD
:1034B000B1F900309A420DDBB0F90220B1F90630C3
:1034C0009A4207DCB0F90600B1F90210884201DB2C
:1034D0000120704700207047F8B50D460446B0F94A
:1034E0000400B1F900101646884243DBB4F9060027
:1034F000B5F9021088423DDBB4F90000B5F90410BB
:10350000884237DCB4F90210B5F90620914231DC6B
:1035100076B3ADF800006088ADF802003246694627
:10352000284600F029F818BBA088ADF80000608894
:10353000ADF8020032466946284600F01DF8B8B9D9
:103540002088ADF80000E088ADF8020032466946F8
:10355000284600F011F858B9A088ADF80000E088BE
:10356000ADF8020032466946284600F005F808B179
:103570000020F8BD0120F8BD2DE9FC4114460E469F
:10358000B1F90020B0F9001005468A423ADBB5F9DE
:103590000400824236DCB6F90270B5F90220974287
:1035A00030DBB5F906309F422CDC002C75DD401A6B
:1035B0009A1A401C521C00B212B200EBD07002EBFF
:1035C000D27240105210904200DB1046844200DD5F
:1035D0000446ADF80010288800222044ADF804000D
:1035E0006888ADF80200688831462044ADF80600CE
:1035F0006846FFF7C1FF40B1BDF804002044ADF8B4
:1036000004003FE00020BDE8FC81E8880022001BA8
:10361000ADF80200E888ADF8060031466846FFF7CD
:10362000ABFF28B1BDF804002044ADF8040011E060
:10363000A8880022001BADF80000A888ADF804009F
:1036400031466846FFF798FF50B1BDF80000001BF7
:10365000ADF80000BDF80200001BADF8020016E056
:103660006888ADF80200688800222044ADF80600A2
:1036700031466846FFF780FF70B1BDF80000001BBF
:10368000ADF80000BDF806002044ADF80600314654
:10369000684619F03FFDB6E7FFE70120B3E710B534
:1036A000B1F90040B2F900309C4200DA23460380B1
:1036B000B1F90240B2F902309C4200DA234643805D
:1036C000B1F90440B2F904309C4200DD2346838006
:1036D000B1F90610B2F90620914200DC1146C18012
:1036E00010BD0000FEB507461CF04EF90025354C14
:1036F0000646009537B1F868606038461CF076FAE7
:10370000606802E00FF086FB6060006919F09EFCC3
:103710006068406908B119F099FC6068C06919F0E7
:1037200095FC6068006A19F091FC60680169E1B37A
:1037300019F01EFF19F09AFE6068B0F8501199B3A5
:103740000168097C890715D50FF0C2FB401E07B23E
:1037500060680FF077FB401E03B20022114601A8FB
:1037600000970DF02CFA606801A90268926B516015
:1037700004F03EFA60684FF48071303015F0CCFAF6
:103780006068202100F5987015F0C6FA6068A0F80E
:10379000505130461CF0F2F8009060680068436AAF
:1037A00013B122680099984700E007E015F0F6F899
:1037B00000F036F8BDE8FE4000F006B8A0F8505121
:1037C000FEBD00005C00002070B50A4D002400BF63
:1037D000C4EBC40655F8260008B115F053F905EB03
:1037E00086001C2115F098FA641CE4B2042CEFD377
:1037F00070BD000034510020084949680AE04A6859
:10380000824202D00A68824203D10A7E42F001025B
:103810000A7649690029F2D1704700003000002083
:10382000704700000421014800F062BC4C500020A9
:103830001C21014800F05CBC645000202DE9FF5FB2
:103840000446DDE90E0613B9B0F5807F7ED0B6F9E7
:1038500000504FF0FF376D42454307EB25252DB251
:103860002580B6F902C0CCF1000C0CFB00FC07EB84
:103870002C273FB26780B6F900C0A1EB0C01414391
:103880004FF0020C0CEB212109B2A180B6F90280A5
:10389000A2EB080242430CEB222000B2E080002B96
:1038A0007ED04FF00A0A93FBFAF5684200EB8000E5
:1038B00003EB400705F1010928B21CF0D7FA00908C
:1038C0000FFA89F01CF0D2FA83465A3528B21CF060
:1038D000CDFA804609F15A0000B21CF0C7FA014641
:1038E000009AC7F10A0000FB02F300FB08F00BFB93
:1038F000073301FB070193FBFAF291FBFAF04FEA61
:10390000601AB4F90010B4F902000AFB01FCCDF80A
:103910000CC05511378805FB10C207EBA2220FFA25
:1039200082F905FB01F2BB46029277880AFB00216F
:1039300007EBA1210BB2B4F90410BE460AFB01FC4F
:1039400005FB10C20BEBA22216B200E02FE005FB34
:1039500001F7CDE9007CB4F90680DDF80CC00AFB64
:10396000007005FB18C1DDF804C0009F05FB18C5F9
:10397000029A0AFB087C0AFB08220BEBA1210EEB42
:10398000AC270EEBA02009B20EEBA2220BEBA52573
:103990000FFA87FC00B212B22DB24F46494500E043
:1039A0000EE000DA0F46B54216DAA84615E0002010
:1039B0002080491E6080A180521EE280BDE8FF9FEA
:1039C00032882A44228072883A44628032881144C4
:1039D000A180718808444FE0B046474504DA4F465D
:1039E000494506DA0F4604E0B54201DA2F4600E009
:1039F000374627804F46494500DD0F46B54201DD79
:103A0000A84600E0B046474503DD4D46494505DC84
:103A100001E0B54201DD294600E03146A1809A422D
:103A200001DA154600E01D46844501DA614600E0F2
:103A300001468D4205DA9A4201DA114606E019463E
:103A400004E0844501DA614600E0014661809A4263
:103A500001DD114600E01946844501DD654600E0C0
:103A60000546A94205DD9A4201DD104604E01846EC
:103A700002E0844500DD6046E0809FE72DE9FE4FCF
:103A80000446D0F800B0B0F90800E589091AB4F985
:103A90000A00101AD4E90932B5F5807F37D0A5891C
:103AA000002DA56B05FB01F13FD045434E11691177
:103AB000206BE56A00FB06F705FB1177754300FBF9
:103AC000015003EBA72902EBA020B4F904104FEA40
:103AD000292706128046B94248DD002F46DBB4F99B
:103AE0000600B04242DD002E40DB94F8340042076D
:103AF0003FD5820704F114001DD401FB0671022298
:103B00004D0092460BEB050115F0BCF823E0266B47
:103B1000E56A06FB01F705FB10774D4306FB0050F5
:103B200003EBA70902EBA000CFE7454303EB6119C4
:103B300002EB6510C9E701FB067101EB41054FF08F
:103B4000030A0BEB0501022215F09CF8E81C58440F
:103B500010F8010CA07594F83400C0071FD04FF680
:103B6000FF70ADF80000A18A814218D10020BDE8A5
:103B7000FE8F32B204F118002369CDE9010200255D
:103B800039B2AA468B4612F029FC0090BDF800001D
:103B9000A082DDE90102594612F0B8FBDAE7E07CC9
:103BA00078B1A4F83C90A4F83E80A4F84070A4F842
:103BB0004260656484F848A02046BDE8FE4F00F0EE
:103BC00002B80120D3E72DE9F04F044690F83C10ED
:103BD000D0F8009090F83E0087B04FF0FF36702983
:103BE00007DAB4F940203546012A00D50025803196
:103BF0000DE0902916DDB4F94020B4F90430012518
:103C0000521C9A4200DB0025A1F27F114942C9B241
:103C10008846702809DAB4F94210012900D5002637
:103C2000803010E00025FF21F2E790280DDDB4F987
:103C30004210B4F906200126491C914200DB0026FF
:103C4000A0F27F104042C7B201E00026FF27606962
:103C50000090A07D0590002083468246049094F851
:103C60003400400744D594F84810606C11FB0501FE
:103C70004944022201A815F005F8A08894F84810DC
:103C800010FB01F0616C022206FB0011494403A8FD
:103C900014F0F8FFA18894F8480011FB00F1626C61
:103CA00006FB012210FB05901118022202A814F055
:103CB000E9FF94F83400800761D594F84800626CFD
:103CC00010FB052300EB09010B4413F8013C04939E
:103CD000A38813FB00F306FB0322114411F801BC77
:103CE00010FB0500111801EB090010F8010C45E06C
:103CF000B4F84000B4F94220284401B204F118009D
:103D00008146236912F06AFB0190B4F84200B4F9CD
:103D10004010304402B254F8103F484612F05EFBA7
:103D20000390608E2368304402B2208E284401B292
:103D3000484612F053FB029094F82400103C800790
:103D40001DD5B4F9422034F8400F284401B248464A
:103D500012F0DCFA04906088B4F90010304402B22A
:103D6000484612F0D3FA83466088304402B234F8F1
:103D70004009284401B2484612F0C8FA824694F835
:103D8000340042464546800735D5059810FB08F3B8
:103D90000499C8F1FF0011FB0031C1F307211BFB9F
:103DA00008F61AFB0060C0F3072011FB07F3C7F108
:103DB000FF0610FB06331B0AA375022907D8022849
:103DC00003D8002007B0BDE8F08F002702E00228EA
:103DD00000D8FF270598022800D80022049802285E
:103DE00000D8FF22BBF1020F00D80025BAF1020F64
:103DF00003D8FF2501E0FF20A075EAB1FF2A04D017
:103E0000DDE900010EF0FEFB0090BDB1FF2D17D0E3
:103E1000DDE902102A460EF0F5FB049097B1FF2F62
:103E200005D001463A4600980EF0ECFB0090BDF834
:103E30000000A0820120C5E70198E5E70298ECE7C1
:103E40000398EAE7BDF81000F3E700002DE9F0471A
:103E50000446B0F908000A2700026062B4F90A00BB
:103E60000002A062B4F90C1091FBF7F5684200EB78
:103E7000800001EB4006684205F1010800B21BF02A
:103E8000F5FF8246E84300B21BF0F0FF8146C5F122
:103E90005A0000B21BF0EAFF0546C8F15A0000B212
:103EA0001BF0E4FFC6F10A0101FB0AF3024609FB1D
:103EB0000630694390FBF7F002FB061191FBF7F126
:103EC0004011E06248112063A07C12F034FB94F8AA
:103ED000341060F3000184F83410A07C12F01BFB56
:103EE00094F8341060F3410184F83410A07C042865
:103EF00024D0052822D0062820D021F0040100BFBC
:103F000084F8341021682162A16921F0E00160F396
:103F10000401A08860F39421E08860F35F51A161FF
:103F2000E0894FF4001101EB5001B1FBF0F0A06308
:103F3000FF20A075208AA082BDE8F08741F004012F
:103F4000DEE700002DE9F04115460E460746114C0C
:103F50001BF01AFD80462B4632463946204612F0A9
:103F60006BFE20B10020A062E06950B110E02C216E
:103F7000204614F0D1FE4FF00040A0620020BDE8C2
:103F8000F08140461BF0FAFCE06108B90120E061D5
:103F90002046F4E78850002010B51421074800F0AF
:103FA000A7F812F00FFE40B10549016005494160D4
:103FB000054981600549C16010BDFEE770500020D1
:103FC000F16501086D690108E56A0108BD65010830
:103FD0007FB50E46040003D10EF01CFF040023D071
:103FE0000025FEB1ADF80050ADF802500EF02AFFEA
:103FF000401EADF8040020460EF06AFF401EADF8EA
:1040000006006A46314602A8FFF7CEF900280BD019
:104010002068017C890708D5DDE90001C4E90C01AD
:1040200001202AE0A0F850517FBD82690AB102A99F
:10403000904700260BE000BF04EBC601002202A857
:104040003031FFF7D9F90028EED1761CB6B2B4F8BA
:104050005001B042F0D880B2202804D204EBC00056
:1040600002A9303004E0A4F8505104F13000694650
:104070000CF0FCFCB4F85001401CA4F8500160683E
:104080000028D1D01BF0BEFD7FBD70B5054600F005
:1040900012F804460CE02146284600F01EF80646B9
:1040A0002146284600F071F8204614F0EBFC344617
:1040B000002CF0D170BD002800D04068704700B5DA
:1040C00003460022FFF7F7FF03E01846521C00F0FA
:1040D00004F80100F9D1104600BD0068091D4058E0
:1040E0007047006840587047002800D080687047CB
:1040F00000224260C91C21F0030182600160704708
:1041000070B504460068083014F032FC050013D086
:104110000146002220461CF00FFE29462046626818
:104120001CF004FE616819B12A4620461CF004FE0A
:104130006560A06800B9A560284670BD70B50446EA
:104140000068083014F014FC050013D0014600226A
:1041500020461CF0EBFD29462046A2681CF0ECFD31
:10416000A16819B12A4620461CF0E0FDA5606068F0
:1041700000B96560284670BD28B1416809B98068FA
:1041800008B1002070470120704770B504000DD0C1
:10419000FFF791FF00228842204608D1FFF79DFFDC
:1041A0006060011E01D000221EE0A26070BDFFF71A
:1041B0009BFF8842206808440AD10168A16029B1A8
:1041C0002046BDE8704000221CF0B0BD626070BDAA
:1041D00005682046FFF781FF06460246294620462D
:1041E0001CF0A4FD2A4631462046BDE870401CF074
:1041F000A3BD10B50446006882680AB12146904705
:1042000020680068002801D02060F5E710BD8068B4
:10421000002801D0B0F91600704700002DE9F047E2
:10422000074690B0408C189E40F004007884904679
:104230003A8499468A463289384617F0EFF805469F
:10424000A7F8209032895146384617F0E7F804461F
:10425000788CA54220F00400788403D12904B1EBC6
:10426000044F68D0A7F8208032895146384617F0AD
:10427000D5F805468046A7F82090514638460AF002
:104280001BFF318900682A461AF0F4FA3089602849
:1042900023D147F6FF794D4501D04C451DD1384615
:1042A00017F007FA00EBD0704510384617F001FA06
:1042B00000EBD0704010C84506D1691C431C9942E0
:1042C00000DA00E0194688464C4506D1691C421CBC
:1042D000914201DA6C1C00E014461948FFF710FF08
:1042E00005002BD02F60C5E903843089A88068467B
:1042F000C5F808A00BF0D2FE1248FF21CDE900500E
:10430000114802901148039000200790CDE9080160
:1043100030880A9070889DF83E1040420B90F068FB
:104320000690002060F300018DF83E103069059082
:1043300068460BF027FF10B0BDE8F087FEE70000ED
:104340007C5000205542020849440208A543020857
:1043500014210148FFF7CCBE7C5000202DE9FC5F02
:10436000002592468B4606462C46042743F60F0846
:1043700043F60E0900E100BFF16807EBC4000858DE
:1043800082017DD480B230EA0B0212D05FF00002CD
:1043900030EA0A000FD00020824271D051F8340078
:1043A00001AA41F6100100901AF04AF8002868D1DD
:1043B00003E00122ECE70120EEE701AA41F611013A
:1043C00000981AF03DF8002873D101AA41F61201B5
:1043D00000981AF035F800286BD101AA41F61301B4
:1043E00000981AF02DF8002863D101AA41F61501B2
:1043F00000981AF025F800285BD101AA41F61401B3
:1044000000981AF01DF8E0BB01AA41F2690100987A
:104410001AF016F8A8BB01AA43F20C0100981AF092
:104420000FF870BB01AA43F20D0100981AF008F8CA
:1044300038BB01AA41F2010100981AF001F800BB53
:1044400001AA41F20401009819F0FAFFC8B901AAC3
:1044500041F20201009819F0F3FF90B901AA41F26C
:104460000301009819F0ECFF58B901AA41F20501C7
:10447000009819F0E5FF20B901AA41F2060101E018
:1044800079E016E0009819F0DBFF90B901AA41F23B
:104490003201009819F0D4FF58B901AA414600989A
:1044A00019F0CEFF28B901AA4946009819F0C8FFB3
:1044B00010B10320BDE8FC9F01AA40F60A01009854
:1044C00019F0BEFFF0BB01AA40F60B01009819F0ED
:1044D000B7FFB8BB01AA4146009819F0B1FF88BBED
:1044E00001AA4946009819F0ABFF58BB01AA40F653
:1044F0003C01009819F0A4FF20BB01AA40F63D0141
:10450000009819F09DFFE8B901AA40F63A01009819
:1045100019F096FFB0B901AA4FF40461009819F0A0
:104520008FFF78B901AA40F64501009819F088FF7D
:1045300040B901AA40F64101009819F081FF08B97D
:1045400001AA00E013E040F64201009819F078FF5C
:1045500068B901AA40F64301009819F071FF30B91B
:1045600001AA40F64901009819F06AFF08B1022536
:1045700001E005B90125641C708CC0F3C500A042A0
:104580003FF6FAAE284695E70148406870470000BC
:104590005C0000207047C0F30410072800D90720F2
:1045A0007047000010B518210348FFF7A1FD03492B
:1045B0000120087010BD000028500020CC01002010
:1045C0002DE9F04190460C46050015D0FBF75BFE47
:1045D0000A4F06462146BA68284690470446BA68FC
:1045E0002819414690470146701A03E06218AA5CF8
:1045F0002A55641CA042F9D2BDE8F081E0010020F8
:104600002DE9F041094D90460E466A681C46074662
:1046100019469047306020B120686A68384400210C
:104620009047C8F80000BDE8F0810000E0010020DC
:104630002DE9F04F87B08A46DDE910581F469346B2
:104640000446002105B129805CB12078002809D0FA
:10465000BAF1000F05D0002618F0060F15D0002083
:1046600004E0002007B0BDE8F08F401C215C0A295F
:1046700004D00D2902D00029F7D100E0401C002D04
:10468000F0D04FF0FF312980ECE75FEA887001D568
:1046900041F6FF77894608468DF81410049127E00B
:1046A0000498CDF8189068B34FF0000C05AA06AB3B
:1046B000CDF80CC0CDF80080CDE9013220443B4656
:1046C0005A4651461BF0FCFB06997A1A314417B240
:1046D0000EB288B104990144049120780A280BD0C5
:1046E0000D2809D0605C0A280FD00D280DD008468F
:1046F000205C08B1002FD3DC049848B105B12E80AE
:104700000498AFE74FF0010CD0E7481C0490F3E7A2
:10471000064A04A9204652689047002DF0D0014671
:104720000022504611F063FA06B2E8E7E0010020EB
:104730002DE9F0411746884606001ED0002F1CD0F8
:10474000FBF7A1FD04463846FBF79DFD050014D09C
:104750000B4A2C444146926830469047411903E089
:10476000621BB25C3255641EA142F9D930442A461C
:104770003946BDE8F04114F091BABDE8F08100007F
:10478000E001002000230278232902D0012A0DD065
:104790000FE02AB10021012A04D0022A04D008E047
:1047A000012101E0017004E0017001E0202902D044
:1047B0000123184670470221F6E72DE9F0410E4625
:1047C000804602460021334608461BF0B5FD0446EC
:1047D0000027401C14F0CCF8050008D02F553346B4
:1047E0004246611C1BF0A8FD2846BDE8F081FEE7AB
:1047F0002DE9F0471E4614460D468246DDF820900E
:1048000015E000BF4FEA540808FB065739465046EA
:104810004A469047002808DD44F30000C0EB5404EA
:1048200007EB0605A4F1010401E005DA4446002C7B
:10483000E8D12046BDE8F0873846FBE72DE9FC5F6C
:104840009B460CAB8A468146DDE9116093E8121065
:10485000DDE90F575FEA80784FF030031AD45EB17C
:104860005FEAC07808D000F00C0858EA0C0803D0C2
:10487000761E01E00B55641CBC4204D2202CF9D3F7
:1048800001E00B55641C5FEAC07803D0B44201D24A
:10489000202CF6D35FEAC06825D55FEA40580AD4D9
:1048A0004CB1BC4201D0B44205D1641E03D0102DDE
:1048B00003D1641E04E0102D02D0022D0AD00EE0B8
:1048C000850603D4202C1ED2782506E0202C1AD28F
:1048D000582502E0202C16D262250D55641C202C90
:1048E00011D20B55641C202C0DD2BCF1000F01D04D
:1048F0002D2306E0430701D52B2302E0030702D551
:1049000020230B55641CCDE900BAC84615468146E4
:104910008B46AA46800714D1274607E02A46DDE9E0
:1049200000316D1C2020C446E0477F1CB742F5D300
:1049300007E02A466D1C641EDDE900311BF8040007
:10494000C047002CF5D15FEA897006D409E02A46F9
:10495000DDE900316D1C2020C047A5EB0A00B04204
:10496000F5D32846BDE8FC9F2DE9F04F8FB099465E
:104970008B46DDE91818DDE91C63DDE91A4792462C
:104980008646002209B923F01003580507AD00D56B
:10499000C9B1B1FBF4F004FB1010C0B20A2801D277
:1049A000303009E05FEA836C02D54FF0410C01E042
:1049B0004FF0610C60440A38B1FBF4F1A854521C6A
:1049C00009B1202AE5D3CDF80880CDE90563CDE90A
:1049D0000052CDE903474B46524659467046FFF711
:1049E0002DFF0FB0BDE8F08F2DE9FF4F8FB01CAC4D
:1049F000DDE9239594E8030820AC94E8C004002482
:104A000050EA010201D125F010056A050DF11C08DC
:104A100002D550EA010217D032463B46FBF7D0FBE5
:104A2000D2B20A2A01D2303206E0AB0601D54123C8
:104A300000E061231A440A3A08F80420641C50EA92
:104A4000010201D0202CE7D3CDE90084CDF808B0D5
:104A5000CDE90595CDE9036A0FAF97E80F00FFF7A1
:104A6000EDFE13B0BDE8F08F9A4200D28854704733
:104A7000704700002DE9FF4F8DB00F460546002618
:104A800006E025280BD0DDE90F1290476D1C761C3F
:104A900028780028F5D111B03046BDE8F08F002409
:104AA000A246A1460122EC4900E0044315F8013F6B
:104AB000203B02FA03F00842F7D128782A2810D0C8
:104AC0006FF02F022878A0F13001092914D80AEBE1
:104AD0008A0102EB410144F0020400EB010A6D1C63
:104AE000F0E701CF5FEA000A03D544F40054CAF1AD
:104AF000000A44F002046D1C28782E2817D115F8FE
:104B0000010F44F004042A280ED06FF02F022878F9
:104B1000A0F1300109290AD809EB890102EB410112
:104B200000EB01096D1CF2E757F8049B6D1C287817
:104B30006C280FD006DC4C2817D068280DD06A28C6
:104B400014D104E0742810D07A280FD10DE044F479
:104B500000140AE044F4801401E044F4401469783D
:104B6000814202D104F580146D1C6D1C2A786E2AD6
:104B70001FD00CDC632A31D004DC002A8BD0582AE9
:104B800011D1A3E0642A68D0692A0CD165E0732AA8
:104B90002ED004DC6F2A73D0702A04D19BE0752AD2
:104BA0006FD0782A6ED01046DDE90F129047761C40
:104BB00050E1C4F30250022806D0032809D004288B
:104BC00001CF09D0066045E101CFF117C0E90061CE
:104BD00040E101CF06803DE106703BE117F8040B90
:104BE0008DF8000000208DF80100EB46012003E065
:104BF00057F804BB4FF0FF3061074FF0000102D4BB
:104C00000DE008F10101884649450FDA8045F8DBDF
:104C10001BF808100029F4D108E008F101018846CA
:104C20008142FADB1BF808100029F6D1DDE90F23D9
:104C3000AAEB08008146214600F036F9304400EB2B
:104C4000080604E0DDE90F121BF8010B9047B8F1EC
:104C50000108F7D221464846F7E00A21C4F302537F
:104C60004FF0000B0891022B04D001CFC117032B8A
:104C700009D00AE0FF1D27F00707F7E8020108E066
:104C800032E01FE020E000B2C117042B01D140B296
:104C9000C117031E71F1000307DA4FF0000CD0EBCF
:104CA0000C006CEB01012D2302E0230504D52B231E
:104CB0008DF82430012303E0E30701D02023F7E738
:104CC000984658E00A2110E010210EE010204FF025
:104CD000000B08900CE010214FF0000B44F004048E
:104CE0004FF00809089103E008214FF0000B0891EC
:104CF000C4F30253022B04D001CF0021032B06D0B2
:104D000006E0FF1D27F00707F7E8020103E080B285
:104D1000042B00D1C0B24FF0000823072BD5702A16
:104D200007D0DDF820C08CF0100C5CEA0B0C05D02D
:104D30000EE040238DF82430012308E050EA0103FF
:104D400006D030238DF824308DF825200223984694
:104D5000DDF820C08CF0080C5CEA0B0C0BD150EA9B
:104D6000010301D1630706D530238DF824304FF0BD
:104D70000108A9F10109582A04D038A20B9208AA07
:104D80000A920BE03AA2F9E75B46089AFBF718FA99
:104D90000B9B9B5C0A9A521E0A92137050EA010206
:104DA000F2D10A98ADEB000000F1200B600702D5AC
:104DB00024F4803401E04FF00109D94502DDA9EB6C
:104DC0000B0000E0002000EB0B0141440890AAEB2F
:104DD000010AE00306D4DDE90F232146504600F026
:104DE00063F806444FF0000908E009A911F809002A
:104DF000DDE90F12904709F10109761CC145F4DB8A
:104E0000E0030CD5DDE90F232146504600F04CF8B5
:104E1000064404E0DDE90F1230209047761C089923
:104E2000481E08900029F5DC08E00A980A990078E5
:104E3000491C0A91DDE90F129047761CBBF1000175
:104E4000ABF1010BF1DC21465046DDE90F2300F008
:104E500019F806446D1C1BE6092801003031323375
:104E600034353637383961626364656600000000A6
:104E70003031323334353637383941424344454690
:104E8000000000002DE9F041044600251E461746AB
:104E9000880404D405E039462020B0476D1C641E08
:104EA000F9D52846BDE8F0812DE9F04104460025FA
:104EB0001E469046C80301D5302700E0202788040D
:104EC00004D505E041463846B0476D1C641EF9D54F
:104ED0002846BDE8F0810A68531C0B6010707047CB
:104EE0002DE9FF4F89B005460A9800249246002814
:104EF00000D1FE4D8FE1252804D02246641C534684
:104F00000A990BE2491C4FF0000808460C91017801
:104F10002B2919D004DC202919D0232904D119E028
:104F20002D290ED0302909D00026C8B2FEF71CFA70
:104F3000B0B10CA8FEF701FA06461FE048F00101E7
:104F40000AE048F0020107E048F0040104E048F0FC
:104F5000080101E048F01001401C88460C90D6E79B
:104F60000C9908782A2809D1169840C81690002E66
:104F700002DA48F002087642491C0C910C984FF076
:104F8000000B01782E2919D1401C0C9048F4806840
:104F90000078FEF7E9F920B10CA8FEF7CEF98346B8
:104FA0000CE00C9A10782A2808D1169802C816909E
:104FB000002900DC0021521C8B460C920C980178D1
:104FC0006C290AD004DC68290FD06A2919D128E09D
:104FD000742929D07A2914D126E0401C0C9001783C
:104FE00048F480786C291CD00BE0401C0C900178B0
:104FF00048F08008682904D148F04001401C8846E8
:105000000C9002460078692822D015DC62281FD057
:105010000DDC252871D050281AD058287FF46DAFA8
:1050200016E048F40071E9E748F48071E6E7632888
:1050300078D06428F2D10BE0732874D004DC6F2898
:1050400006D07028EAD103E0752801D07828E5D190
:1050500078280DD058280BD070280BD0502809D0B4
:105060006F2816D0622816D00A2128F0100016E00A
:10507000102107E05078102148F48878562804D190
:10508000521C0C921078582807D01078502804D061
:1050900006E0082109E0022107E048F020008046F0
:1050A0001078692803D0642801D028F00C085FEA42
:1050B000485001D528F00108107869281ED06428CE
:1050C0001CD0562864D05FEA885072D5169804AB7D
:1050D000C01D002283E806080292CDE9076820F08F
:1050E00007005346F0E80212CDE90012169022465E
:1050F00028460A99FFF778FC89E00AE15FEA8850C0
:1051000024D5169804AFC01D20F00703F3E802026F
:105110001693002387E80A08CDE90768002A03DA16
:10512000012102E080E0A6E000210023029119465F
:105130001B1A914101DA114603E00021404261EB64
:10514000020153462246CDE90001D1E75FEAC8508B
:1051500004D5169804C80FE0524215E05FEA486093
:1051600003D5169810F8042B06E05FEA0860F0D526
:10517000169830F8042B12B21690CDE9021BCDE937
:105180000468D00F002AE7DDCDE9002053461EE079
:105190001698AAEB040202C81690486800680090AE
:1051A0000A980B6801192846FFF79AFE04442FE07D
:1051B000FFE75FEAC8500CD5CDE9021BCDE90468D2
:1051C00016980021534604C8CDE9002116902246C6
:1051D00019E05FEA486003D5169810F8042B08E040
:1051E0005FEA0860169803D530F8042B92B200E00D
:1051F00004C816900020CDE90020CDE9021BCDE9BE
:1052000004685346224628460A99FFF7ADFB044638
:105210000C98401C0C900C99087800287FF46BAE19
:1052200054457DD222467DE001275FEA887006D58D
:1052300009E02246641C534620200A99A8473846B4
:105240007F1CB042F5D316992246641C11F8040B5A
:10525000169153460A99A8475FEA887006D4D7E7A3
:105260002246641C534620200A99A84738467F1CD2
:10527000B042F5D3CCE7169850F8049B16904B46F5
:10528000BBF1000001D0014601E04FF0FF3148467C
:1052900000E0401C02780AB1491EFAD2C71A5FEA40
:1052A000485003D558465F4500D307465FEA8870EB
:1052B00006D512E02246641C534620200A99A847CE
:1052C00038467F1CB042F5D307E000BF224609F103
:1052D0000109641C53460A99A84799F8000040B197
:1052E0005FEA4851F2D5BBF1010B01E0714A0008B9
:1052F000ECD25FEA887006D48AE72246641C5346E3
:1053000020200A99A84738467F1CB042F5D37FE792
:1053100006E02246641C534625200A99A84777E7F1
:10532000AAF10102534600200A99A8470DB0204671
:10533000BDE8F08F10B502004FF000000CD04B1EFE
:10534000194200D0FEE70A44521E9A43B2F5803F4C
:1053500002D20C2A01D9104610BD0C2010BD084401
:105360004A1E401E9043114200D0FEE770470000E5
:105370002DE9F0410F4601210025044641862E46C5
:105380000BE01B49FAF786FF10B16D1CADB202E0CD
:10539000608E401C6086761CB6B257F8260010B1AD
:1053A00001780029EDD1208EA8421ED0A06A0026E7
:1053B00010B113F067FBA662E06A10B113F062FB54
:1053C000E662E80013F0D4FAA06238B1680013F086
:1053D000CFFAE06218B1A16A11B102E0FEE7FEE780
:1053E0000025690013F098FC2586BDE8F0810000D7
:1053F000481401082DE9F84F8146407A0F4600F025
:105400000700022819D010468046974200DD3A4630
:10541000164603202A4C2B4A00EB460020F00305D9
:10542000A06811681035411A636805EB010C9C45B2
:1054300005D2416821F0004124E00846E4E79D429E
:1054400019D892464FF0FF3B48196168884210D93D
:10545000002269461C48CDF800B00AF04FFB00223C
:1054600069461A480AF04AFBA168DAF80000091AEE
:10547000EAE7A068DDE7284613F07AFAC0B1416890
:1054800041F0004188EA6702416089EA0201016057
:10549000416801F04041491C31F080414160868102
:1054A000A0F80E8005D500F110018160BDE8F88FED
:1054B000FEE7A16801F1100229448260A160F5E7CE
:1054C00064000020BC01002001DE00085DFB000834
:1054D00070B586B000228DF808208DF80C208DF86C
:1054E0001020444C90F83C20142302F00302A578CD
:1054F0004FF4B476012A23D0022A5FD0AA4211D0F9
:1055000010F8265F05EB051505EB4505B5FBF3F532
:105510002570407800EB001000EB4000B0FBF3F08A
:105520006070A27004AA03A8CDE9000201EB41005B
:105530004FF6FF7101EA400002AB627821781AE071
:10554000AA4210D0858C05EB45056D02B5FBF6F53A
:10555000A58090F8270000EB001000EB4000B0FBA6
:10556000F3F06070A27004AA03A8CDE90002C9B2EA
:1055700002AB62783CE008F055F99DF810209DF8E8
:105580000C10D308BDF800209DF8080063F3040256
:10559000ADF800208A08BDF8001062F34A11ADF89A
:1055A0000010C108BDF8000061F3CF20ADF8000085
:1055B00080B20090BDF8000006B070BDAA4210D0C5
:1055C000858C05EB45056D02B5FBF6F5A58090F8D9
:1055D000260000EB001000EB4000B0FBF3F0207061
:1055E000A27004AA03A8CDE90002CAB2217802ABD6
:1055F000A088C0E71401002010B5084C01202070DD
:105600000748FEF758FD0028A06803D0BDE8104009
:105610001AF0F8BABDE810401AF0E8BAA00100206C
:105620005850002010B5044690F83E00626B810788
:1056300007D4A18F39B1A1F57F43FF3B15D0491E97
:10564000A187A18F89B90AB181070ED521461348D8
:10565000FEF79BFDFFF7D0FFE16809B120468847C0
:105660002046BDE8104013F00DBAA16B4942E1623B
:10567000002A11D0810702D4216B4942E162411016
:10568000491C61F3410084F83E00616AE069E16110
:105690006062A06AA262606310BD000058500020E2
:1056A00070B5304D68681AF069F90646687880F080
:1056B0000100687047E00020287094F83E00697887
:1056C000C0F380028A4242D061F3820084F83E0037
:1056D000E16A8A19030719D4002917DC002A15DBAF
:1056E000C00709D1216939B120468847E1690144E1
:1056F000E161616A08446062A16809B12046884797
:1057000094F83E0040F0080084F83E00E06A8019FA
:10571000E06216D4A16A884200DDE162A1692046F8
:1057200088470146206A884204D0216262680AB133
:1057300020689047D4E90A01814202DB2046FFF746
:1057400071FF287818B10848FEF7B5FC03E0214640
:105750000548FEF7C2FC0400ADD11AF015F96860E7
:1057600070BD0000A00100205850002070B5044614
:1057700040680D4608B1FFF7F9FF2268002A04D0FF
:1057800029462046BDE87040104770BD89B20BF035
:10579000D2B889B20BF00BB910B504464068820844
:1057A0000AD0496821F00301091D084460602046C1
:1057B00000F042F8204610BDFEE74068103120F0AE
:1057C0000300884201D301207047002070472DE973
:1057D000FC47054648680C4620F0030001AA6946CC
:1057E0001BF04CF9DDE9007005EBC71101EB8009F6
:1057F0008046D9F83C0060B164B1C4E9020504F107
:105800000806C46030460421FFF7A9FD864202D095
:10581000FEE7FEE7FEE7C9F83C400120296900FAEF
:1058200007F21143296105EB870100FA08F04A6984
:1058300002434A61BDE8FC8710B5044600F087F8D2
:10584000046010BD2DE9FC4706464FF000000D0036
:1058500000900746019042D00C46E9460DF104083D
:10586000802907D308461EF0EEFC411F0120884026
:10587000401E04444246494620461BF0FFF8009C67
:105880000A2C2CDA06EB8400019A40694FF0FF31B4
:1058900001FA02F210400CD1641C3069A1400840AA
:1058A0001DD01EF0C8FC0446009006EB8000406945
:1058B00078B11EF0C0FC034606EBC411019001EB69
:1058C0008000C76B5FB1786820F00300A84201D266
:1058D000FEE7FEE739463046009A1BF0B3FE384635
:1058E000BDE8FC8710B50446FFF7A6FF416841F00C
:1058F00002014160606840F00100606010BD10B5B9
:10590000044600F024F8416821F00201416060681B
:1059100020F00100606010BD70B506460D460846D7
:1059200000F015F8040010D02079C0070BD068688B
:1059300080080BD02146304600F03CF8214628462E
:10594000FFF72AFF0546284670BDFEE7FEE74268DE
:1059500000F1080122F00300001F0844910800D163
:10596000FEE7704770B506460C004FF000001ED0F1
:10597000F2B120791546C0071BD011462046FFF72B
:105980001CFF78B12946204600F025F80546204640
:10599000FFF752FF6868294640F002006860304611
:1059A000FFF715FF2046FFF7AAFF04F1080070BDBE
:1059B000FEE7FEE77CB5054648680C4620F003008C
:1059C00001AA69461BF05AF8DDE900232146284662
:1059D0001BF038FE7CBD2DE9F0410D46044600F178
:1059E0000801281F0E18606806F1080720F0030060
:1059F000401BA0F1040838460421FFF7B0FC8742A1
:105A000000D0FEE7606820F0030108EB0500001DF0
:105A1000814200D0FEE7307900F0030040EA080040
:105A2000706020F003000C2800D2FEE7207900F01F
:105A30000300284360603046FFF754FF3046BDE85E
:105A4000F08138B5044611F0FBFB054611F02DFC42
:105A50000028204605D0218FE18616F00DF901209F
:105A600038BD0FF0AFFD002820461ED00FF07FFCA0
:105A7000218FE08E81420CD02087E08E00906A4614
:105A80001C2120460FF0D8FF0128E9D1204616F04E
:105A9000F3F8284611F015FC0428E0D1204614F054
:105AA0002BFD002110F010FCD9E70FF0E7FDD6E741
:105AB00070B50FF0BCFF054614F064FD044628469F
:105AC0000BF06CFD01462046BDE87040012219F044
:105AD00081BA00002DE9F04F0D4687B00446002141
