:020000040800F2
:100000000892012069020008731800081F140008F4
:100010007118000853060008591A00080000000073
:10002000000000000000000000000000A11900080E
:10003000850600080000000075180008A3190008D4
:10004000830200088302000883020008830200087C
:10005000830200088302000883020008830200086C
:10006000830200088302000883020008830200085C
:10007000830200088302000883020008830200084C
:10008000830200088302000883020008830200083C
:10009000830200088302000883020008830200082C
:1000A000830200088302000883020008830200081C
:1000B000830200088302000883020008830200080C
:1000C00083020008830200088302000883020008FC
:1000D00083020008830200088302000883020008EC
:1000E00083020008830200088302000883020008DC
:1000F00083020008830200088302000883020008CC
:1001000083020008830200088302000883020008BB
:1001100083020008830200088302000883020008AB
:1001200083020008790600088302000883020008A1
:10013000830200088302000883020008830200088B
:10014000830200088302000883020008830200087B
:10015000830200088302000883020008830200086B
:10016000830200088302000883020008830200085B
:1001700083020008830200086D06000800000000EA
:10018000830200088302000800F002F800F05CF827
:100190000AA090E8000C82448344AAF10107DA45E2
:1001A00001D100F051F8AFF2090EBAE80F0013F0D8
:1001B000010F18BFFB1A43F001031847EC6C020053
:1001C0001C6D02000A444FF0000C10F8013B13F0C4
:1001D000070408BF10F8014B1D1108BF10F8015BA0
:1001E000641E05D010F8016B641E01F8016BF9D193
:1001F00013F0080F1EBF10F8014BAD1C0C1B09D1EA
:100200006D1E58BF01F801CBFAD505E014F8016B5B
:1002100001F8016B6D1EF9D59142D6D370470000ED
:100220000023002400250026103A28BF78C1FBD8FF
:10023000520728BF30C148BF0B6070471FB522F07E
:1002400013FB1FBD10B510BD00F0D5F91146FFF727
:10025000F5FF1EF081F900F0F3F903B4FFF7F2FFA8
:1002600003BC00F0BDF90000094880470948004779
:10027000FEE7FEE7FEE7FEE7FEE7FEE7FEE7FEE756
:10028000FEE7FEE704480549054A064B70470000B3
:10029000491A00088901000800C0012008920120C5
:1002A00000F001200812012053EA020C00F06980DE
:1002B0002DE9F04B4FF00006002B1FBFB3FA83F57A
:1002C00003FA05F424FA05F65E4012BF1643B2FAAB
:1002D00082F502FA05F4C5F120051EBF22FA05FCDD
:1002E00044EA0C04203556EA044C4FEA144418BF83
:1002F000641C4FF000084FF00009904271EB030CB2
:1003000039D3002919BFB1FA81F701FA07F6B0FA1B
:1003100080F700FA07F6C7F120071EBF20FA07FC96
:1003200046EA0C062037B6FBF4FCA7EB0507103FA6
:1003300007F01F0BCBF120060CFA0BFB2CFA06F68C
:1003400044BFB3460026202FA4BF5E464FF0000BEB
:100350005BEA060C08BF4FF0010B19EB0B09ABFB76
:10036000027C48EB0608C01B06FB02CC0BFB03CC4F
:1003700071EB0C01C1E70B46024641464846BDE819
:10038000F08B13B54FF000004FF00001AFF3008089
:10039000BDE81C40704740EA0103024630B59B07A8
:1003A00010D14FF0013400E008C208C91D1B9D4365
:1003B00015EAC41FF8D013F0FF0102F8011B0DD09D
:1003C0001B0AF8E711F8013B002B02F8013B05D0AE
:1003D00011F8013B002B02F8013BF3D130BD10B501
:1003E000431C02E010F8011B71B18107FAD14FF0F4
:1003F000013202C88C1A8C4314EAC211F9D0C01A17
:100400000A0603D0C01E10BDC01A10BD0A0401D0D8
:10041000801E10BD0902FCD0401E10BD032A40F210
:10042000308010F0030C00F0158011F8013BBCF196
:10043000020F624498BF11F801CB00F8013B38BFAE
:1004400011F8013BA2F1040298BF00F801CB38BFBC
:1004500000F8013B11F0030300F02580083AC0F0DA
:10046000088051F8043B083A51F804CBA0E8081082
:10047000F5E7121D5CBF51F8043B40F8043BAFF3B5
:100480000080D20724BF11F8013B11F801CB48BF0F
:1004900011F8012B24BF00F8013B00F801CB48BF45
:1004A00000F8012B704710B5203AC0F00B80B1E87E
:1004B0001850203AA0E81850B1E81850A0E8185099
:1004C000BFF4F5AF5FEA027C24BFB1E81850A0E8A2
:1004D000185044BF18C918C0BDE810405FEA827CBC
:1004E00024BF51F8043B40F8043B08BF7047D207D3
:1004F00028BF31F8023B48BF11F8012B28BF20F874
:10050000023B48BF00F8012B70474FF0000200B5D6
:10051000134694469646203922BFA0E80C50A0E826
:100520000C50B1F12001BFF4F7AF090728BFA0E8D4
:100530000C5048BF0CC05DF804EB890028BF40F8A0
:10054000042B08BF704748BF20F8022B11F0804FE2
:1005500018BF00F8012B70474FF0013C50F8042BF6
:1005600051F8043B9A4221D1A2EB0C03934313EAC6
:10057000CC1317D150F8042B51F8043B9A4215D1F3
:10058000A2EB0C03934313EACC130BD150F8042BCA
:1005900051F8043B9A4209D1A2EB0C03934313EAAE
:1005A000CC13DBD04FF00000704700BFD01A01BA67
:1005B000B1FA81F101F0180122FA01F0CB40C1F14A
:1005C0002001DBB2C0B2C01A2CFA01F3D11A914358
:1005D00011EAC311E6D170477047704770470000B9
:1005E00001491820ABBEFEE7260002000048704714
:1005F000A411012070477546FFF7F8FFAE460500CD
:100600006946534620F00700854618B020B5FFF72D
:1006100039FEBDE820404FF000064FF000074FF0D4
:1006200000084FF0000B21F00701AC46ACE8C00910
:10063000ACE8C009ACE8C009ACE8C0098D46704719
:1006400010B50446AFF300802046BDE81040FFF728
:1006500004BEFEE710B5806B816B496D022902D0A4
:10066000012180F8251000F010F810BD014800F0BD
:100670000FB80000FC010020014800F071B8000034
:100680003C020020704772B6FEE7704770470000DA
:100690002DE9F041044600680569264F69074FF0CF
:1006A00004060FD54661E06B40F00200E06384F879
:1006B0002560A06B0765A06B00F040F810B1A06B3F
:1006C000FFF7C8FFA80711D5216802204861E06B39
:1006D00040F00100E06384F82560A06B0765A06B23
:1006E00000F02CF810B1A06BFFF7B4FFE80605D5B9
:1006F000216810204861204600F01EF8280705D523
:10070000216808204861204600F017F8E8070FD05C
:1007100020680168890703D5C16821F01E01C16006
:100720002068C16821F00101C1602046FFF7AEFFDB
:10073000BDE8F081550600087047704790F8351005
:10074000022903D08021416501207047052180F8EE
:1007500035100068016821F0010101600020704738
:100760002DE9F84304464FF00009CDF800906348A6
:100770004FF41651A56D0068B0FBF1F72E6894F8A0
:100780005C10082000FA01F131420FD021680A689C
:1007900052070BD50A6822F004020A6094F85C1034
:1007A0008840A860606D40F00100606594F85C10BE
:1007B0004FF0010808FA01F0304208D02168496979
:1007C000090604D5A860606D40F00200606594F8E9
:1007D0005C1004208840304208D0216809688907ED
:1007E00004D5A860606D40F00400606594F85C106A
:1007F00010208840304218D021680968090714D5B4
:10080000A86020680168490304D50068000308D582
:10081000A16C07E00168C90503D4016821F0080153
:100820000160216C09B12046884794F85C102020B3
:100830008840304231D021680968C9062DD5A860AA
:1008400094F8350005282068016806D0490347D58B
:10085000006800031DD4616C1CE021F016010160EA
:100860002068416921F080014161206C08B9A06CC9
:1008700020B12068016821F00801016094F85C1043
:100880003F208840A86084F8358084F83490216D3A
:100890001FE0E16B09B120468847606D00282BD02E
:1008A000606DC00714D0052084F835002068016809
:1008B00021F0010101600098401C0090B84203D86B
:1008C00020680068C007F6D184F8358084F8349039
:1008D000E16C002910D001B02046BDE8F043084784
:1008E0000168C905D5D4016821F01001016084F8C0
:1008F000358084F83490CCE7BDE8F8830C00002004
:1009000070B5044600F00CF90546601C02D004489E
:100910000078044400F004F9401BA042FAD370BDF3
:10092000000000202DE9F84FDFF8BCA100220125CE
:1009300003264FF00F090AF1040BAAF1040E00BFC1
:100940000B6805FA02F42340A34270D10F7907F037
:100950000307012F01D0022F16D187684FEA420802
:1009600006FA08FC27EA0C07D1F80CC00CFA08FCC0
:100970004CEA070CC0F808C04768A7430C79C4F3D9
:10098000001494403C4344600C79E443A4070AD02B
:10099000C4684FEA420C06FA0CF7BC438F6807FAAA
:1009A0000CF72743C7600C7904F00304022C12D122
:1009B000D40800EB840CDCF820405707FF0E09FA3E
:1009C00007F824EA0804D1F8108008FA07F848EA82
:1009D0000408CCF8208004684FEA420C06FA0CF7B1
:1009E000BC430F7907F0030707FA0CF727430760AA
:1009F0004C6814F4403F70D03C4C276847F4804763
:100A00002760246822F0030704F480440094384CE3
:100A100007EB040CDCF8084897074FEA177809FA47
:100A200008F7BC43334FB84202D1002724E054E01A
:100A3000314FB84201D101271EE0304FB84201D1F9
:100A4000022719E02E4FB84201D1032714E02D4FA1
:100A5000B84201D104270FE02B4FB84201D105273E
:100A60000AE02A4FB84201D1062705E0284FB842D4
:100A700001D1072700E0082707FA08F72743CCF839
:100A80000878DAF800405746D1F804C09C435FEA82
:100A9000CC2C00D51C433C60DBF800405F46D1F80D
:100AA00004C09C435FEA8C2C00D51C433C60DEF8FC
:100AB00000407746D1F804C09C435FEA8C3C00D5E7
:100AC0001C433C60084F083F3C68D1F804C09C437D
:100AD0005FEACC3C00D51C433C60521C102AFFF45A
:100AE0002FAFBDE8F88F0000083C014044380240B9
:100AF00000300140000002400004024000080240B3
:100B0000000C024000100240001402400018024095
:100B1000001C02400AB1816170470904FBE7000034
:100B2000014880687047000000000020024881688A
:100B30000278114481607047000000200B4810B516
:100B4000016841F400710160016841F48061016055
:100B5000016841F480710160032000F061F80F200A
:100B600000F006F800F024F8002010BD003C024020
:100B700070B50D4D04464FF47A712878B1FBF0F052
:100B80000A490968B1FBF0F000F035FC48B9102CB7
:100B900007D200222146501E00F022F800206C608F
:100BA00070BD012070BD0000000000200C0000207E
:100BB0000A4808B5016841F480410160006800F40A
:100BC000804000900548001F016841F0805101609D
:100BD000006800F08050009008BD000044380240DA
:100BE000F0B40E4B1B680C46C3F30223C3F1070598
:100BF000042D00D90425191D072901D2002300E086
:100C0000DB1E012606FA05F1491E214099409E404F
:100C1000761E16403143F0BC00F01FBF0CED00E023
:100C2000064900F0070208684FF6FF03184040EA43
:100C30000220034A10430860704700000CED00E0FA
:100C40000000FA052DE9F0470E46050065D0DFF8F3
:100C50001481D8F80000F7B200F00700B04207D2C4
:100C600088F80070D8F8000000F00700B04254D1B6
:100C700028683D4C810712D5400703D5206840F411
:100C8000E05020602878000703D5206840F46040D9
:100C900020602068A96820F0F000084320602878D0
:100CA000C0072DD0304968680839012812D00228C1
:100CB00013D0032811D00968890700292DDA21688B
:100CC00021F0030101432160FFF72AFF814641F231
:100CD000883A0EE009688903EFE709688901ECE7C3
:100CE000FFF71EFFA0EB0901514502D90320BDE823
:100CF000F0872068696800F00C00B0EB810FEFD13D
:100D0000D8F80010404601F00701B14207D907703A
:100D1000006800F00700B04201D00120E7E7287822
:100D2000400705D52068E96820F4E05008432060BA
:100D30002878000706D52068296920F4604040EA39
:100D4000C100206000F018F82168084AC1F30311BF
:100D5000515CC8400649086006480068FFF708FF74
:100D60000020C4E7003C0240083802407228020814
:100D70000C00002004000020154810B5006810F099
:100D80000C02144813D04110042A0FD0082A0ED1A7
:100D90000F4C241F2268236802F03F025B0207D534
:100DA0002068C0F38810A0FB010106E0084610BDD2
:100DB0002168C1F38811A1FB00010023FFF774FA39
:100DC0002168C1F30141491C4900B0FBF1F010BD9D
:100DD000083802400024F4002DE9F84F04006ED0DA
:100DE0002078DFF84C93C007A9F104054AD009F137
:100DF00004000168C1F38101012908D00068C0F333
:100E0000810002280AD1D9F80000400206D52868DE
:100E1000800337D560680028E1D033E06068B0F522
:100E2000803F10D0B0F5A02F286810D020F480307B
:100E30002860286820F4802028606068A8B1FFF747
:100E40006FFE06460DE0286840F48030F4E740F479
:100E500080202860F7E700BFFFF762FE801B642850
:100E600073D828688003F7D50CE0FFF759FE0646D3
:100E700005E000BFFFF754FE801B6428F0D8286807
:100E80008003F7D42078DFF8AC8280074FF0000AA7
:100E90003ED5A748001D016811F00C0F08D000686E
:100EA000C0F3810002280BD1D9F80000400207D41A
:100EB0002868800716D5E068012800D112E033E1E8
:100EC000E068B8B10120C8F80000FFF729FE064627
:100ED00005E000BFFFF724FE801B0228C0D8286869
:100EE0008007F7D52868216920F0F80040EAC100A2
:100EF00028600DE0C8F800A0FFF712FE064604E0E7
:100F0000FFF70EFE801B02281FD828688007F7D441
:100F10002078000722D5864F87486169703771B104
:100F200001210160FFF7FCFD064604E0FFF7F8FD34
:100F3000801B022809D838688007F7D50EE0C0F872
:100F400000A0FFF7EDFD064605E082E0FFF7E8FDB3
:100F5000801B02287DD838688007F7D420784007A6
:100F600068D5DFF8CCB100270BF13C0BDBF80000B3
:100F7000C0000BD4DBF8001041F08051CBF800101A
:100F8000DBF80000012700F0805000906B4E3068C5
:100F9000C00510D4306840F480703060FFF7C0FDA9
:100FA000009005E0FFF7BCFD0099401A022850D8D8
:100FB0003068C005F6D55E4EA0686C3601280FD0AB
:100FC0000528306810D020F001003060306820F033
:100FD00004003060A068B8B1FFF7A2FD00900FE0F8
:100FE000306840F00100F4E740F004003060F7E7BB
:100FF000FFF796FD0099411A41F28830814266D888
:1010000030688007F4D50EE0FFF78AFD009007E016
:10101000FFF786FD0099411A41F28830814256D887
:1010200030688007F4D42FB1DBF8001021F0805134
:10103000CBF80010A069C8B33D49091D0968C1F388
:10104000810102294AD00228504607D0C8F8600022
:1010500000E03CE0FFF764FD04463BE04746C8F88B
:101060006000FFF75DFD064605E000BFFFF758FD95
:10107000801B02282BD828688001F7D4D4E9070107
:101080000843A16A2E4A490802EB0141626A41EA1B
:101090008211084394F82C1040EA0161C9F800104D
:1010A00001203866FFF73CFD044606E03EE000BF45
:1010B000FFF736FD001B022809D828688001F7D504
:1010C00034E000BFFFF72CFD001B022802D90320EB
:1010D000BDE8F88F28688001F4D427E00128F7D014
:1010E000D9F80000E26900F4800191421CD1226A23
:1010F00000F03F01914217D147F6C071626A01408A
:10110000B1EB821F10D1A26A4FF0FF3300F44031DF
:1011100003EB5202B1EB024F06D194F82C1000F011
:101120007060B0EB016F01D00120D1E70020CFE764
:101130000438024000004742800E474200700040E1
:101140000000FFFF70B5040009D0606A002540B1BF
:1011500025616561A56294F8510040B10CE0012061
:1011600070BD6068B0F5827FF4D0E561F2E784F885
:101170005050204600F044F8022084F851002068C6
:10118000016821F040010160A088218900F482708B
:1011900001F404410843A18901F400610843217C62
:1011A00001F002010843217D01F001010843218B78
:1011B00001F400710843217F01F03801084394F8DD
:1011C000201001F080010843218D01F400510843F3
:1011D00021680860A069042101EA104094F82410F5
:1011E00001F010010843216848602068C16921F4BA
:1011F0000061C1616565012084F85100002070BD67
:10120000F0B587B0044614216846FFF77EF91C4903
:101210002068884232D11B480024016841F4804193
:101220000160006800F4804005901648103801689D
:1012300041F004010160016801F0040105910168B9
:1012400041F0020101600068022500F002000590F3
:101250000C20CDE9000502AA0326052782E8D0006C
:1012600069460948FFF75EFB2803CDE9000502AA9D
:10127000694682E8D0000548FFF754FB07B0F0BD8F
:10128000003800404038024000080240000402409C
:101290002DE9F84F984616468A460446FFF740FC6B
:1012A000814694F8510001281ED1BAF1000F73D085
:1012B000002E71D094F85000012815D0012784F831
:1012C0005070032084F8510000256565C4F830A0F3
:1012D000A686E686A563A587E58765642564A0687C
:1012E000B0F5004F03D00CE00220BDE8F88F206875
:1012F000016821F0400101602068016841F48041EB
:10130000016020680168490603D4016841F040018A
:101310000160E068B0F5006F606803D048B3012E4B
:1013200027D047E008B1012E1FD1206B216800882B
:10133000C86006E020688168890709D5216B0988A3
:10134000C160206B801C2063E08E401EE0860CE0B4
:10135000FFF7E6FBA0EB0901414503D3B8F1FF3FDE
:1013600003D035E0B8F1000F32D0E08E0028E1D193
:1013700023E0206B21680078087306E0206881680C
:1013800089070AD5216B09780173206B401C206303
:10139000E08E401EE0860DE02BE0FFF7C1FBA0EBE6
:1013A0000901414503D3B8F1FF3F03D010E0B8F184
:1013B000000F0DD0E08E0028E0D14A46414620467D
:1013C00000F05AFA08B120206065A06830B109E049
:1013D00084F8517084F85050032086E72068C16873
:1013E0008068009084F8517004F8505F60680028AD
:1013F000F3D0012079E710B5401EB0F1807F01D312
:10140000012010BD4FF0E02460610F21601700F053
:1014100024FB0020A06107202061002010BDFEE712
:101420007FB500F021F9714D4FF480540022214620
:101430002846FFF76FFB0520FFF762FA01222146DD
:101440002846FFF767FB012000F04AF94FF47A7055
:10145000FFF756FACB2000F043F965A1D1E900016E
:10146000CDE900010521684600F04EF9CF2000F0DB
:1014700037F961A0032100680090684600F044F944
:10148000E82000F02DF95DA0032100680090684677
:1014900000F03AF9EA2000F023F90024022168461E
:1014A000009400F031F9ED2000F01AF954A0042165
:1014B00000680090684600F027F9F72000F010F966
:1014C00050A0012100680090684600F01DF9C0207E
:1014D00000F006F94CA0012100680090684600F079
:1014E00013F9C12000F0FCF848A001210068009029
:1014F000684600F009F9C52000F0F2F844A0022186
:1015000000680090684600F0FFF8C72000F0E8F897
:1015100040A0012100680090684600F0F5F83620F0
:1015200000F0DEF83CA0012100680090684600F061
:10153000EBF83A2000F0D4F838A0012100680090C0
:10154000684600F0E1F8B12000F0CAF834A00221AA
:1015500000680090684600F0D7F8B62000F0C0F8A8
:1015600030A0032100680090684600F0CDF8F2201A
:1015700000F0B6F801216846009400F0C5F8262076
:1015800000F0AEF828A0012100680090684600F045
:10159000BBF8E02000F0A4F824A00FC88DE80F00ED
:1015A0000F21684600F0B0F8E12000F099F823A17F
:1015B0000FC98DE80F000F21684600F0A5F8112033
:1015C00000F08EF87820FFF79BF9292000F088F8CA
:1015D000362000F085F810A00121006800906846D0
:1015E00000F092F8BDE87F4000F072B800040240BD
:1015F000392C00340200000000C130008500780062
:10160000640312812000000023000000100000008D
:101610003E28000086000000400000005500000049
:101620000018000008822700010000000F312B0C79
:101630000E084EF1370710030E090000000E1403C8
:10164000110731C148080F0C31360F0010B50446A0
:1016500000F00AF80CB1212000E0202000F040F852
:10166000BDE8104000F034B800224FF400410148BA
:10167000FFF750BA00040240F8B507461C4615466D
:101680000E462A2000F02CF8380A8DF800008DF85C
:101690000170280A8DF802008DF803500421684675
:1016A00000F032F82B2000F01BF8300A8DF8000013
:1016B0008DF80160200A8DF802008DF803400421A6
:1016C000684600F021F8BDE8F8402C2000F008B88A
:1016D0000122D1030148FFF71DBA000000040240B7
:1016E00001B500224FF480410548FFF713FA4FF08F
:1016F000FF33012269460348FFF7CAFD08BD000019
:10170000000402409C0200202DE9F0410C460646F0
:10171000012291030C48FFF7FDF94FF400474FF009
:10172000FF380DE0BC4201D9384600E0204685B2C2
:1017300043462A4631460548FFF7AAFD2E44641B5E
:10174000002CEFD1BDE8F081000402409C02002093
:101750002DE9F04186B014216846FEF7D6FE2F48E9
:101760004FF00008016841F010010160016801F0CC
:1017700010010591016841F080010160016801F0EC
:1017800080010591016841F004010160016801F0E8
:1017900004010591016841F001010160016801F057
:1017A00001010591016841F002010160016801F049
:1017B00002010591016841F0080101600068184EBE
:1017C00000F008004DF620440590012221463046E5
:1017D000FFF7A0F9134F0122D8213846FFF79AF9F5
:1017E000009401240325694630460194CDE9024561
:1017F000FFF798F8D820CDE9000469463846CDE9CE
:101800000245FFF78FF80820CDE9000869460294E9
:101810003046FFF787F806B0BDE8F0813038024067
:1018200000040240000C0240104810B50E4901604F
:101830004FF482714160002102228160C0E90312ED
:1018400001224261520282612822C0E907214162DD
:1018500081620A21C162FFF775FC002803D0BDE850
:101860001040FEF710BF10BD003800409C02002061
:10187000FEE7FEE770470000F8B515460E460B463A
:10188000009204460122022100F02CF8A0B913486E
:1018900013490068B0FBF1F04FF47A7148430090AF
:1018A0006068B0F5827F0DD133460022802120464A
:1018B000009500F017F870B1606D40F02000606591
:1018C0000320F8BD009830B1401E00902068806869
:1018D000C0430006F6D50020F8BD00000C00002033
:1018E00000366E012DE9F8431E46914688460446AF
:1018F000089DFFF715F9401B351AFFF711F9074648
:1019000026480068C0F3CB3068430AE0701C09D059
:10191000FFF706F9C01BA8420FD275B10098B8B303
:10192000401E00902068816838EA010033D0002111
:101930004945EBD10020BDE8F8832068416821F0DB
:10194000E00141606068B0F5827F0BD1A068B0F51E
:10195000004F02D0B0F5806F04D12068016821F0FB
:1019600040010160A06AB0F5005F09D120680168FC
:1019700021F4005101602068016841F400510160C8
:10198000012084F85100002084F850000320D2E7A1
:10199000FFE70025C6E70121CAE700000C00002090
:1019A000704710B5FFF7C2F8BDE8104001201CF0E9
:1019B000BDB8000030B593B030216846FEF7A5FDF4
:1019C00014210CA8FEF7A1FD1D480025016841F077
:1019D00080510160006800F0805011901948016842
:1019E00041F4804101600068022400F480401190BD
:1019F00001200090000401908001CDE9064008AA72
:101A00000420A82182E813000B906846FFF7E4F950
:101A100008B172B6FEE70CA90F2081E831004FF43F
:101A2000A0500F904FF48050109005210CA8FFF7A4
:101A300009F9002801D072B6FEE713B030BD0000EE
:101A400040380240007000400248016841F47001D3
:101A50000160704788ED00E0FEE70907090E0028E5
:101A600004DB00F1E02080F80014704700F00F0064
:101A700000F1E02080F8141D704770B50446002581
:101A80006FF02F0608E02068411C2160007805EB0C
:101A9000850106EB410145182068007800F004F844
:101AA0000028F0D1284670BD3038092801D801201F
:101AB000704700207047000010B54021074800F033
:101AC000B7FE00221E2106481CF08AF8054CA060D3
:101AD00001F0FCFE0020207010BD0000D84F002057
:101AE000753900088001002070B5B1F90030B2F9F5
:101AF0000040A34200DC23460380B1F90250B2F952
:101B00000240A54200DD2C464480B1F90460B2F9E0
:101B10000450AE4200DA35468580B1F90610B2F9BC
:101B20000620914200DB1146C1800120AB4201DC5E
:101B30008C4200DD002070BDF8B50D460446B0F9BA
:101B40000000B1F900101646884247DBB4F90210D4
:101B5000B5F90220914241DBB4F90410B5F9042033
:101B600091423BDCB4F90610B5F90620914235DC10
:101B700096B3ADF800006088ADF8020032466946C1
:101B8000284600F099F8002827D0A088ADF800007A
:101B90006088ADF8020032466946284600F08CF8AD
:101BA00000281AD02088ADF80000E088ADF80200C7
:101BB00032466946284600F07FF800280DD0A088FC
:101BC000ADF80000E088ADF80200324669462846CC
:101BD00000F072F8002800D00120F8BD0020F8BD08
:101BE000B0F90020B1F904309A4213DCB0F90420B6
:101BF000B1F900309A420DDBB0F90220B1F906309C
:101C00009A4207DCB0F90600B1F90210884201DB04
:101C10000120704700207047F8B50D460446B0F922
:101C20000400B1F900101646884243DBB4F90600FF
:101C3000B5F9021088423DDBB4F90000B5F9041093
:101C4000884237DCB4F90210B5F90620914231DC44
:101C500076B3ADF800006088ADF802003246694600
:101C6000284600F029F818BBA088ADF8000060886D
:101C7000ADF8020032466946284600F01DF8B8B9B2
:101C80002088ADF80000E088ADF8020032466946D1
:101C9000284600F011F858B9A088ADF80000E08897
:101CA000ADF8020032466946284600F005F808B152
:101CB0000020F8BD0120F8BD2DE9FC4114460E4678
:101CC000B1F90020B0F9001005468A423ADBB5F9B7
:101CD0000400824236DCB6F90270B5F90220974260
:101CE00030DBB5F906309F422CDC002C75DD401A44
:101CF0009A1A401C521C00B212B200EBD07002EBD8
:101D0000D27240105210904200DB1046844200DD37
:101D10000446ADF80010288800222044ADF80400E5
:101D20006888ADF80200688831462044ADF80600A6
:101D30006846FFF7C1FF40B1BDF804002044ADF88C
:101D400004003FE00020BDE8FC81E8880022001B81
:101D5000ADF80200E888ADF8060031466846FFF7A6
:101D6000ABFF28B1BDF804002044ADF8040011E039
:101D7000A8880022001BADF80000A888ADF8040078
:101D800031466846FFF798FF50B1BDF80000001BD0
:101D9000ADF80000BDF80200001BADF8020016E02F
:101DA0006888ADF80200688800222044ADF806007B
:101DB00031466846FFF780FF70B1BDF80000001B98
:101DC000ADF80000BDF806002044ADF8060031462D
:101DD000684619F063FAB6E7FFE70120B3E710B5EC
:101DE000B1F90040B2F900309C4200DA234603808A
:101DF000B1F90240B2F902309C4200DA2346438036
:101E0000B1F90440B2F904309C4200DD23468380DE
:101E1000B1F90610B2F90620914200DC1146C180EA
:101E200010BD0000FEB507461BF076FE0025354CC0
:101E30000646009537B1F868606038461BF09EFF93
:101E4000606802E00FF038F96060006919F0C2F9CB
:101E50006068406908B119F0BDF96068C06919F09F
:101E6000B9F96068006A19F0B5F960680169E1B311
:101E700019F042FC19F0BEFB6068B0F8501199B33C
:101E80000168097C890715D50FF074F9401E07B267
:101E900060680FF029F9401E03B20022114601A824
:101EA00000970CF0DEFF606801A90268926B516038
:101EB00003F0FCFF60684FF48071303014F0FCFFD9
:101EC0006068202100F5987014F0F6FF6068A0F8B3
:101ED000505130461BF01AFE009060680068436A5B
:101EE00013B122680099984700E007E014F026FE3D
:101EF00000F036F8BDE8FE4000F006B8A0F85051FA
:101F0000FEBD00003C00002070B50A4D002400BF5B
:101F1000C4EBC40655F8260008B114F083FE05EBA7
:101F200086001C2114F0C8FF641CE4B2042CEFD31B
:101F300070BD0000B4500020084949680AE04A68B2
:101F4000824202D00A68824203D10A7E42F0010234
:101F50000A7649690029F2D170470000100000207C
:101F6000704700000421014800F062BCCC4F002003
:101F70001C21014800F05CBCE44F00202DE9FF5F0C
:101F80000446DDE90E0613B9B0F5807F7ED0B6F9C0
:101F900000504FF0FF376D42454307EB25252DB22A
:101FA0002580B6F902C0CCF1000C0CFB00FC07EB5D
:101FB0002C273FB26780B6F900C0A1EB0C0141436A
:101FC0004FF0020C0CEB212109B2A180B6F902807E
:101FD000A2EB080242430CEB222000B2E080002B6F
:101FE0007ED04FF00A0A93FBFAF5684200EB8000BE
:101FF00003EB400705F1010928B21BF0FFFF009039
:102000000FFA89F01BF0FAFF83465A3528B21BF00D
:10201000F5FF804609F15A0000B21BF0EFFF0146C0
:10202000009AC7F10A0000FB02F300FB08F00BFB6B
:10203000073301FB070193FBFAF291FBFAF04FEA39
:10204000601AB4F90010B4F902000AFB01FCCDF8E3
:102050000CC05511378805FB10C207EBA2220FFAFE
:1020600082F905FB01F2BB46029277880AFB002148
:1020700007EBA1210BB2B4F90410BE460AFB01FC28
:1020800005FB10C20BEBA22216B200E02FE005FB0D
:1020900001F7CDE9007CB4F90680DDF80CC00AFB3D
:1020A000007005FB18C1DDF804C0009F05FB18C5D2
:1020B000029A0AFB087C0AFB08220BEBA1210EEB1B
:1020C000AC270EEBA02009B20EEBA2220BEBA5254C
:1020D0000FFA87FC00B212B22DB24F46494500E01C
:1020E0000EE000DA0F46B54216DAA84615E00020E9
:1020F0002080491E6080A180521EE280BDE8FF9FC3
:1021000032882A44228072883A446280328811449C
:10211000A180718808444FE0B046474504DA4F4635
:10212000494506DA0F4604E0B54201DA2F4600E0E1
:10213000374627804F46494500DD0F46B54201DD51
:10214000A84600E0B046474503DD4D46494505DC5D
:1021500001E0B54201DD294600E03146A1809A4206
:1021600001DA154600E01D46844501DA614600E0CB
:1021700001468D4205DA9A4201DA114606E0194617
:1021800004E0844501DA614600E0014661809A423C
:1021900001DD114600E01946844501DD654600E099
:1021A0000546A94205DD9A4201DD104604E01846C5
:1021B00002E0844500DD6046E0809FE72DE9FE4FA8
:1021C0000446D0F800B0B0F90800E589091AB4F95E
:1021D0000A00101AD4E90932B5F5807F37D0A589F5
:1021E000002DA56B05FB01F13FD045434E11691150
:1021F000206BE56A00FB06F705FB1177754300FBD2
:10220000015003EBA72902EBA020B4F904104FEA18
:10221000292706128046B94248DD002F46DBB4F973
:102220000600B04242DD002E40DB94F83400420745
:102230003FD5820704F114001DD401FB0671022270
:102240004D0092460BEB050114F0ECFD23E0266BEC
:10225000E56A06FB01F705FB10774D4306FB0050CE
:1022600003EBA70902EBA000CFE7454303EB61199D
:1022700002EB6510C9E701FB067101EB41054FF068
:10228000030A0BEB0501022214F0CCFDE81C5844B4
:1022900010F8010CA07594F83400C0071FD04FF659
:1022A000FF70ADF80000A18A814218D10020BDE87E
:1022B000FE8F32B204F118002369CDE90102002536
:1022C00039B2AA468B4612F0DBF90090BDF8000047
:1022D000A082DDE90102594612F06AF9DAE7E07CF2
:1022E00078B1A4F83C90A4F83E80A4F84070A4F81B
:1022F0004260656484F848A02046BDE8FE4F00F0C7
:1023000002B80120D3E72DE9F04F044690F83C10C5
:10231000D0F8009090F83E0087B04FF0FF3670295B
:1023200007DAB4F940203546012A00D5002580316E
:102330000DE0902916DDB4F94020B4F904300125F0
:10234000521C9A4200DB0025A1F27F114942C9B21A
:102350008846702809DAB4F94210012900D5002610
:10236000803010E00025FF21F2E790280DDDB4F960
:102370004210B4F906200126491C914200DB0026D8
:10238000A0F27F104042C7B201E00026FF2760693B
:102390000090A07D0590002083468246049094F82A
:1023A0003400400744D594F84810606C11FB0501D7
:1023B0004944022201A814F035FDA08894F8481081
:1023C00010FB01F0616C022206FB0011494403A8D6
:1023D00014F028FDA18894F8480011FB00F1626C0C
:1023E00006FB012210FB05901118022202A814F02E
:1023F00019FD94F83400800761D594F84800626CA8
:1024000010FB052300EB09010B4413F8013C049376
:10241000A38813FB00F306FB0322114411F801BC4F
:1024200010FB0500111801EB090010F8010C45E044
:10243000B4F84000B4F94220284401B204F1180075
:102440008146236912F01CF90190B4F84200B4F9F6
:102450004010304402B254F8103F484612F010F9D0
:102460000390608E2368304402B2208E284401B26B
:10247000484612F005F9029094F82400103C8007B9
:102480001DD5B4F9422034F8400F284401B2484623
:1024900012F08EF804906088B4F90010304402B253
:1024A000484612F085F883466088304402B234F81A
:1024B0004009284401B2484612F07AF8824694F85E
:1024C000340042464546800735D5059810FB08F391
:1024D0000499C8F1FF0011FB0031C1F307211BFB78
:1024E00008F61AFB0060C0F3072011FB07F3C7F1E1
:1024F000FF0610FB06331B0AA375022907D8022822
:1025000003D8002007B0BDE8F08F002702E00228C2
:1025100000D8FF270598022800D800220498022836
:1025200000D8FF22BBF1020F00D80025BAF1020F3C
:1025300003D8FF2501E0FF20A075EAB1FF2A04D0EF
:10254000DDE900010EF0B0F90090BDB1FF2D17D00C
:10255000DDE902102A460EF0A7F9049097B1FF2F8B
:1025600005D001463A4600980EF09EF90090BDF85D
:102570000000A0820120C5E70198E5E70298ECE79A
:102580000398EAE7BDF81000F3E700002DE9F047F3
:102590000446B0F908000A2700026062B4F90A0094
:1025A0000002A062B4F90C1091FBF7F5684200EB51
:1025B000800001EB4006684205F1010800B21BF003
:1025C0001DFD8246E84300B21BF018FD8146C5F1AF
:1025D0005A0000B21BF012FD0546C8F15A0000B2C5
:1025E0001BF00CFDC6F10A0101FB0AF3024609FBD0
:1025F0000630694390FBF7F002FB061191FBF7F1FF
:102600004011E06248112063A07C12F0E6F894F8D3
:10261000341060F3000184F83410A07C12F0CDF87F
:1026200094F8341060F3410184F83410A07C04283D
:1026300024D0052822D0062820D021F0040100BF94
:1026400084F8341021682162A16921F0E00160F36F
:102650000401A08860F39421E08860F35F51A161D8
:10266000E0894FF4001101EB5001B1FBF0F0A063E1
:10267000FF20A075208AA082BDE8F08741F0040108
:10268000DEE700002DE9F04115460E460746114CE5
:102690001BF042FA80462B4632463946204612F05D
:1026A0001DFC20B10020A062E06950B110E02C2197
:1026B000204614F001FC4FF00040A0620020BDE86D
:1026C000F08140461BF022FAE06108B90120E06188
:1026D0002046F4E70850002010B51421074800F008
:1026E000A7F812F0C1FB40B10549016005494160FE
:1026F000054981600549C16010BDFEE7F04F00202B
:1027000095480108114C0108894D010861480108EC
:102710007FB50E46040003D10EF0CEFC040023D09A
:102720000025FEB1ADF80050ADF802500EF0DCFC13
:10273000401EADF8040020460EF01CFD401EADF812
:1027400006006A46314602A8FFF7CEF900280BD0F2
:102750002068017C890708D5DDE90001C4E90C0186
:1027600001202AE0A0F850517FBD82690AB102A978
:10277000904700260BE000BF04EBC601002202A830
:102780003031FFF7D9F90028EED1761CB6B2B4F893
:102790005001B042F0D880B2202804D204EBC0002F
:1027A00002A9303004E0A4F8505104F13000694629
:1027B0000CF0AEFAB4F85001401CA4F85001606867
:1027C0000028D1D01BF0E6FA7FBD70B5054600F0B9
:1027D00012F804460CE02146284600F01EF8064692
:1027E0002146284600F071F8204614F01BFA3446C2
:1027F000002CF0D170BD002800D04068704700B5B3
:1028000003460022FFF7F7FF03E01846521C00F0D2
:1028100004F80100F9D1104600BD0068091D4058B8
:102820007047006840587047002800D080687047A3
:1028300000224260C91C21F00301826001607047E0
:1028400070B504460068083014F062F9050013D032
:102850000146002220461CF081FA29462046626883
:102860001CF076FA616819B12A4620461CF076FA07
:102870006560A06800B9A560284670BD70B50446C3
:102880000068083014F044F9050013D00146002216
:1028900020461CF05DFA29462046A2681CF05EFA2C
:1028A000A16819B12A4620461CF052FAA56060685A
:1028B00000B96560284670BD28B1416809B98068D3
:1028C00008B1002070470120704770B504000DD09A
:1028D000FFF791FF00228842204608D1FFF79DFFB5
:1028E0006060011E01D000221EE0A26070BDFFF7F3
:1028F0009BFF8842206808440AD10168A16029B181
:102900002046BDE8704000221CF022BA626070BD13
:1029100005682046FFF781FF064602462946204605
:102920001CF016FA2A4631462046BDE870401CF0DD
:1029300015BA10B50446006882680AB1214690476E
:1029400020680068002801D02060F5E710BD80688D
:10295000002801D0B0F91600704700002DE9F047BB
:10296000074690B0408C189E40F004007884904652
:102970003A8499468A463289384616F01FFE054643
:10298000A7F8209032895146384616F017FE0446C3
:10299000788CA54220F00400788403D12904B1EB9F
:1029A000044F68D0A7F8208032895146384616F087
:1029B00005FE05468046A7F82090514638460AF0A5
:1029C000CDFC318900682A461AF010F83089602859
:1029D00023D147F6FF794D4501D04C451DD13846EE
:1029E00016F037FF00EBD0704510384616F031FF77
:1029F00000EBD0704010C84506D1691C431C9942B9
:102A000000DA00E0194688464C4506D1691C421C94
:102A1000914201DA6C1C00E014461948FFF710FFE0
:102A200005002BD02F60C5E903843089A880684653
:102A3000C5F808A00BF084FC1248FF21CDE9005036
:102A4000114802901148039000200790CDE9080139
:102A500030880A9070889DF83E1040420B90F068D4
:102A60000690002060F300018DF83E10306905905B
:102A700068460BF0D9FC10B0BDE8F087FEE7000017
:102A8000FC4F0020792202086D240208C9230208A5
:102A900014210148FFF7CCBEFC4F00202DE9FC5F5C
:102AA000002592468B4606462C46042743F60F081F
:102AB00043F60E0900E100BFF16807EBC4000858B7
:102AC00082017DD480B230EA0B0212D05FF00002A6
:102AD00030EA0A000FD00020824271D051F8340051
:102AE00001AA41F61001009019F066FD002868D196
:102AF00003E00122ECE70120EEE701AA41F6110113
:102B0000009819F059FD002873D101AA41F612016D
:102B1000009819F051FD00286BD101AA41F613016C
:102B2000009819F049FD002863D101AA41F615016A
:102B3000009819F041FD00285BD101AA41F614016B
:102B4000009819F039FDE0BB01AA41F26901009833
:102B500019F032FDA8BB01AA43F20C01009819F04C
:102B60002BFD70BB01AA43F20D01009819F024FD62
:102B700038BB01AA41F20101009819F01DFD00BB0C
:102B800001AA41F20401009819F016FDC8B901AA82
:102B900041F20201009819F00FFD90B901AA41F22B
:102BA0000301009819F008FD58B901AA41F2050186
:102BB000009819F001FD20B901AA41F2060101E0D7
:102BC00079E016E0009819F0F7FC90B901AA41F2FB
:102BD0003201009819F0F0FC58B901AA414600985A
:102BE00019F0EAFC28B901AA4946009819F0E4FC5A
:102BF00010B10320BDE8FC9F01AA40F60A0100982D
:102C000019F0DAFCF0BB01AA40F60B01009819F0AC
:102C1000D3FCB8BB01AA4146009819F0CDFC88BB93
:102C200001AA4946009819F0C7FC58BB01AA40F612
:102C30003C01009819F0C0FC20BB01AA40F63D0100
:102C4000009819F0B9FCE8B901AA40F63A010098D9
:102C500019F0B2FCB0B901AA4FF40461009819F060
:102C6000ABFC78B901AA40F64501009819F0A4FC24
:102C700040B901AA40F64101009819F09DFC08B93D
:102C800001AA00E013E040F64201009819F094FC1C
:102C900068B901AA40F64301009819F08DFC30B9DB
:102CA00001AA40F64901009819F086FC08B10225F6
:102CB00001E005B90125641C708CC0F3C500A04279
:102CC0003FF6FAAE284695E7014840687047000095
:102CD0003C0000207047C0F30410072800D90720EB
:102CE0007047000010B518210348FFF7A1FD034904
:102CF0000120087010BD0000A84F0020AC0100208A
:102D00002DE9F04190460C46050015D0FDF767FB14
:102D10000A4F06462146BA68284690470446BA68D4
:102D20002819414690470146701A03E06218AA5CD0
:102D30002A55641CA042F9D2BDE8F081C0010020F0
:102D40002DE9F041094D90460E466A681C4607463B
:102D500019469047306020B120686A6838440021E5
:102D60009047C8F80000BDE8F0810000C0010020D5
:102D70002DE9F04F87B08A46DDE910581F4693468B
:102D80000446002105B129805CB12078002809D0D3
:102D9000BAF1000F05D0002618F0060F15D000205C
:102DA00004E0002007B0BDE8F08F401C215C0A2938
:102DB00004D00D2902D00029F7D100E0401C002DDD
:102DC000F0D04FF0FF312980ECE75FEA887001D541
:102DD00041F6FF77894608468DF81410049127E0E4
:102DE0000498CDF8189068B34FF0000C05AA06AB14
:102DF000CDF80CC0CDF80080CDE9013220443B462F
:102E00005A4651461BF024F906997A1A314417B2F2
:102E10000EB288B104990144049120780A280BD09D
:102E20000D2809D0605C0A280FD00D280DD0084667
:102E3000205C08B1002FD3DC049848B105B12E8086
:102E40000498AFE74FF0010CD0E7481C0490F3E77B
:102E5000064A04A9204652689047002DF0D001464A
:102E60000022504611F015F806B2E8E7C001002034
:102E70002DE9F0411746884606001ED0002F1CD0D1
:102E8000FDF7ADFA04463846FDF7A9FA050014D05F
:102E90000B4A2C444146926830469047411903E062
:102EA000621BB25C3255641EA142F9D930442A46F5
:102EB0003946BDE8F04113F0C1BFBDE8F081000024
:102EC000C001002000230278232902D0012A0DD05E
:102ED0000FE02AB10021012A04D0022A04D008E020
:102EE000012101E0017004E0017001E0202902D01D
:102EF0000123184670470221F6E72DE9F0410E46FE
:102F0000804602460021334608461BF0DDFA04469F
:102F10000027401C13F0FCFD050008D02F55334658
:102F20004246611C1BF0D0FA2846BDE8F081FEE75E
:102F30002DE9F0471E4614460D468246DDF82090E6
:102F400015E000BF4FEA540808FB065739465046C3
:102F50004A469047002808DD44F30000C0EB5404C3
:102F600007EB0605A4F1010401E005DA4446002C54
:102F7000E8D12046BDE8F0873846FBE72DE9FC5F45
:102F80009B460CAB8A468146DDE9116093E812103E
:102F9000DDE90F575FEA80784FF030031AD45EB155
:102FA0005FEAC07808D000F00C0858EA0C0803D09B
:102FB000761E01E00B55641CBC4204D2202CF9D3D0
:102FC00001E00B55641C5FEAC07803D0B44201D223
:102FD000202CF6D35FEAC06825D55FEA40580AD4B2
:102FE0004CB1BC4201D0B44205D1641E03D0102DB7
:102FF00003D1641E04E0102D02D0022D0AD00EE091
:10300000850603D4202C1ED2782506E0202C1AD267
:10301000582502E0202C16D262250D55641C202C68
:1030200011D20B55641C202C0DD2BCF1000F01D025
:103030002D2306E0430701D52B2302E0030702D529
:1030400020230B55641CCDE900BAC84615468146BD
:103050008B46AA46800714D1274607E02A46DDE9B9
:1030600000316D1C2020C446E0477F1CB742F5D3D9
:1030700007E02A466D1C641EDDE900311BF80400E0
:10308000C047002CF5D15FEA897006D409E02A46D2
:10309000DDE900316D1C2020C047A5EB0A00B042DD
:1030A000F5D32846BDE8FC9F2DE9F04F8FB0994637
:1030B0008B46DDE91818DDE91C63DDE91A47924605
:1030C0008646002209B923F01003580507AD00D544
:1030D000C9B1B1FBF4F004FB1010C0B20A2801D250
:1030E000303009E05FEA836C02D54FF0410C01E01B
:1030F0004FF0610C60440A38B1FBF4F1A854521C43
:1031000009B1202AE5D3CDF80880CDE90563CDE9E2
:103110000052CDE903474B46524659467046FFF7E9
:103120002DFF0FB0BDE8F08F2DE9FF4F8FB01CAC25
:10313000DDE9239594E8030820AC94E8C00400245A
:1031400050EA010201D125F010056A050DF11C08B5
:1031500002D550EA010217D032463B46FDF7A4F8EB
:10316000D2B20A2A01D2303206E0AB0601D54123A1
:1031700000E061231A440A3A08F80420641C50EA6B
:10318000010201D0202CE7D3CDE90084CDF808B0AE
:10319000CDE90595CDE9036A0FAF97E80F00FFF77A
:1031A000EDFE13B0BDE8F08F9A4200D2885470470C
:1031B000704700002DE9FF4F89B005460A980024AA
:1031C0009246002800D1FE4D8FE1252804D02246EA
:1031D000641C53460A990BE2491C4FF0000808464C
:1031E0000C9101782B2919D004DC202919D023292E
:1031F00004D119E02D290ED0302909D00026C8B2FB
:10320000FEF752FCB0B10CA8FEF737FC06461FE0F3
:1032100048F001010AE048F0020107E048F004012B
:1032200004E048F0080101E048F01001401C884625
:103230000C90D6E70C9908782A2809D1169840C82E
:103240001690002E02DA48F002087642491C0C91D2
:103250000C984FF0000B01782E2919D1401C0C90CE
:1032600048F480680078FEF71FFC20B10CA8FEF738
:1032700004FC83460CE00C9A10782A2808D1169892
:1032800002C81690002900DC0021521C8B460C92CB
:103290000C9801786C290AD004DC68290FD06A29BF
:1032A00019D128E0742929D07A2914D126E0401CAC
:1032B0000C90017848F480786C291CD00BE0401CFD
:1032C0000C90017848F08008682904D148F040014A
:1032D000401C88460C9002460078692822D015DCF4
:1032E00062281FD00DDC252871D050281AD058280C
:1032F0007FF46DAF16E048F40071E9E748F480719F
:10330000E6E7632878D06428F2D10BE0732874D004
:1033100004DC6F2806D07028EAD103E0752801D0BC
:103320007828E5D178280DD058280BD070280BD0FC
:10333000502809D06F2816D0622816D00A2128F00C
:10334000100016E0102107E05078102148F488782A
:10335000562804D1521C0C921078582807D01078A7
:10336000502804D006E0082109E0022107E048F0D7
:10337000200080461078692803D0642801D028F006
:103380000C085FEA485001D528F001081078692838
:103390001ED064281CD0562864D05FEA885072D5AD
:1033A000169804ABC01D002283E806080292CDE9FE
:1033B000076820F007005346F0E80212CDE900123A
:1033C0001690224628460A99FFF7AEFE89E00AE1E8
:1033D0005FEA885024D5169804AFC01D20F007037B
:1033E000F3E802021693002387E80A08CDE907688C
:1033F000002A03DA012102E080E0A6E00021002398
:10340000029119461B1A914101DA114603E000218D
:10341000404261EB020153462246CDE90001D1E76B
:103420005FEAC85004D5169804C80FE0524215E070
:103430005FEA486003D5169810F8042B06E05FEAAF
:103440000860F0D5169830F8042B12B21690CDE92A
:10345000021BCDE90468D00F002AE7DDCDE900208A
:1034600053461EE01698AAEB040202C8169048685C
:10347000006800900A980B6801192846FFF79AFE29
:1034800004442FE0FFE75FEAC8500CD5CDE9021BEA
:10349000CDE9046816980021534604C8CDE90021FF
:1034A0001690224619E05FEA486003D5169810F896
:1034B000042B08E05FEA0860169803D530F8042B67
:1034C00092B200E004C816900020CDE90020CDE9BA
:1034D000021BCDE904685346224628460A99FFF7A5
:1034E000E3FD04460C98401C0C900C9908780028C9
:1034F0007FF46BAE54457DD222467DE001275FEA22
:10350000887006D509E02246641C534620200A999B
:10351000A84738467F1CB042F5D316992246641C52
:1035200011F8040B169153460A99A8475FEA887070
:1035300006D4D7E72246641C534620200A99A847A0
:1035400038467F1CB042F5D3CCE7169850F8049B60
:1035500016904B46BBF1000001D0014601E04FF050
:10356000FF31484600E0401C02780AB1491EFAD2F9
:10357000C71A5FEA485003D558465F4500D307464F
:103580005FEA887006D512E02246641C534620206C
:103590000A99A84738467F1CB042F5D307E000BF20
:1035A000224609F10109641C53460A99A84799F873
:1035B000000040B15FEA4851F2D5BBF1010B01E0D8
:1035C000B1310008ECD25FEA887006D48AE722465F
:1035D000641C534620200A99A84738467F1CB042F5
:1035E000F5D37FE706E02246641C534625200A995E
:1035F000A84777E7AAF10102534600200A99A84795
:103600000DB02046BDE8F08F10B502004FF000006D
:103610000CD04B1E194200D0FEE70A44521E9A43BA
:10362000B2F5803F02D20C2A01D9104610BD0C2001
:1036300010BD08444A1E401E9043114200D0FEE7D0
:10364000704700002DE9F0410F4601210025044696
:1036500041862E460BE01B49FCF77EFF10B16D1C26
:10366000ADB202E0608E401C6086761CB6B257F8A0
:10367000260010B101780029EDD1208EA8421ED07D
:10368000A06A002610B113F0CDFAA662E06A10B16C
:1036900013F0C8FAE662E80013F03AFAA06238B113
:1036A000680013F035FAE06218B1A16A11B102E0C6
:1036B000FEE7FEE70025690013F0FEFB2586BDE866
:1036C000F0810000ECF600082DE9F84F8146407AC1
:1036D0000F4600F00700022819D010468046974296
:1036E00000DD3A46164603202A4C2B4A00EB4600E2
:1036F00020F00305A06811681035411A636805EBD6
:10370000010C9C4505D2416821F0004124E00846A7
:10371000E4E79D4219D892464FF0FF3B4819616893
:10372000884210D9002269461C48CDF800B00AF042
:1037300037FB002269461A480AF032FBA168DAF822
:103740000000091AEAE7A068DDE7284613F0E0F96F
:10375000C0B1416841F0004188EA6702416089EAEE
:1037600002010160416801F04041491C31F0804193
:1037700041608681A0F80E8005D500F110018160BE
:10378000BDE8F88FFEE7A16801F1100229448260CC
:10379000A160F5E7440000209C010020BDC00008A6
:1037A00001DE000870B586B000228DF808208DF883
:1037B0000C208DF81020444C90F83C20142302F08B
:1037C0000302A5784FF4B476012A23D0022A5FD0F1
:1037D000AA4211D010F8265F05EB051505EB45054B
:1037E000B5FBF3F52570407800EB001000EB4000CE
:1037F000B0FBF3F06070A27004AA03A8CDE9000248
:1038000001EB41004FF6FF7101EA400002AB627824
:1038100021781AE0AA4210D0858C05EB45056D028F
:10382000B5FBF6F5A58090F8270000EB001000EB43
:103830004000B0FBF3F06070A27004AA03A8CDE9C9
:103840000002C9B202AB62783CE008F049F99DF889
:1038500010209DF80C10D308BDF800209DF808003A
:1038600063F30402ADF800208A08BDF8001062F38B
:103870004A11ADF80010C108BDF8000061F3CF2077
:10388000ADF8000080B20090BDF8000006B070BD39
:10389000AA4210D0858C05EB45056D02B5FBF6F507
:1038A000A58090F8260000EB001000EB4000B0FB74
:1038B000F3F02070A27004AA03A8CDE90002CAB2F6
:1038C000217802ABA088C0E7F400002010B5084CB6
:1038D000012020700748FEF78EFF0028A06803D063
:1038E000BDE810401AF056BABDE810401AF046BACA
:1038F00080010020D84F002010B5044690F83E000B
:10390000626B810707D4A18F39B1A1F57F43FF3BDB
:1039100015D0491EA187A18F89B90AB181070ED59B
:1039200021461348FEF7D1FFFFF7D0FFE16809B148
:10393000204688472046BDE8104013F073B9A16BBC
:103940004942E162002A11D0810702D4216B494229
:10395000E1624110491C61F3410084F83E00616A54
:10396000E069E1616062A06AA262606310BD00006C
:10397000D84F002070B5304D68681AF0C7F8064679
:10398000687880F00100687047E00020287094F8A3
:103990003E006978C0F380028A4242D061F382001F
:1039A00084F83E00E16A8A19030719D4002917DC5C
:1039B000002A15DBC00709D1216939B120468847A3
:1039C000E1690144E161616A08446062A16809B18A
:1039D0002046884794F83E0040F0080084F83E00F6
:1039E000E06A8019E06216D4A16A884200DDE162D3
:1039F000A169204688470146206A884204D0216296
:103A000062680AB120689047D4E90A01814202DB6A
:103A10002046FFF771FF287818B10848FEF7EBFE43
:103A200003E021460548FEF7F8FE0400ADD11AF088
:103A300073F8686070BD000080010020D84F00203E
:103A400070B5044640680D4608B1FFF7F9FF2268DB
:103A5000002A04D029462046BDE87040104770BDBA
:103A600089B20BF0BAB889B20BF0F3B810B50446BE
:103A7000406882080AD0496821F00301091D084402
:103A80006060204600F042F8204610BDFEE7406826
:103A9000103120F00300884201D30120704700203C
:103AA00070472DE9FC47054648680C4620F00300A6
:103AB00001AA69461AF0F4FFDDE9007005EBC711B1
:103AC00001EB80098046D9F83C0060B164B1C4E9DB
:103AD000020504F10806C46030460421FFF7A9FD81
:103AE000864202D0FEE7FEE7FEE7C9F83C4001202F
:103AF000296900FA07F21143296105EB870100FAF1
:103B000008F04A6902434A61BDE8FC8710B50446E3
:103B100000F087F8046010BD2DE9FC4706464FF021
:103B200000000D0000900746019042D00C46E94687
:103B30000DF10408802907D308461EF096FB411FAB
:103B400001208840401E04444246494620461AF05F
:103B5000A7FF009C0A2C2CDA06EB8400019A40692E
:103B60004FF0FF3101FA02F210400CD1641C3069B1
:103B7000A14008401DD01EF070FB0446009006EBEB
:103B80008000406978B11EF068FB034606EBC41163
:103B9000019001EB8000C76B5FB1786820F00300F3
:103BA000A84201D2FEE7FEE739463046009A1BF0F4
:103BB0005BFD3846BDE8FC8710B50446FFF7A6FF5D
:103BC000416841F002014160606840F001006060BE
:103BD00010BD10B5044600F024F8416821F0020140
:103BE0004160606820F00100606010BD70B506465D
:103BF0000D46084600F015F8040010D02079C007E3
:103C00000BD0686880080BD02146304600F03CF8A5
:103C100021462846FFF72AFF0546284670BDFEE7E5
:103C2000FEE7426800F1080122F00300001F08448B
:103C3000910800D1FEE7704770B506460C004FF0C2
:103C400000001ED0F2B120791546C0071BD01146E6
:103C50002046FFF71CFF78B12946204600F025F8E2
:103C600005462046FFF752FF6868294640F00200EB
:103C700068603046FFF715FF2046FFF7AAFF04F102
:103C8000080070BDFEE7FEE77CB5054648680C46B7
:103C900020F0030001AA69461AF002FFDDE90023C3
:103CA000214628461BF0E0FC7CBD2DE9F0410D4685
:103CB000044600F10801281F0E18606806F1080785
:103CC00020F00300401BA0F1040838460421FFF750
:103CD000B0FC874200D0FEE7606820F0030108EBEB
:103CE0000500001D814200D0FEE7307900F003009E
:103CF00040EA0800706020F003000C2800D2FEE7C4
:103D0000207900F00300284360603046FFF754FF3D
:103D10003046BDE8F08138B5044611F061FB054638
:103D200011F093FB0028204605D0218FE18616F084
:103D300073F8012038BD0FF097FD002820461ED0F3
:103D40000FF067FC218FE08E81420CD02087E08E3F
:103D500000906A461C2120460FF0C0FF0128E9D1DF
:103D6000204616F059F8284611F07BFB0428E0D1D4
:103D7000204614F091FC002110F0F8FBD9E70FF079
:103D8000CFFDD6E770B50FF0A4FF054614F0CAFCCE
:103D9000044628460BF054FD01462046BDE870401D
:103DA000012219F0DFB900002DE9F04F0D4687B070
:103DB0000446002114F0A5FB60B32946204600F01C
:103DC00061FA2946204600F06FF80021204615F0E0
:103DD000C8FA05900021204615F087FB04900021C9
:103DE000204615F091F9012800D0002080460021DE
:103DF000204615F00BFD07460021204615F002FA7B
:103E000042F2D17906464F450BD1608C400508D46B
:103E1000012707E007B02846BDE8F04F1C2113F04A
:103E20004BB80027204614F0EAFBDFF878A0834661
:103E300020460021BAF8022015F0C0FBD5F810C0CA
:103E4000AB682968CDF800C0CDF80C80CDE9013110
:103E5000C2B239465846059B09F0F2FA28834E450E
:103E600004D1608C800501D4012600E000262046A4
:103E700014F0ABFB074620460021BAF8062015F0E7
:103E80009DFBC2B2686900246B68E9688DE81B007D
:103E900031463846049B09F0D3FA688307B0BDE881
:103EA000F08F0000680000202DE9F34F81B00C4630
:103EB000019808F033FD0646019814F0A0FB8246F5
:103EC000304600F00BFF2061400012F04DFE2060F4
:103ED0002069400012F048FE002541F69A79A06062
:103EE0003AE036F91510DFF82081494533D1002733
:103EF000DFF818B11FE03946019814F002FB59466B
:103F0000009015F0F6FCA8B9009808F019FD0128FA
:103F100010D1009808F00AFDA8420BD1009815F0C6
:103F200098FC4146404501DA084602E0009815F049
:103F300090FC80467F1C019814F0F5FAB842DAD85C
:103F4000B8F1000F03DBA16821F8158003E0A16838
:103F5000002021F815006D1C2069A842C1D8002559
:103F60002F46284641F69B784B4615E036F910104F
:103F7000414504DB0D44A5F5F8559B3D0BE0994206
:103F800004D1A16831F81010394403E0A26822F886
:103F9000101039440FB2401C21698142E6D800213B
:103FA000019815F0DEF92169C1F1010200FB02A0C0
:103FB000C01B00B2002800DA002000224FF0FF33BF
:103FC0001146C44611E000BF36F9117067450BDB9E
:103FD000A7F5F8579B3F3AB210FB02F3B3FBF5F39A
:103FE000A76827F811300B46491C27698F42EBD888
:103FF000002B07DBA91A4143B1FBF5F1401AA16878
:1040000021F81300BDE8FE8F01E0FFFF010006006C
:104010002DE9F14F00221146009816F0C9FD00214C
:10402000009815F0A5F804460021009815F06BFAE9
:1040300020440FFA80F90021009815F03EF9204441
:104040000FFA80F8009815F005F800EB090101EB74
:104050000800DFF898A006B25446009814F063FAFE
:10406000074600252AE0009821498068006850F83A
:104070002500834615F03DFCF8B9584615F02EFF93
:1040800040BB0021584615F00AF818B3012821D08A
:1040900002281FD003281DD00021584615F0D2FB5E
:1040A00058B9BBF81A10BBF81600081A401C00B229
:1040B0004844A04200DB044624B26D1CBD42D2D36A
:1040C000544504D004EB080000B2B04200DC304696
:1040D000BDE8F88F0098BBF91A10B0F91600081A5D
:1040E000411CA142E8DB0C46E6E7000001E0FFFFCF
:1040F000010004002DE9F84F00228046114616F019
:1041000041FD0021404615F033F8044600214046A9
:1041100015F097F920440FFA80FA0021404615F077
:104120003CF920440FFA80F9404614F0A1FF00EB5F
:10413000090101EB0A00DFF844B105B25C464046D4
:1041400014F0F1F907460021404614F0C8FF012899
:104150004FF0000644D078E0D8F8080048490068DD
:1041600050F82600009015F0C4FBC0BB009815F075
:10417000B5FE50B10098B8F91810B0F91400091A3A
:10418000481CA0422ADB4C1C28E00021009814F0B7
:1041900086FF58B1032809D0062807D0082805D083
:1041A0000021009815F047FB58B118E00098B8F9C5
:1041B0001810B0F91400081A411CA1420EDB0C467D
:1041C0000CE00098143000900AF013FE5044A04216
:1041D00004DB00980AF00DFE00EB0A0424B2761C02
:1041E000BE42B9D35C453BD004EB090033E000BFCD
:1041F000D8F808002249006850F82600009015F011
:1042000078FB08BB009815F069FE60BB00210098A0
:1042100014F045FF38B3012825D0042823D00728FF
:1042200021D00021009815F00DFB68B900981430DA
:1042300000900AF0DEFD4844A04204DB00980AF03A
:10424000D8FD00EB090424B2761CBE42D0D35C45F5
:1042500006D004EB0A0000B2584501D0A84200DCA9
:104260002846BDE8F88F0098B0F91810B8F9140086
:10427000091A481CA042E6DB4C1CE4E701E0FFFF02
:10428000010004002DE9F84F0C46834608F064FF56
:10429000064600F023FD6061400012F065FC60609E
:1042A0006069400012F060FC002541F69A79E060F8
:1042B0003AE036F91500DFF80C81484533D1002784
:1042C000DFF804A11FE03946584614F01AF95146A8
:1042D000009015F00EFBA8B9009808F0C3FF012864
:1042E00010D1009808F0B4FFA8420BD1009814F048
:1042F000D8F94146404501DA084602E0009814F03A
:10430000D0F980467F1C584614F00DF9B842DAD82F
:10431000B8F1000F03DBE16821F8158003E0E168E4
:10432000002021F815006D1C6069A842C1D8002743
:104330003D46384641F69B784A4615E036F910105E
:10434000414504DB0F44A7F5F8579B3F0BE0914232
:1043500004D1E16831F81010294403E0E36823F840
:10436000101029440DB2401C61698142E6D8002139
:10437000584615F0BAF88146584614F026F9014619
:104380006069C0F1010209FB0210401B02B2002A61
:1043900000DA0022002043460FE000BF36F910107B
:1043A000994209DBA1F5F8519B3912FB01F1B1FBF0
:1043B000F7F1E56825F81010401C61698142EDD8DD
:1043C000BDE8F88F01E0FFFF010006001CB50B8877
:1043D00004892344ADF800304B8844892344ADF868
:1043E00002308B8804892344ADF80430C98843899E
:1043F0001944ADF806104369694698471CBD000092
:10440000F8B50D46D0E90C2104468AB112787AB18C
:1044100041B100BF19F0A7F90D4909688847616BE0
:10442000884211D2206B88B100200A4E009006E02D
:1044300061B1EFE7326869469047A84206D0206B29
:104440000099415C0029F5D10020F8BD0120F8BD9C
:10445000D8010020C40100202DE9FF4F87B0C878A3
:10446000189CC0070D46002801D0F14800E0F14833
:10447000069001D0F04800E0F048049001D1EE48E9
:1044800000E0EE484FF0100A4FF00C0ECDF814008B
:104490006088A1884FF0000BA0EB010001B25A46E2
:1044A0005846276912E000BF00EB8006E3680AEB7C
:1044B000860C13F80CC05FEACC7C0BD04FF0080CD4
:1044C0000CEB86069B5BC91A09B2401C8742EBD8ED
:1044D000002347E00EEB86069B5B1A4412B2F4E71A
:1044E00003EB8306E7680AEB86000190385CC0079F
:1044F00037D191FBF2F00EEB860CCDF800C037F807
:104500000CC00CFB00FC0FFA8CF94FF0060C0420D9
:104510000CEB860C00EB860037F90C80385ECC463D
:10452000C84500DCC446604504DC4046CC46C8456E
:1045300000DD6046484506D0DDF804804FF0010CF0
:10454000E34647F808C0D4F80CC0082707EB8606F6
:104550002CF80600E768009EBE5B921B081A12B298
:1045600001B25B1C20699842BAD8BBF1000F8FD111
:104570000021079814F0C1FD012826D00027002053
:10458000ADF80800ADF80C0003A902A8CDE90001C0
:104590002089B4F9022003B2287816991AF070FC29
:1045A000E878384207D0079814F029F8BDF80810C9
:1045B0000844ADF808000999079813F0A2FF0646D1
:1045C0004FF4FA684FF0640B27E10127D7E79C49C5
:1045D000304615F08EF900287DD10021304614F0C8
:1045E000F9FDE8B34FF000094846216911E000BF2A
:1045F000E26800EB800352F82320B24208D100EBBE
:104600008002E168082000EB820031F9009002E0AE
:10461000401C8142ECD8E878C007708C02D040F48E
:10462000806001E040F40070708406F11400049989
:1046300082468847484528D0304615F0EDFBB08AC1
:10464000ADF80000F08AADF80200308BADF8040040
:10465000708BADF80600069A49465046904700E038
:104660000FE06A46292130460FF038FB304614F03F
:1046700059F8324622210FF031FB304615F0CCFBC1
:1046800003E0708C20F4C060708400200090687893
:10469000012810D0022816D1059906F11400884788
:1046A000B4F90010491C21F00101081A00EBD07088
:1046B00040F34F0006E0059906F114008847218871
:1046C000081A00B20090E87838420AD0049906F13E
:1046D0001400884700E098E0BDF80810081AADF80B
:1046E00008003046002143F20C0214F067FF0FFA75
:1046F00080F93046002143F20D0214F05FFF0FFAFB
:1047000080FA304615F0A5F80190304613F0C9FF45
:104710000146C9F3413001280ED129F4C04040457B
:104720000ADCB0F57A7F01DDC0F57A70019A50435A
:1047300090FBFBF00FFA80F9CAF3413001280DD14C
:104740002AF4C040404509DCB0F57A7F01DDC0F5B0
:104750007A70484390FBFBF00FFA80FAB18A149804
:10476000F28A411A01EB0900159900B28A1A02EB8C
:104770000A01EA7809B2D207002A02D0BDF908205E
:1047800000E0009A10440FFA80FA01D0009801E08E
:10479000BDF9080008440FFA80F95AEA09001BD055
:1047A000304615F039FBB18A01EB0A00B082318B3B
:1047B00001EB0A003083F18A01EB0900F082718B72
:1047C00001EB09007083304615F026FB01234A46B1
:1047D0005146304615F0D0FBE87838420CD10499A8
:1047E00006F11400884717990844BDF80C100844D6
:1047F000BDF80810084406E0BDF80C1017980844EE
:10480000BDF80810081AADF80800E87809AAC0F346
:104810008001079808F06CFB0646002E04D0DDE905
:10482000090188427FF4D3AE0BB0BDE8F08F0000E1
:104830007BEE000871EE000817EE0008BFED0008DF
:10484000010006002DE9F04F91B00E0005463FD063
:104850002E83286808B112F0E5F906EB4600062120
:1048600001EB400012F054F9286040B3022101EB43
:1048700046010144E960042101EB86010144C5E9D8
:10488000010101210024012E1AD0F000083012F09D
:104890006BF9814600EB860000F10408B00000B21D
:1048A000A346ADF81000C0F101028010ADF812B0BF
:1048B0000FFA82FA5C46CDF828B00690ABE0FEE72E
:1048C000B4220270E8680480E8684180A868048027
:1048D00011B0BDE8F08F0027BDF81220BAF1000F2B
:1048E00007DC032101EB42010AEB01000FFA80FA19
:1048F0000CE0BDF810100523521A03EB420202EB44
:104900000A00491E0FFA80FAADF81010BDF8120027
:10491000401CADF8120004A800F0E9F868B1BDF938
:10492000100006A9821041F827200AA900F0030010
:1049300041F827007F1C042FCEDB042F71D1099989
:104940000698884212D129F8140028F814B0DDE93D
:104950000A010144DDE90C20104408446968085547
:10496000696800010855641C24B252E00799884226
:1049700019D029F8140028F814B06A680A9810555C
:104980006A6800011055641C069A20B2521E29F86C
:10499000102028F810B0DDE90B120A440D99091D0A
:1049A00011446A682FE0089929F81400884228F811
:1049B00014B0DDE90A025946104412D06A68105555
:1049C0006A6800011055641C069A20B2521E29F82C
:1049D000102028F81010DDE90C12114408316A6823
:1049E00011E00C9A10446A6810556A68000110556D
:1049F000641C069A20B2521E29F8102028F81010C4
:104A00000D996A680C3111546A6809011154401CEF
:104A100004B20BF1010B04A800F069F800287FF440
:104A20005AAF40F2D32016FB00F109EB4402881282
:104A300032F9022C824205D108EB440232F9022CF1
:104A400082421AD0A1EB8021B1F5007F03DC4943FB
:104A500041F3CF3106E0C1F58061494341F3CF31E5
:104A6000C1F10F0129F8140028F8140068680155F5
:104A7000686809010155641C24B2A01E0EE000BF45
:104A800038F8102029F8142039F8102028F81420BC
:104A900069680A5C0A55641C24B2401E0028EFDADB
:104AA000EA680021084611801BE0EA6822F811003C
:104AB000AB6839F8102023F811200AE0AE6839F904
:104AC000102036F81130934200DA1A4626F81120E9
:104AD000401C38F910208A4201D1A042EEDB491C6B
:104AE00009B2A042E1DB484612F08AF8F0E6B0F9DC
:104AF0000210B0F90000814201DC01207047002063
:104B0000704717B581B0022A03D8BDF8080004B079
:104B100010BDBDF80830BDF80400D90A01EBD02162
:104B20001F2900D31F2161F3CF20C3F34511C0F328
:104B300045142144ADF804003F2900D33F2161F31F
:104B40004A1003F01F0100F01F031944ADF80400E0
:104B50001F2900D31F2161F30400ADF80400FF2AD0
:104B600007D0DDE901010BF085FE0090BDF80000E3
:104B7000CDE780B2CBE717B581B0022A03D8BDF8E4
:104B8000080004B010BDBDF80400BDF80810C30A49
:104B9000CC0A13FB04F35B0963F3CF2000F01F037F
:104BA00001F01F0413FB04F35B0963F30400C0F37B
:104BB0004513C1F3451113FB01F1890961F34A1053
:104BC000ADF80400FF2A07D0DDE901010BF052FE29
:104BD0000090BDF80000D4E780B2D2E717B581B0ED
:104BE000022A03D8BDF8080004B010BDBDF8083093
:104BF000BDF80400D90AA1EBD021002900DC002176
:104C000061F3CF20C3F34511C0F34514091BADF880
:104C10000400002900DC002161F34A1003F01F01A9
:104C200000F01F03C91AADF80400002900DC0021C0
:104C300061F30400ADF80400FF2A07D0DDE90101AB
:104C40000BF018FE0090BDF80000CDE780B2CBE776
:104C5000F8B504460FF03DF8064620460EF0FBFF7F
:104C60000546304613F05EFD04462B2D2AD00A2D52
:104C700027D16946304613F0BBFD304613F0BFFC28
:104C800005460021204614F046FA0128BDF900002F
:104C900005EBD5711CD000EB610000BF90FBF5F077
:104CA00001B2002900DA0021608D4FF00102884234
:104CB000204610D018F056FA00221C2120460FF092
:104CC0000DF8F8BD618DBDE8F840002218F04ABA31
:104CD000C0EB6100E2E718F045FAF8BD014600209C
:104CE00041F6FF7200E0401C31F910309342FAD1D6
:104CF00070471CB5044690F8500000F0010088424F
:104D00002DD094F8500011B140F0010001E020F0E6
:104D1000010084F8500004F1440168460AF040F8AC
:104D2000606ABDF80010828A1144ADF80010BDF829
:104D30000210C08A0844ADF80200606ABDF8041091
:104D4000808A0844ADF80400606ABDF80610C08A85
:104D50000844ADF806006946204615F091F81CBDE0
:104D600008B5084611460BF040FC0090BDF8000065
:104D700008BD2DE9F04F0646C87A89B015460F46A2
:104D8000022803D8012009B0BDE8F08F18463A691F
:104D9000B968FDF777FC041EF5D0207D00F01F00F8
:104DA0000FF01BFD08B1062008E0207D00F01F0079
:104DB0000FF003FD08B1052000E00420226A8146BF
:104DC00022B1294630461BF010F8B7E0A069E8B3DD
:104DD000294602A809F0AEFF388818B97888B0F5DE
:104DE000807F2AD0A88829886A88401A401C01B28E
:104DF000E8883B1D801A401C02B27888CDE9000388
:104E0000B7F9003002A8FDF7B9F8BDF80800298805
:104E10000844ADF80800BDF80A0069880844ADF8F8
:104E20000A00BDF80C0029880844ADF80C00BDF854
:104E30000E0069880844ADF80E0002AA04A8B16803
:104E4000FCF752FE002879D004A800E00DE0D6F867
:104E50000880B060CDF800902A4639463046A369F4
:104E60000CF0C6FBC6F8088068E02A4604A8B168C2
:104E7000FCF73AFE002861D0BDF81400BDF8101010
:104E8000401A401C0FFA80FB0BEB4B0011F06CFE3C
:104E9000039004A901A8D6F808A009F04BFF01214E
:104EA00001A809F0E5FFBDF91000B5F90010BDF942
:104EB0001280401A0690B5F90200A8EB000534E014
:104EC00001AA514607A8FCF70FFE60B303980090B3
:104ED00006985B4601B22AB2204610F05DF8012820
:104EE0000CD020460FF0ADFF039811F089FE20464C
:104EF0000FF0A7FF0020C6F808A044E707A8B0609D
:104F0000CDF8009001AA39463046039B0CF070FBA7
:104F1000BDF80600401CADF80600BDF80A00401CB4
:104F2000ADF80A006D1C08F10108BDF916004045F6
:104F3000C6DAC6F808A0039811F062FE20460FF00A
:104F400080FF1FE7704700002DE9F84315460C4627
:104F50008146FCF789FBE388A28861882088FCF7FA
:104F60008BFB012291031448FBF7D4FDB4F90270C6
:104F70004FF0FF3817E000BFB4F900600EE028786A
:104F80008DF8000028884346000A8DF801000222AF
:104F900069460A48FCF77CF9AD1C761CB4F904009C
:104FA000B042ECDA7F1CB4F90600B842E4DA4846B5
:104FB000BDE8F8430CF07AB8000402409C020020DF
:104FC00070B5054610F00CFA0646286B18F09EFDE9
:104FD0003168898B884223D295F83C006C6A10F0C6
:104FE000030105D06420012906D0022909D106E079
:104FF000002060F30F0404E060F3174401E060F365
:105000001F64304610F0B1FA214628460BF02CFF01
:1050100030B100221C2128460EF060FE012803D189
:1050200018F07AFD2863012070BD00002DE9F04FD3
:10503000A1B0074614468A4604A80CF0C1F84FF404
:10504000A021384614F035F89DF81D1060F3820158
:105050008DF81D10A1882088091A491C09B201EB9E
:10506000D1714E103044ADF870006088002130449A
:10507000ADF87200384614F004F98146514608A88C
:1050800013F07EF804A810904FF4003015902D48CE
:10509000099000200A9007F130008346FDF7C4FB19
:1050A0004AE02079032843D1208BADF81000208AF4
:1050B000ADF812006079FD2801D9484602E010FBE6
:1050C00009F0000A8DF81C002568B5F92030E88B3E
:1050D00018440090D5E90512A06811F007FD80463C
:1050E000B5F92030E88B18440090D5E90512E06846
:1050F00011F0FCFC0546608B08AA3044ADF85C005A
:105100001CA811901A21199438460EF0E7FDA9B297
:105110001FFA88F0CDE90001BDF85C301CAA04A993
:1051200050460CF03DF808AA1B2138460EF0D6FD7B
:1051300021465846FDF775FB0400B2D121B0BDE809
:10514000F08F00008C2F02082DE9F74FC878A0B02F
:105150000C4602287DD9114601A809F0E2FDB4F9F8
:105160002000012829DD94F82200FD2825D320887D
:1051700018B394F82300BDF804104008C0F380026F
:105180001144ADF80410BDF80610C0F34000084407
:10519000ADF8060094F82310BDF808004908C1F3E3
:1051A000C001401AADF8080094F82310BDF80A00B9
:1051B000C1F34001401AADF80A00209801A98268A5
:1051C00005A8FCF791FC002843D0E07B10F007060F
:1051D00019D0E088ADF80000BDF800006189884270
:1051E00000D1002601A80CF0F9FE07461C210EA8EC
:1051F000FBF78BF9A0788DF85100BDF80000ADF8F1
:1052000040001FB105E060680090E5E7208800B924
:10521000EEB3E078FD2800D3FF208346BDF80800F8
:10522000BDF80410401A401C0FFA80FABDF80A00BD
:10523000BDF80610401A401C01B289465046CA45C6
:1052400000DB0846B4F90050B5EB600F00DB4510F9
:1052500000E043E0BDF81810BDF81400081A401C27
:105260000FFA80F84FF0FF301D9000200790002DBE
:1052700000DC87B1404611F077FC079000232A46F6
:1052800001A916A80DF016F9002116A800E01CE0EF
:105290000CF0C4FC1D90BDF81400ADF80C00BDF876
:1052A0001800ADF810000798119003A80E90139005
:1052B000FF208DF850004A465146A01D0EF0F6FF23
:1052C000040018D0022E0CD015E001A80E90E07852
:1052D0008DF850000EA920980DF0A8FB23B0BDE872
:1052E000F08FBDF91410A06800EB4100BDF9041067
:1052F000A0EB41000F90002F7DD0BDF9165027E0A4
:105300002FB2ADF80E70ADF81270424659460798AC
:1053100011F0A0FDBDF9141043463A4607980CF071
:105320001FFE8DF84800012802D102208DF84800A8
:10533000012E08D1BDF90610A068691A00EB4100E2
:105340000088ADF840000EA920980DF06FFB6D1C91
:10535000BDF91A00A842D3DAB7E000BFBDF80600D5
:10536000BDF9161038440FFA80F9BDF80A00C01BC9
:105370000FFA80FA494503DDBDF91A10514544DBA7
:1053800042465946079811F065FDBDF90C10434699
:105390004A4607980CF0E4FD8DF84800012802D138
:1053A00002208DF84800BDF91610494513DCADF810
:1053B0000E90ADF81290012E09D1BDF90620A1681A
:1053C000A9EB020001EB40000088ADF840000EA9F7
:1053D00020980DF02BFBBDF91A10514515DBADF8E7
:1053E0000EA0ADF812A0012E0BD1BDF90600A268E7
:1053F000AAEB000000E009E002EB40000088ADF8F5
:1054000040000EA920980DF011FB7F1CAF42A5DBD8
:10541000BDF80400ADF87800BDF80800ADF87C00D8
:10542000BDF806002844ADF87A00BDF80A00401B1C
:10543000ADF87E001EA80CF0D1FD074630430CD01D
:1054400001208DF84800BDF90A008DF850B0A0EB9E
:105450000509BDF90600054435E0BDF806008DF8E4
:1054600050B02844ADF80E00BDF80A000EA9401B4C
:10547000ADF812000020119020980DF0D7FA24E02A
:105480006FB142465946079811F0E4FCBDF914107B
:1054900043462AB207980CF063FD8DF84800ADF83A
:1054A0000E50ADF81250012E08D1BDF90600A168CA
:1054B000281A01EB40000088ADF840000EA92098A2
:1054C0000DF0B4FA6D1C4D45DADD079808B111F006
:1054D00097FB1D98401C05D01D980DF097F816A855
:1054E0000CF060FD002C3FF4F9AE20460EF0D8FE23
:1054F000F4E6F0B5074608698FB015460C4600285B
:1055000071D0A17E02296ED90FF059FF022820D058
:10551000694620690FF0B6FC012864D105A80CF09B
:105520006FF8A0788DF82000208BADF81C00E07E8D
:105530008DF81E00A07E8DF81F00207F4FF0FF36F3
:10554000E0B300996888ADF8060006EB51510844B5
:10555000A8E0002641F6FF70CDE900600296D4E98C
:10556000041233460DA818F00DFE284609F047FC3A
:1055700001462A88BDF9340001EBD17102EB6102CA
:1055800000EBD071A2EB61010844401EADF81000A1
:10559000ADF80C10284609F00CFC01466A88BDF9EC
:1055A000360001EBD17102EB610100EBD072A1EB8F
:1055B00062010844ADF80E10401E00E015E0ADF8A1
:1055C000120005A80CF0D2FA60690590208BADF8A6
:1055D0002000A07E8DF82E00009603AA05A938466B
:1055E00023690CF027F80FB0F0BD284609F007FC3E
:1055F000298800EBD07001EB60000099C1F38A218B
:10560000A0EB5100ADF80400284609F0D2FB6988F0
:1056100000EBD07001EB60010098A1EB9051C0F35A
:105620008A22ADF80610BDF80430521E1A4406EB6B
:105630005050ADF808200844ADF80A0001AA05A9A9
:10564000384623690BF0B4FFCDE700992888C1F3F1
:105650008A21ADF80400491E084410E001AA05A9FA
:10566000384623690BF0A4FF0098BDF80410C0F37E
:105670008A200144ADF80410BDF808100844ADF8C4
:105680000800BDF90400B5F904108842E6DDBDF854
:105690000610009801EB5051ADF80610BDF80A1045
:1056A00001EB5050ADF80A00BDF90600B5F906103F
:1056B0008842CADD97E7F0B5074691F8220087B027
:1056C00016460C4602286BD9208C002868D094F826
:1056D000230010F03E0F63D0C00761D1B08831883D
:1056E0007288401A401C01B2F088B4F90050801A48
:1056F000401C00B2814200DA0846B5EB600F00DDC5
:105700004510314604A809F00CFB94F82300BDF9BC
:105710001020C0F344014807B4F9200001D4284404
:1057200040421044ADF810000807BDF91420B4F948
:10573000200001D428444042101AADF8140094F817
:105740002300BDF9121040088007B4F9200001D4ED
:10575000284440420844ADF8120094F82300BDF9F3
:1057600016104008C007B4F9200001D12844404277
:10577000081AADF81600208C281A00B2002800DAAA
:105780000020A27894F82210CDE90212E18BADF846
:10579000041000902B4604AA3146384600F002F867
:1057A00007B0F0BD2DE9FF4FA9B01D46DDE93879FE
:1057B000DDF8D88016460C46FF2F00D3FF27084699
:1057C0000CF00CFC2690284350EA080074D029986D
:1057D0002146826808A8FCF787F9002873D0BDF835
:1057E0002400BDF82010401A401C00B204901C2177
:1057F0000AA811F061FB049811F0B6F90D904FF072
:10580000FF302490002D0ADD00232A46214615A8EA
:105810000CF050FE002115A80CF000FA2490012392
:10582000424631461BA80CF045FE00211BA80CF097
:10583000F5F9259001A80A900F90BDF8DC008DF8CD
:105840004070ADF830008DF84190B4F9000022901E
:10585000B6F900C04319634500DC6346B4F904009F
:105860000FFA83F92190B6F90430401B984200DB0F
:1058700018460FFA80F8B4F902E0B6F902000EEB10
:1058800005018246514500DC01460FB2B4F906B06D
:10589000B6F90610ABEB05028A4200DB0A4610B2ED
:1058A0000590A8EB0900401C00B22790D6450DDCFE
:1058B00001200CE000E006E0009732462146379BCD
:1058C000299800F0B8F92DB0BDE8F08F002082468D
:1058D0008B4501DB012000E0002083462698D8B3E9
:1058E000BDF82000ADF80400BDF82400ADF80800B4
:1058F000BDF9224022E000BFBAF1000F01D1A7425A
:105900001BDCBBF1000F02D10598A0421ADB25B2C7
:10591000ADF80650ADF80A5004990D9811F0FAFA56
:10592000BDF920102A46049B0D980CF019FB8DF848
:1059300038000AA929980DF079F8641CBDF92600F1
:10594000A042D9DA1BA80CF02DFB25980CF05EFEC6
:105950002498401C07D000E009E015A80CF022FBB9
:1059600024980CF053FE0D9811F04AF9ABE72298F9
:10597000604501DC012000E000201390219898424E
:1059800001DB012100E00021012000901398129119
:10599000084000EA0A0010EA0B0F04D027983228CA
:1059A00001DA00200090012000998DF838001AEAF1
:1059B000010F0ED0ADF80490ADF808806088ADF806
:1059C000060070880AA9401EADF80A0029980DF05B
:1059D0002DF800991BEA010F0ED0ADF80490ADF838
:1059E0000880F0880AA9401CADF80600E088ADF8F0
:1059F0000A0029980DF01AF8139878B12088ADF8AC
:105A000004003088ADF80670401EADF80800059817
:105A1000ADF80A000AA929980DF008F8129878B193
:105A2000B0880AA9401CADF80400A088ADF80800B1
:105A30000598ADF80670ADF80A0029980CF0F6FF4D
:105A40000098C0B1BDF92400BDF92010A9F10102F0
:105A5000ADF80410904200DB1046ADF80800401A83
:105A6000401C05B2002D70DD139850EA0A0066D084
:105A7000BDF9224061E0BDF82000ADF80400BDF89A
:105A80002400ADF80800B4F90200B6F90210401A7B
:105A9000A84200DB05460FFA85F8002533E0608850
:105AA000284406B2E088401B07B2BDF92200B0428C
:105AB00003DDBDF92600B84224DB04990D9811F0EE
:105AC00029FABDF904103246049B0D980CF048FAEF
:105AD0008DF83800BDF92200B04207DCADF8066051
